:020000040020DA
:10000000081B00208D0220001B56200019562000DE
:100010001956200019562000195620000000000033
:10002000000000000000000000000000C15F200090
:100030001956200000000000DF5F2000710820003A
:10004000895620008F562000955620009B56200090
:10005000000000007D562000835620001956200025
:100060001956200000000000000000000000000001
:1000700000000000000000001956200000000000F1
:100080000000000000000000195620001956200052
:100090001956200019562000195620001956200024
:1000A0001956200019562000195620001956200014
:1000B0001956200019562000195620001956200004
:1000C00019562000195620001956200019562000F4
:1000D0001956200000000000000000000000000091
:1000E0000000000000000000000000000000000010
:1000F0000000000000000000551A2000651A2000D2
:1001000000000000000000000000000000000000EF
:1001100000000000000000000000000000000000DF
:1001200000000000000000000000000000000000CF
:1001300000000000000000000000000000000000BF
:1001400000000000000000000000000000000000AF
:10015000000000000000000000000000000000009F
:10016000000000000000000000000000000000008F
:10017000000000000000000000000000000000007F
:10018000000000000000000000000000000000006F
:10019000000000000000000000000000000000005F
:1001A000000000000000000000000000000000004F
:1001B000000000000000000000000000000000003F
:1001C000000000000000000000000000000000002F
:1001D000000000000000000000000000000000001F
:1001E000000000000000000000000000000000000F
:1001F00000000000000000000000000000000000FF
:1002000000000000000000000000000000000000EE
:1002100000000000000000000000000000000000DE
:1002200000000000000000000000000000000000CE
:1002300000000000000000000000000000000000BE
:1002400000000000000000000000000000000000AE
:10025000000000000000000000000000000000009E
:10026000000000000000000000000000000000008E
:1002700019562000D518200029192000A50E2000AD
:10028000F11C20003509200019562000FF224824C7
:1002900008B5084B08481A60084AE3690849121A69
:1002A00098470848084A0021A369121A984700F0A5
:1002B0000DF8FEE7B4200D4040000020260100208C
:1002C00088692000280100200513002073B500F084
:1002D000B1FC00F085FD00F0C7FC00F07DFA01F0F4
:1002E000F5FC05F073FA00F073FD00F021F9202011
:1002F00005F096F902F066FB00F088FC002000F0A3
:10030000A3FB012000F0A0FB0020434900F068FCA3
:1003100002F09EFC62B6082005F082F93F4805F025
:10032000E1F93F4805F0DEF900F0F4F9002002F0B1
:100330003BFD01F027FB00213A4802F0CFFB02F021
:100340006FFA05F099F900F0EDFD00F009FE03F0F9
:1003500041FE0821684601F0FBFC9DF806309DF83F
:100360000750314C45EA0325BDF806302F4823805D
:1003700001F028FD2E4E21782E4801F023FD6178F2
:100380002D4801F01FFDF46A4AF6CD310220A04746
:1003900029460320A0471A210120A04708226946C8
:1003A000736B0B209847254801F00CFD244B18680F
:1003B00005F098F9234801F005FD234B186805F076
:1003C00091F9224801F0FEFC214B186805F08AF9EA
:1003D0000021204802F082FB1F4B01219B688120F5
:1003E000984702F0CBF800F067FA01221B4B186027
:1003F0001B4B1C481A7005F0C2F900F00DFC1020D0
:1004000005F00EF900F00EFC02F0F4FA10F0FF0F08
:10041000F8D101F0B1FBF5E7092C20004E66200071
:100420006A66200068000020FC120020846620001C
:1004300050642000A2662000C2682000A866200048
:1004400024652000AF6620005C652000B6662000B1
:100450007865200098000020D86320005812002002
:100460004C120020B4652000F8B52D4D2E78287070
:100470004640F20609D510F010042A4F25D000F0AE
:100480001BFA294BD8600123FB7016F0300F0AD0FD
:100490002B78244C13F0300725D000F00DFA224BB6
:1004A000186101232371B3060AD52B781D4E13F072
:1004B000200426D000F000FA1B4B58610123737111
:1004C0002878BDE8F84000F003B9FB78002BDCD0B9
:1004D00000F0F2F9154A1449D368C968FC705B1A38
:1004E0000344D360D1E72379002BDCD000F0E4F99A
:1004F0000E4A0D491369096927715B1A0344136198
:10050000D1E77379002BDBD000F0D6F9074A064912
:100510005369496974715B1A03445361D0E700BFA2
:10052000C81000204C120020581200201812002081
:1005300008B500F0C5F80022014B1A7008BD00BFD5
:10054000C8100020024B1B781843FFF78DBF00BF77
:10055000C8100020024B1B7823EA0000FFF784BF7D
:10056000C810002018B1012804D000207047034BA8
:1005700018687047024B1878704700BF20900D40F4
:10058000C910002010B5094A0020137801331370F8
:10059000074B197802F07AFABDE8104005490023AC
:1005A000054A0968054802F071B900BFC91000206A
:1005B000FE1200206001002085052000400100207F
:1005C00008B50346812B08462BD0B3F5807F39D080
:1005D000802B24D102F0EEF91C4B1D4A18701368D1
:1005E000032123F00803136052F8203C002023F07D
:1005F000080342F8203C52F81C3C23F0080342F860
:100600001C3C52F8183C43F0080342F8183C042202
:1006100000F0F4FB032200210E4800F075FB0120DE
:1006200008E00D4B0D491A6828B142F008021A6023
:1006300001230B6008BD22F008021A600123C1F8F3
:100640008030F7E7064B1960E9E700BFFE12002093
:1006500020940D406506200010940D4000E100E05C
:100660006001002008B50F4805F0BEF8C8B1402170
:100670000C4805F0ADF80C4B196849B100220B4B42
:100680001A700B4B1B6843B90A4A0B4802F0FEF87C
:10069000BDE80840094802F057BB074802F000F9DE
:1006A000F6E708BD3801002060010020C9100020D5
:1006B00020900D408505200040010020D8632000D7
:1006C000024A136843F038031360704700C40D40BA
:1006D000014B1860704700BFE0C00D40044B1B6821
:1006E000C3F3072013F4704F04BF1030C0B270473B
:1006F0001C300D40064B1868C00910F0060F03BFF0
:1007000000F00700C0F1020040034FF400407047C2
:1007100014300D402DE9F047482488B0FFF7DEFF84
:10072000164B06461F68A36898476368804698473B
:100730000446FFF7DFFF054600F0CEFA814600F0E1
:10074000D7FA824600F086FAAD0A07F00103A40A40
:10075000C7F34007CDE905A003934146CDF81090BB
:1007600002970195009406F00F03C6F307120448A0
:1007700001F028FB08B0BDE8F08700BF1C300D4039
:10078000C46620002DE9F84300F096F810490246AF
:10079000D1E90045AC46A04238BF05F1010C6346E3
:1007A000C1E900230B48D0E90089B8EB040169EBEB
:1007B00005048E1844EB0C07C0E9006701F0D0FF78
:1007C00018B1BDE8F84301F04FBFBDE8F88300BFA2
:1007D000300100202801002047F61122E0210C4BB7
:1007E0005A600C4A82F82310002207219A6019608F
:1007F00009490B6843F001030B60084B1A6004229F
:1008000043F80C2C012243F8082C1F22DA627047AF
:1008100010E000E000ED00E008200D400C00034077
:10082000034BD3E90023500940EAC360704700BF7F
:1008300030010020054B186053F81C2C1C3B42F083
:1008400001021A601A68D207FCD4704728000340DE
:1008500010B5064C236823F001032360FFF792FFD5
:10086000236843F00103236010BD00BF10E000E0E7
:1008700038B500F021F80123094C0A4DA370A86097
:10088000FFF780FFA3784BB100F016F8064AA9687D
:1008900093685B1A034493600023A37038BD00BFC4
:1008A0004C1200205812002018120020014B18682A
:1008B000704700BF64010020064B18685A6808336F
:1008C0001B681B0443EA0223034A0343106843EAFC
:1008D0000060704740500D404C500D40014608B537
:1008E000104A1368DB07FCD572B6FFF7E5FF0B1A59
:1008F000062BD8BFC11D0C4B0A0E1A60C1F307426C
:1009000043F8042CC1F3072243F8082CCAB243F879
:100910000C2C62B64FF40032044B1960044B1A6180
:1009200008BD00BF50500D404C500D4064010020E8
:1009300000E100E070B501F0E9F8FFF7BDFF012329
:1009400000254FF400320C4C0C4EA3700C4BB060E1
:100950001D600C4BC3F89021C3F8902002F0F4F80E
:10096000A37843B1FFF7A8FF074AB1689368A57061
:100970005B1A0344936070BD4C1200205812002093
:100980006401002000E100E018120020064B1B6803
:100990001B075FBF054B186880F00800C0F3C0005C
:1009A00048BF0020704700BF18C0004018D000406A
:1009B0002DE9F0410746FFF77FFF01231D4D1E4A39
:1009C000AB702C2303FB07234FF6BF721B4EDC6872
:1009D000B060236C626413F050021BD0DFF86480B7
:1009E000A369DB060DD5AB784BB1FFF765FF144A61
:1009F000B16893685B1A034493600023AB70BDE851
:100A0000F08158F827301BB12068C0B29847E7E75B
:100A10002368E5E713F4D06FE5D04FF44073236308
:100A2000FF236360E36AE262E362236B43F0010346
:100A30002363D8E74C120020E863200058120020FE
:100A400018120020680100202DE9F04F0128064609
:100A500085B000F2B4802C2545435A4F7C1994F997
:100A60002090B9F1000FC0F2AA8094F922B0BBF136
:100A7000000FC0F2A4804FF00008534801F014F9B1
:100A8000524978590A6894F921A002430A604A68D9
:100A90006068E56802434A608A68A06894F9233078
:100AA00002438A6022690AEBC901C5F8C88F116048
:100AB00094F823105FFA8BF0227D0193CDE90201B7
:100AC00000F0A6F9DDE90201082200F097F9012300
:100AD0003F494FEA0B32019852F801C003FA00FB7C
:100AE0004BEA0C0050504FEA093959F8012003FA3B
:100AF0000AFA4AEA020249F801205022AA63AA6BC4
:100B000094F9240042F4D062AA6302226A634FF48B
:100B100040722A63A26940456A62E269AA624FF0A4
:100B20007002EA620D4614DB94F92510294A41EA65
:100B3000C0041460020354598B4023435351C9B27B
:100B40004246C0B200F05AF9234A136843F4004306
:100B500013602C2303FB067393F92640002C1BDB48
:100B600093F827905FFA84F801224946404693F9AA
:100B700027A000F04DF901232403625903FA0AF378
:100B80001343635108224946404600F037F9124AA0
:100B9000136843F4804313602C2000FB0676F26850
:100BA000136B43F001031363012296F828305909AF
:100BB00003F01F0302FA03F3084A42F8213005B09C
:100BC000BDE8F08FE86320008D09200028200D404B
:100BD00020940D4004410D4030D0004000E100E081
:100BE00001289CBF014B43F820107047680100208A
:100BF000012808D82C22044B02FB0030C3689A69F4
:100C00009206FCD419607047E86320000022014B73
:100C10001A60704700500D400822014B1A6070475F
:100C200000500D40A022024B1A6050221A607047FB
:100C300000500D40014A024B9A60704700002000AE
:100C400000ED00E0024B1868C0F38150704700BF10
:100C500004200D4008B5FFF7F5FF024B53F82000C4
:100C600008BD00BF4064200038B5164D164C2B68F7
:100C7000012223F040032B602368062123F0400368
:100C80000320236000F0BAF82B68012223F08003D0
:100C90002B602368072123F080032360032000F0EA
:100CA000ADF84FF40032094B09491A60094A13465E
:100CB00010680842FCD11A685101FCD41A6852012C
:100CC000FCD538BD20C40D4000C40D4000200D40AF
:100CD0000000010104200D40034B04481B6803F091
:100CE00007031841704700BF04200D400048E80189
:100CF000034B04481B68C3F302231841704700BF2D
:100D000004200D400048E801024B02EBC10243F809
:100D10002200704770010020F8B507460D460024F8
:100D2000084E06EB411647FA04F3DB07E1B204D59F
:100D300056F824300BB1284698470134082CF2D1DC
:100D4000F8BD00BF700100202DE9F84F054600F006
:100D5000DDFEFFF7B1FD0123174FDFF86C80BB709C
:100D6000DFF868A0154BC8F808002E0356F803906A
:100D700056F80A404FEAC50B24FA0BF449EA04007E
:100D80002946C0B2FFF7C8FFE4B20D4A5FFA89F303
:100D900004FA0BF4B35046F80A40BB7853B1FFF79E
:100DA0008BFD084AD8F8081093685B1A03449360D7
:100DB0000023BB70BDE8F88F4C12002018940D4042
:100DC0001C940D40181200205812002018970D4056
:100DD00080220021014804F0CFBB00BF7001002039
:100DE000034B044A1A60044B803A1A60704700BFF4
:100DF000F001002080400D40F4010020034B01EB86
:100E0000C0011B6843F82120704700BFF00100209B
:100E1000034B01EBC0011B6843F82120704700BF62
:100E2000F40100200E2870B506460BD1134B1C6848
:100E300044F0020018601248056825F03F0343F0B3
:100E4000010303600F48036823F0FF031A431143B3
:100E500031430D4A016013681B06FCD50B4B0C4A4D
:100E60001B68106803F0FC0343EA00230E2E18B23F
:100E700001BF034B1D60014B1C6070BD3400014479
:100E8000F486084008700D4000700D400C700D4055
:100E900010700D40024B1868B0FA80F0400970479E
:100EA00000B7084070B5FFF707FD01224FF400417D
:100EB0000F4C104EA270104A104DB060C2F8901145
:100EC000C2F89010286850B9FFF7F6FC0C4AB168D8
:100ED00093685B1A034493600023A37070BD01F014
:100EE00015FE00232B60A378002BF7D0ECE700BFA2
:100EF0004C1200205812002000E100E0F801002010
:100F000018120020064A136843F002031360536866
:100F100043F002035360936843F002039360704709
:100F200048200D4007B50C4800F0BEFEFFF7EAFF71
:100F30000A4B1A6842F002021A6000220192019ADA
:100F40000F2A06DD1A6822F002021A6003B05DF86B
:100F500004FB019A0132F1E7950E200054200D4068
:100F6000064A136823F002031360536823F0020358
:100F70005360936823F002039360704748200D404C
:100F8000044B186800F02200A0F120035842584199
:100F9000704700BF4C860840024B186800F04000C4
:100FA000704700BF4C86084008B50B4B93F90020F2
:100FB000002A09DBED21094A11601160E32111606B
:100FC0001A7862F07F021A70FFF776FC044BD86142
:100FD0000120044BD87108BDCC100020388808408F
:100FE000581200204C12002038B505460C46134A12
:100FF00013689B07FCD4124B93F90030002B01DBE4
:10100000FFF7D2FFEE220F4B691E1A601A60A21C76
:1010100043F8102C2144022000F0CEFC0A49013C88
:1010200041EA0411022000F0D9FC022000F0E0FCAB
:10103000022000F0F5FC002038BD00BF4C860840BF
:10104000CC1000203888084002C001C0204B187026
:10105000002832D01F4A13681B03FCD51E4B1A68A8
:1010600042F002021A601A6842F001021A601A681D
:101070005007FCD51A6822F001021A601A6851075D
:10108000FCD41A6842F002021A601A6842F00102A7
:101090001A601A685207FCD5104A136823F004033B
:1010A0001360D2F8A83123F00403C2F8A8314FF43A
:1010B00000520B4BC3F890207047084A136843F066
:1010C000040313604FF40052054B1A61704700BFD0
:1010D000CB10002004200D40048808408C86084076
:1010E00000E100E00B280DD1082A0DD161B1074BBA
:1010F000074A083111F8010D43F8040B9342F9D166
:10110000002070470120704702207047A8850840E2
:10111000C885084070B52F4E0246306810F0400078
:1011200008D02D4D2868040605D5ED2200202B4B54
:101130001A601A6070BDC0B20428F6D9023888421D
:10114000F3DCC4B2032C1ED12B6813702B685370D0
:101150002B6893702968224B493949B219702B6862
:10116000204D18062B70E0D589B2042002F008FF4C
:101170002978032001F07F0102F002FF1A4B1B784F
:10118000CBB12046D6E711190320013900F01CFC31
:10119000164B611E032043EA011100F01FFC0320DF
:1011A00000F026FC032000F03BFC032000F044FC90
:1011B0000028FAD1CEE733685A06E2D533681B0619
:1011C00003D50B4801F0A2FCDBE7ED22034B1A60CC
:1011D0001A60D6E74C8608402888084038880840BE
:1011E000CD100020CA100020CB10002002C0010C3E
:1011F0005000002010B5134B1A689207FCD41B68EE
:101200005B065FBFED22104B1A601A600F4B1B6824
:1012100013B1EF220C4B1A600D4A0E4C137803F0F9
:101220007F031370E37953B1FFF746FB0A4A0B497A
:10123000D369C9695B1A0344D3610023E3710120B8
:1012400010BD00BF4C860840388808402C860840F6
:10125000CC1000204C120020181200205812002040
:1012600038B5A0F10B05EBB20F2B044613D80B4B8E
:101270001B6813F03F0302D0FFF7BCFF0123084AAD
:1012800005EB85050B3515600BB1FFF78DFE054BA2
:1012900060B21C7038BD4FF0FF30FBE74886084055
:1012A0003C8608402401002010B50C4607285FD872
:1012B000DFE800F0040F1A2124404659012903D128
:1012C000FFF772FE00203AE0002953D1FFF792FFAA
:1012D000F8E7A1F10B030F2B4CD8C8B2FFF7C0FF02
:1012E0000130EFD103202AE0234BCAB2C4F3072414
:1012F0001A605C60E6E7214BCAB2F7E731F00703FA
:1013000038D11F4B11F0010F1A68C1F3800014BFD0
:1013100042F0010222F001021A601A4B11F0020F92
:101320001A6814BF42F0200222F020021A60FFF770
:101330008DFEC7E731F001001CD1134B197010BDB1
:1013400001F118031F2B15D80D23104A52F8331042
:101350008C4205DC02EBC3031A790D4B1A60B1E72E
:10136000013BF3D2AEE70B4BCCB249341C60A9E78A
:101370000120E4E70220E2E7C8850840D085084064
:10138000008608402486084025010020886420004B
:10139000408608405886084038B50C46002900F0C1
:1013A0008680102800F28580DFE800F009101B22FB
:1013B000243B44575C727683837B7D547F003E4B95
:1013C0001B68003B18BF0123236024E005223B4B30
:1013D0001B6803F07F030B3B93FBF2F30B33DBB291
:1013E000F2E7374B1A68043B1B6843EA0223EBE73A
:1013F000344BF7E700230B60334B344A1B6803F090
:1014000001030B601268900644BF43F002030B60B7
:101410002F4B1B780BB900200BE00B6843F0040343
:10142000D2E700202B4B08601B78002BF3D0012360
:101430000B6038BD284B29491A680023D2B201EB52
:10144000C3000079904202D851F83330BCE7013331
:101450000E2BF4D16FF01703B6E7214B1B685BB27C
:10146000493BB1E71F4B1B6899060FD1FFF79CFD65
:1014700001231D490A68D207FCD51C4A1568493D5D
:101480006DB20BB1FFF7B6FE2560C4E70023F0E7AD
:10149000174B93F9003097E7164B1B7803F07F0347
:1014A00092E70B2390E71A238EE707238CE70220AD
:1014B000BFE70120BDE700BF2C8608403C860840FE
:1014C000CC850840D4850840008608402486084022
:1014D000CB100020250100204086084088642000B1
:1014E0005886084048860840648608406086084060
:1014F000CD100020CA10002010B50B4B1B689906B8
:101500000FD1FFF751FD012308490A68D207FCD526
:10151000074A1468C4F300140BB1FFF76BFE2046B2
:1015200010BD0023F0E700BF4886084064860840ED
:101530004C8608402DE9F843374B93F90030002BD7
:101540001BDBFFF7B9F90446FFF72EFDC4F1FF24BA
:1015500004F57F04F634FFF7AFF9C442FBD44FF033
:1015600001082E4B1B785BB92D4E346814F0200413
:101570000BD002242046BDE8F8834FF00008F0E7C6
:10158000FFF7BAFF0028EFD1F3E7264D264FEB799E
:1015900043B1FFF791F9254AF969D369EC715B1AF8
:1015A0000344D361FFF788F90123AB71E9234FF0BE
:1015B00004091F4CB861236033689A0704D409F109
:1015C000FF3919F0FF091DD133689B071ED4EE23A4
:1015D000236023600124AB794BB1FFF76DF9134A07
:1015E000B96993695B1A034493610023AB71FFF7F8
:1015F00063F90123F861EB71B8F1000FBAD0FFF77E
:10160000F9FDB7E70620FFF715F9D5E7346814F0C0
:101610000204FBD1DFE700BFCC1000202501002031
:101620004C8608404C12002058120020181200204E
:10163000388808400B282DE9F0470C460FD1082ABE
:1016400079D1002977D03D4B3D4A4C1E53F80419FF
:10165000934204F8011FF9D10020BDE8F0870C285F
:1016600067D1042A67D1002965D0364B36491A68FC
:10167000DFF8E48022F007021A600A68334F42F074
:1016800008020A60D8F800003A681D68DFF8CCE06C
:10169000DFF8CCC025F070051D60DEF80050DCF8E6
:1016A0000060C0B2120240EA066092B202434FEA02
:1016B0000549274809F47F09D0F800A042EA090645
:1016C0001A685FFA8AF522F0070242F001021A60F6
:1016D0000A6842F008020A60D8F800203F681968DA
:1016E00021F0700141F010011960DEF80010DCF803
:1016F00000C0D3B23A0243EA0C6392B213430A0425
:10170000016802F47F0243EA02085FFA81F9FFF7F9
:10171000D3F8B6EB080165EB0905ED030746002396
:10172000C8030C4A45EA514103F006FD3F1A276001
:1017300092E7012091E702208FE700BFC4850840AF
:10174000A48508401088084004880840188808408C
:101750001C8808400048E801148808402488084094
:1017600020880840F8B52D4F3D7815F0010552D17D
:101770000124F8222A4B7F261C605C609C60A3F544
:101780009323A3F514731A600922C3F8902115223C
:101790001A670B22703303F59B23C3F83C214022C8
:1017A00003F59E73A3F59B23A3F5F0731A601A68E3
:1017B00042F020021A60D52243F81C5CDE62DA6136
:1017C000184B1878FFF74CFD4FF48042164B02205F
:1017D0001E60164B1A6100F017F91549022000F03F
:1017E000F3F8032000F010F91149032000F0E4F8A9
:1017F000104B1878FFF72AFC29460F4801F06EF9C4
:101800003B7823433B70FFF757F80C4BD8612046D9
:101810000B4BDC71F8BD0020FCE700BFCC100020B2
:10182000A8200D40240100209486084000E100E03B
:1018300028880840CB1000205000002058120020BB
:101840004C12002038B50388044653B340F20342DB
:10185000934233D11B4B18781A4638BB822923D1C7
:10186000137873B902F03EFB02F0CAFA8021FFF749
:1018700051FC002805DD80B202F082FA124B1B6990
:101880009847124B1A7852060BD500221A70104B4B
:101890001D68FFF7AFFCFFF765FFAB0601D0FFF750
:1018A00083FB40F20343238001200AE01B78002BD6
:1018B000FAD0064B1B785806F6D5CFE700230380F5
:1018C000032038BDCB10002078652000CC1000200C
:1018D0004886084070B5FEF7EFFF01220C4C0D4E14
:1018E000A2700D4AB060127812B90C4801F00EF9DE
:1018F00000250B4B1D60A37843B1FEF7DDFF094ABD
:10190000B1689368A5705B1A0344936070BD00BF13
:101910004C12002058120020CB1000205000002054
:10192000348808401812002070B5FEF7C5FF012367
:1019300000260E4C0E4DA3700E4BA8601A680E4880
:10194000042A1FBF0D490A7842F040020A701E6047
:1019500001F0DCF8A37843B1FEF7AEFF084AA968AE
:101960009368A6705B1A0344936070BD4C1200200C
:10197000581200202C88084050000020CC10002075
:101980001812002008B5094B40220021184603F028
:10199000F3FD0121064A074B116050604FF480426D
:1019A0005A604FF400425A6008BD00BF000000209A
:1019B00004F00F4000E100E003289EBF014B00014E
:1019C000195070470000002003289EBF024B03EB14
:1019D00000104160704700BF0000002003289EBF38
:1019E000024B03EB00108160704700BF0000002035
:1019F000032806D80123034A03FA00F011680843BC
:101A00001060704728F00F40032806D80123034ACE
:101A100003FA00F0116808431060704720F00F408F
:101A2000032806D80123034A03FA00F0116808438B
:101A30001060704714F00F4003289FBF044B03EB66
:101A40000010806800F0070088BF0020704700BFCA
:101A5000000000204FF0FF32014B1A60704700BFBA
:101A600004F50F400122014B1A6070474CF00F4003
:101A7000094B19461A68D002FCD4084B1A6822F4A4
:101A800080321A600A68D203FCD41968044A0A40FA
:101A900042F400321A60704704200D4000200D40CF
:101AA000F8F8FDFF70B5154CFEF706FF2378144DCE
:101AB0003BB1144A296813685B1A0344136000237E
:101AC00023700123104E686031680220637000F0BB
:101AD00087FD30BF022000F067FD3060FEF7ECFEAE
:101AE00063783BB1074A696853685B1A03445360E3
:101AF0000023637001232860237070BD4C12002006
:101B00005812002018120020FC01002070B5144C5F
:101B10002268900722D0134B1A4619684901FCD459
:101B200013685B01FCD50025FEF792FEFFF7A0FFCE
:101B30000220256000F038FD0B4B1860FEF7BCFE5C
:101B40000A4B0B495A7832B10A4C4E6862685D7094
:101B5000921B02446260012208601A7070BD00BFCF
:101B600058200D4004200D40FC0100204C120020A4
:101B700058120020181200202DE9F0413F4B1C683C
:101B800014F03F0432D13E4D55F8043B23B1984741
:101B900060B30134052CF7D13A4D2B7833B3FEF7FF
:101BA00085FE0446FEF788FE201A09281ED9ECB1EE
:101BB000354A364B11680B4043F4807343F0010300
:101BC0001360334B19461868C002FCD4136843F401
:101BD000803313600B68DB03FCD5FEF76DFE241A1F
:101BE000092C07D8BDE8F041FFF742BFBDE8F0413E
:101BF000FFF758BF632C274F2FD92B78022B2CD1FE
:101C0000254E3B60254C0220316800F0E9FCFEF7D0
:101C100053FE2378224D3BB1224A296813685B1A90
:101C2000034413600023237001236860637000F095
:101C300023FFA0B14FF00008FFF71AFF0220C7F8FA
:101C4000008000F0B1FC3060FEF736FE637863B9C7
:101C5000012328602370BDE8F0810123D0E7FEF75F
:101C600025FE0028E6D030BFF5E70E4A69685368C4
:101C700084F801805B1A03445360E9E74886084012
:101C800000020020CE10002000200D40FEFEFDFFCF
:101C900004200D4058200D40FC0100204C12002073
:101CA0005812002018120020074A10B500231446CD
:101CB00052F8041B814202D011B944F8230010BD30
:101CC0000133052BF4D1FAE7000200200022054B76
:101CD00005491A600B6943F004030B61034B1A704A
:101CE000704700BF58200D4000ED00E0CE100020EE
:101CF00070B5FEF7E1FD01224FF480310F4C104E1C
:101D0000A270104A104DB060C2F89011C2F8901045
:101D1000286850B9FEF7D0FD0C4AB16893685B1A89
:101D2000034493600023A37070BD00F0EFFE002316
:101D30002B60A378002BF7D0ECE700BF4C120020FB
:101D40005812002000E100E01402002018120020C8
:101D500070B5184B1A78431E52B101F52011164A7E
:101D6000273191421AD011F8010903F8010FF8E761
:101D7000124A1278122AF0D1114A12784B2AECD169
:101D80004C0804F520120C4D2732AA4207D100233B
:101D900001F5201120442731A34205DB70BD12F864
:101DA000016903F8016FF0E7CA1A1278013300F8ED
:101DB000012BF1E72B002800270028002A0028002B
:101DC000290028000FB407B504AA52F8041B0448E0
:101DD000019200F021F803B05DF804EB04B0704705
:101DE0006000002070B505460C460A4E102C07D83E
:101DF00074B122462B6868680649BDE870401847F0
:101E0000102231462B686868984710B9103CEDE7FE
:101E1000204670BDE46720002DE9F04F07461546C7
:101E200000268FB00791079B1B78002B00F09C8346
:101E3000079B1A781C460133002A00F08583252A67
:101E4000F7D1079B9C4205D081E323784644002BC1
:101E500000F08A836278631C002A00F085830024E6
:101E6000184610F8012B19462B2A17D00BD8202A18
:101E700017D0232A18D0A2F1310CBCF1080F3FD89B
:101E80004FF0000A18E02D2A04D0302AF3D144F094
:101E9000100401E044F001040346E1E744F00604C5
:101EA000FAE744F00204F7E744F00804F4E70A21F3
:101EB00001FB0A2AAAF1300A194613F8012BA2F1F4
:101EC00030000928F3D90B782E2B37D14A784B1CD8
:101ED000A2F13000092829D84FF000081A781946D5
:101EE000A2F13000092803F1010319D90B786C2BFA
:101EF0006FD14B786C2B24D144F08004023123E065
:101F00002A2A0AD1D5F800A00146BAF1000F05F13E
:101F10000405B8BF44F00104D5E74FF0000AD2E74A
:101F20000A2101FB0828A8F13008D7E72A2A04D1A2
:101F3000D5F8008002310435D8E719464FF0FF3854
:101F4000D4E7013144F060040B78782B0CD8572B80
:101F50004BD8472B08D8402B00F29080002B00F084
:101F60000383252B00F0D3804B1C079304F4E0631C
:101F7000B3F5A06F00F0C98200F2CC80B3F5407FCA
:101F800000F07282B3F5806F00F03682B3F5807F87
:101F90007FF449AFB8F1000FACBF24F010044FF04C
:101FA000010814F4005204F0E003069200F0EA8005
:101FB000402B00F0E08000F2C280002B00F0DE80B9
:101FC000202B00F0C78000220023CDE9002300234E
:101FD000CFE0682BB8D14B78682B02D144F02004B5
:101FE0008CE7013144F04004AEE7583B202BBBD8CE
:101FF00001A252F823F000BFC1202000691F200079
:10200000691F2000691F2000691F2000691F200030
:10201000691F2000691F2000691F2000EB2020009D
:10202000691F2000F7202000A9202000D3202000D5
:10203000C7202000DF202000691F2000A9202000E9
:10204000691F2000691F2000691F2000691F2000F0
:1020500009212000B520200003212000691F200055
:10206000691F2000FD202000691F2000AF202000F4
:10207000691F2000691F2000BB202000413B062B68
:102080003FF672AF01A252F823F000BFF12020000A
:10209000691F2000691F2000691F2000D92020002F
:1020A000CD202000E520200044F424545CE744F4D3
:1020B000106459E744F4885456E744F4C85453E78D
:1020C00044F4B24450E744F400744DE744F48444CB
:1020D0004AE744F4024447E744F4424444E744F402
:1020E000813441E744F4A1343EE744F4C1343BE792
:1020F00044F4E13438E744F4A06435E744F4806400
:1021000032E744F440742FE744F4E0642CE744F4ED
:10211000C06429E7B3F5C06F07D0B3F5E06F7FF473
:1021200082AE2B6804351E607DE601223B68A9491A
:1021300078689847002840F01582013673E6602BD6
:102140001CD0802B7FF43FAF073525F00705F5E85D
:10215000022303E095F90020D3170435002A73F118
:102160000001BFF632AF524263EB4303CDE90023D7
:102170000123039317E0B5F90020EDE72A68043541
:10218000D317EBE7402B00F0B08000F29A80002BD1
:1021900000F0AD80202B00F0A180069B002203936D
:1021A0000023CDE9002304F4C053B3F5805F00F0B1
:1021B000D580B3F5C05F00F0D680B3F5006F00F0B6
:1021C000B78000230DF1360B0493049B41F2080203
:1021D000984588BFA8EB030841F6080304EA030109
:1021E00098BF4FF0000891421A4604D1B8F1010F90
:1021F00038BF4FF00108049B914203EB080040F008
:10220000CC80DDE90023134300F0C780724914F449
:10221000804F724B4FF0020918BF0B46069A72B1FD
:10222000039A002A40F0BD8004F00602022A00F062
:10223000BC80062A6A4A04BF4FF00109134609EB25
:102240000002924594BF4FF0000AAAEB020A14F074
:102250000102009204D1E10640F1AB80D0449246E5
:10226000B9F1000F07D04A4619463C687868A04784
:10227000002840F077814446049B1E44102C5949A5
:10228000D7E9003000F29F802CB12246554998478B
:10229000002840F0678159463B68049A78684E44AC
:1022A0009847002840F05E81009B4644002B00F0D8
:1022B000D48051463846FFF795FD002800F0CD80C8
:1022C00050E1602B13D0802B7FF467AF073525F0EA
:1022D0000705F5E80223CDE9002304E02A7800236E
:1022E000CDE900230435069B43E72A88F7E72B68EE
:1022F000002219460435CDE90012F4E7DDE90401B6
:102300000A22002302F018FFDDE9040130320BF845
:10231000012D00230A2202F00FFFCDE90401DDE9BF
:1023200004231343EAD10DF13603A3EB0B034BE770
:10233000DDE900230DF1360BCDE90423EFE702F0D0
:10234000070130310BF8011DD10841EA4371D8086B
:102350000A46034652EA0301F1D1E4E70DF1360BD8
:10236000DDE90023F6E7204B14F4804F0DF1360B26
:102370001E4908BF1946DDE9002352EA0300D2D006
:1023800002F00F00085C4FEA131C0BF8010D100956
:1023900040EA037002466346EFE74FF000094B4600
:1023A0003CE74FF00109124B49E74FF00109114B8F
:1023B00045E7514638460393FFF714FD039B002879
:1023C0003FF44EAFCEE010229847002840F0CA807C
:1023D000103C53E7E2672000D1672000D46720005B
:1023E000D9672000F4672000C0672000AF67200095
:1023F000D7672000B4662000D5F800900435B9F105
:10240000000F2CD04B469B469BF800200133002A3E
:10241000F9D1ABEB090BB8F1000F02DBC34528BFC4
:10242000C346DA4594BF4FF0000AAAEB0B0A14F03A
:10243000010406D151463846FFF7D4FC002840F08D
:1024400091805A4649463B6878689847002840F092
:1024500089805E44002C7FF42CAF5644E3E44FF0B7
:10246000060BDFF81491D6E7414B424A14F4804F33
:1024700008BF9C460DF1330318BF944600211A464D
:102480002868043550EA010E30D1D21A08BF302234
:102490004FF0780104BF03F8012C03F1FF3303F878
:1024A000011C4FF0300108BF012203F8021C232158
:1024B00002F10309CA4594BF4FF0000AAAEB090ACA
:1024C00014F00104A3F1030803F8031C05D15146DD
:1024D0003846FFF787FC002844D14A4641463B680E
:1024E0007868984700283DD14E44B3E700F00F0EBE
:1024F0001CF80EE04FEA111803F801ED4FEA101E28
:102500004EEA017E70464146BCE7BAF1010F38BF82
:102510004FF0010A2B6814F0010405F104058DF851
:1025200020300AF1FF3805D141463846FFF75AFC02
:10253000C0B9464401223B68786808A9984788B921
:10254000002C8AD04146B5E6079B9C420CD0079BE5
:102550000799A4EB030842463B687868984700282F
:102560003FF473AC4FF0FF3630460FB0BDE8F08F4C
:10257000C0672000AF672000DB6720000C2300222B
:1025800010B50648064C0749013B44F8042B40F8B7
:10259000042B01F8012BF7D110BD00BF1812002049
:1025A000581200204C12002038B50A4B04461B5C20
:1025B000094D63B1FEF780F9084A55F8243052F806
:1025C000241042F824005B1A034445F8243055F8DF
:1025D000240038BD4C120020181200205812002090
:1025E000014B43F82010704718120020F8B5002660
:1025F0000A4F0B4D0B4C17F8013B3BB1FEF75CF952
:102600002B68226820609B1A03442B6001360C2E35
:1026100005F1040504F10404EDD1F8BD4C120020CD
:10262000181200205812002010B50D4C236813B961
:102630000C4A136010BDFEF7F3F82268D2E90031AE
:102640000B441B1A92681AB91844064B1860F1E73C
:10265000D2E900142144091A8B4228BF0B46F1E746
:102660001C02002018020020014800F04FBA00BFF1
:10267000680000202DE9F8430388054653B1592B23
:1026800048D1872921D1002024490B6863B918B1AA
:102690000B6001E0214A1360592301202B80BDE823
:1026A000F88301203346F1E7D3E902649442F8D07D
:1026B00000B10B6019460B4689680029ECD0C86848
:1026C0009042F8D189689960F4E78229E4D1134FE8
:1026D0004FF00009B84600263C68002CDCD02046AC
:1026E00003F082F898B122468821E06800F0CEF924
:1026F00058B9A368E0602EB1B360C4F80890FFF742
:1027000093FFE8E7C8F80030F7E7FFF7ADFF26468C
:10271000A468E2E7002303800320C0E71C02002036
:1027200010B50446FFF7A0FFE3680B4A0BB113682E
:1027300033B90A4B1B68E36013681460A36004E0BC
:10274000A34206D1054A1268DA60BDE81040FFF7DF
:102750006BBF9B68ECE700BF1C020020A4030020B5
:10276000024B1868003818BF012070471C02002077
:1027700010B50B4A04461368834208D1836813607E
:10278000FFF752FF0023C4E9023310BD1346002BAC
:10279000F8D09A68A242F9D1A2689A60F0E700BF27
:1027A0001C020020F8B5038805461646CBB14A2B1B
:1027B0002BD188291FD1174803F027F80446C4B14C
:1027C000231D9E421FD12146124803F028F8124EC5
:1027D000626937683260A2690AB1E0699047376080
:1027E00007E00C4803F011F8044634B901220B4B02
:1027F0001A704A232B8001200AE0A168201D02F0F4
:10280000C8FF2468F1E72468D9E700230380032088
:10281000F8BD00BF20020020A4030020CF1000203C
:1028200010B50024054B06481C7002F0EBFF214652
:10283000BDE81040034800F051B900BFCF100020A0
:10284000200200207800002070B50446E3610B4BA5
:10285000049D1B78C4E905526BB1094D094B2E68E4
:10286000201D2B6002F095FF2E602146BDE87040D0
:10287000054802F0E7BFA160F7E700BFCF100020D6
:10288000A4030020780000202002002013B5034C90
:1028900024680094FFF7D8FF02B010BDA403002005
:1028A00010B5084B04461B7843B10430FFF760FFB6
:1028B0002146BDE81040044802F0B1BFC0E903332F
:1028C000F6E700BFCF1000202002002038B5836853
:1028D00004460D469BB10A4804600220A07304F12F
:1028E0000C0098470238012801D9832D05D12146D3
:1028F0002046BDE8384000F005B80123A37338BD79
:10290000A40300202DE9F8431C4F04463D68884687
:102910002B46A34204D00BB9BDE8F8831B68F8E747
:10292000002CF9D0164EA37BD6F8009063B100239B
:10293000A3738DB9A3683BB1444505D02A468321D2
:10294000346004F10C0098473B68A3420ED1236821
:102950003B60C6F80090DFE7A54204D022468721FD
:10296000284602F02DFF2D68E3E71346002BF0D038
:102970001A68A242F9D122681A60EAE7A803002087
:10298000A4030020002238B50125084B1A70084B1B
:102990001C6804B938BDE37B2BB10022822120469C
:1029A000E581FFF793FF2468F3E700BFD310002011
:1029B000A8030020024B1878421C1A70704700BF11
:1029C000D11000208A22064B1A700023054A13708A
:1029D000054A1370054A1360054A1360704700BF2B
:1029E000D1100020D0100020D2100020A803002019
:1029F000A40300202DE9F0411A4D2B780BB1FFF70D
:102A0000C1FF194C267896B10C221849184F0B7843
:102A1000013E5A430133B81803F01F03BF5C0B702B
:102A20002670D0E9018090B9124B1E6826B92B7828
:102A300020781844BDE8F0812B780BB1FFF7A2FF96
:102A400030464246394602F0BBFE3668EEE7812F3B
:102A500008BF01234246394608BF837302F0B0FE27
:102A6000E5E700BFD3100020D2100020D0100020D6
:102A700024020020A8030020024A034B10781B7890
:102A800018447047D2100020D3100020F0B50B4E30
:102A90003378202B0FD00C25094C0A4F24781C4486
:102AA00004F01F046C433D19C5E9012000200133E7
:102AB00039553370F0BD0120FCE700BFD210002073
:102AC000D01000202402002038B5034C256802F005
:102AD00077FE256038BD00BFA403002010B40A4C67
:102AE0000A4621680B4683420CD04BB950B10160B5
:102AF00001212060817310BC81218381FFF7E4BF35
:102B00001B68F0E710BC7047A803002038B1837B36
:102B1000013B012B9FBF0123014AC3731370704710
:102B2000D31000200246084610B5064953600C68D1
:102B3000029B106093600A600CB9FDF7CFFE002085
:102B400010BD00BFAC03002010B5084C206858B180
:102B500000232360D0E901319847236823B1BDE801
:102B600010401868FDF7BABE10BD00BFAC030020CE
:102B700070B505880446672D09D0792D2FD0002D1A
:102B800033D1FFF717FF1B4B18701B4B1D601B4EFB
:102B9000194D08E00A282B680ED07E2B03DC5A1C46
:102BA0002A60174AD054304602F0CCFE431CF1D1C3
:102BB0006723238001201BE05A1C2A600025104A4D
:102BC0002846D5540B4B1978FFF760FF0D4B2A466A
:102BD00085211868FFF75AFF18B97923E9E7852995
:102BE000E8D10022044B1A60D1E7002303800320C0
:102BF00070BD00BF03130020B0030020B403002009
:102C0000D4100020A40300200D28014610B516D0D2
:102C10000C4C237853B90C4802F081FE08B901230B
:102C200023700A48FFF772FF012010BD0A28F8D16F
:102C3000054802F074FE0028F3D00023F0E70020DE
:102C4000F3E700BF54110020B403002088000020E7
:102C500008B505490548802202F05AFEBDE8084043
:102C600000210348FFF73ABF55110020B4030020AC
:102C7000880000202DE9F04104880546772C20D0FB
:102C80007E2C3DD0002C4ED1FFF794FE284E294BD0
:102C9000294FDFF8B08018703460336857F823206C
:102CA0002AB9264A137077232B8001203EE008F8CA
:102CB00003409368002180209847336801333360D4
:102CC000EBE700231E4A1360194A1360184B1B4A96
:102CD0001B6812789A4204DC194B1B68002BF0D158
:102CE000E1E7184AD256002A19DA134A002052F8AE
:102CF0002320104B1978FFF7C9FE28B97E23D3E7AC
:102D00000C4B1B788B42D0D1094B0E491A688B5C57
:102D100003F07F038B540A4A136801331360044A9B
:102D200013680133D1E7002303800320BDE8F0815D
:102D3000C00300200413002040000020D511002013
:102D4000BC030020FF12002010B40A4B0A4A197875
:102D500000238B4203DA52F8044BA04208D1074902
:102D60000748CA5C62F07F02CA5410BCFFF7CEBEAF
:102D70000133EEE7D511002040000020FF120020B3
:102D800098000020064A136843F004031360054BC3
:102D9000186804331B6840EA032080B2704700BF04
:102DA00000700D4014700D4010B5174A136823F0E1
:102DB0000C0313600122154B1A601A68012AFCD11A
:102DC0000822134B13491A60E32203F505731A60B6
:102DD0001A460B68DB07FCD50F4C10210023206836
:102DE000013900F0010043EA00034FEA43039BB2BC
:102DF000F5D1002BF1D00949180A03F0FE03086051
:102E00000B60EF23136010BD00700D40A8200D4033
:102E100024860840648608409C86084014700D4053
:102E20002DE9F041054640680F46904602F038FD16
:102E3000044648B100F040FF0646606030B92146C4
:102E4000686802F041FD3046BDE8F081A560C4F835
:102E50002C8037B123463946054A04F10C00FFF7B0
:102E600015FD2B682146186802F0ECFC0120EBE709
:102E7000655920000378407840EA0320054B00FAAA
:102E800001F1985CC2F1080200EA21201041C0B2B1
:102E9000704700BF35682000F8B506460A480D4661
:102EA000174602F0B2FC044630B93A46294630468D
:102EB000BDE8F84003F045B8A3680BB12846984731
:102EC000204602F0DAFCEEE7C403002038B500F03B
:102ED0002BF90546094802F098FC044628B95DB173
:102EE0002846BDE8384003F027B8636803B1984727
:102EF000204602F0C2FCF0E738BD00BFC40300204A
:102F000010B5044600F01EF938B100F055FF034B30
:102F1000034821469B689847012010BDA465200006
:102F2000992E200070B50B4C0023616E0A4A04F103
:102F30003800FFF7ABFCFFF725FF656E0023B0FB01
:102F4000F5F1064A01FB150104F11800BDE87040D7
:102F5000FFF79CBCC8030020612F2000792F2000C0
:102F6000044B5A6E196E5200914294BF59665A66CC
:102F7000FFF7D8BFC803002010B500F0B3FF00F082
:102F80003FFF00230380044600F0AAF82288930044
:102F900008B1017B51B9023398B200F0F1FE2388E9
:102FA00073B1BDE81040074800F044B8818823445D
:102FB0005980C18801329980228002F05EFCE5E7E9
:102FC00010BD00BFC80300209DF80030012B04D1C4
:102FD000024B9A6D5A66FFF7A5BF7047C8030020E1
:102FE000F8B50F4616461D46064C0146064A2046D1
:102FF00000F00EF8C4E9167625660448BDE8F840EE
:1030000000F068B8C803002030652000C92F2000F8
:1030100070B505460C461646044A00F007FE2046E9
:103020006E610349BDE8704002F051BE3865200072
:103030004368200010B5044604491A2000F0AEFF92
:103040002046BDE8104002F075BF00BFFC12002012
:10305000014802F0D7BB00BF3404002073B500263E
:1030600081800673014682600446074802F0EAFB4D
:10307000064B1D6835B10123E2880093217B33465E
:10308000A088A84702B070BD340400203804002096
:1030900037B50A460121064CC38824680173C280F3
:1030A0001CB1002500958088A04703B030BD00BF4B
:1030B0003804002013B5064B1C6834B10122C388C4
:1030C0000092017B1A468088A04702B010BD00BF65
:1030D00038040020014B1860704700BF38040020FE
:1030E000014802F092BB00BF340400202DE9F041FA
:1030F00005460C480C46164602F087FB08B9BDE8A9
:10310000F0818388A34209D18768002FF7D0334626
:1031100022462946BC46BDE8F041604702F0ADFBBF
:10312000ECE700BF34040020054B10B51B6898473E
:10313000044618B18188012000F022FF204610BD0E
:103140001865200038B5064B05465B68984704466D
:10315000A988012000F014FF201E18BF012038BDEF
:1031600018652000014B9B68184700BF18652000B8
:10317000014802F047BB00BF3C04002081800146AB
:10318000014802F05FBB00BF3C04002010B50446BC
:10319000054802F03AFB00B910BD8388A342FBD07A
:1031A00002F06BFBF7E700BF3C0400202DE9F04183
:1031B0000646406802F029FB054678B9706802F0BF
:1031C00024FB0446184F9CB9334606F108004FF41F
:1031D0007041BDE8F041154AFFF758BB2B892846DE
:1031E00001332B816B8901336B8102F046FBE3E7EE
:1031F00063890A2B04D104F10C0002F0B6FE65814C
:103200002389B42B0BD12146384602F05DFB2146C1
:10321000706802F004FB706802F0F7FA044620467A
:1032200002F02BFB0446CEE7A8000020AD312000C1
:10323000044B1A7822B9012203481A7002F020BB0D
:10324000704700BFDE110020A8000020002310B549
:1032500004460360406002F0D5FA606802F0D2FADA
:10326000234604F108004FF48061BDE81040014A94
:10327000FFF70CBBAD312000F8B5054617460E46EA
:1032800009B90020F8BD0028FBD0406802F0BDFA63
:10329000044648B9194802F003FB044668B9686857
:1032A00002F0B3FA254621E03146201D02F0C0FEAF
:1032B00038B9204602F0E1FAEAE72146686802F0F0
:1032C000C1FA00253146201D258102F0AEFE04F131
:1032D0000C00E78002F049FE01206581D2E7C38837
:1032E000AB4284BF04461D4602F0C7FA0028F6D15F
:1032F000BD42C6D9002CC4D0E3E700BFA80000201F
:1033000038B5094A044603460D4650304FF4803123
:10331000FFF7BCFAFDF784FA291DC4F8F80020462F
:10332000BDE8384002F017BE9B5E20002DE9F34156
:1033300090F8F3600446002E57D1783002F027FB56
:10334000002852D002F046FB00284ED004F1EC08D1
:1033500000F0EAFC414604F1800002F0C4FC05469E
:10336000A0B30127414604F1EE0084F8F37002F0A7
:103370005CFE84F8F460112000F00AFE394684F8FF
:10338000F5000F2000F0FCFD94F8F510092002294B
:1033900028BF022100F0F4FD94F8F2100E2000F096
:1033A000EFFD134AADF8046013693B441361B4F8B0
:1033B000F030ADF8063000F023FD019B2946036094
:1033C000204602B0BDE8F041FFF79ABF94F8F7300D
:1033D0005BB11C34204640F2FF11FFF759FE204636
:1033E00002B0BDE8F041FFF765BE02B0BDE8F08174
:1033F000881200202DE9F047B0F8F0800446B8F1BB
:10340000000F5FD000F1800900F1EC052946484625
:1034100002F069FC8246484602F0A0FC06460028FD
:103420003CD0BAF1000F27D1011D284602F0FDFD66
:10343000254A13680133136004F11C00FFF73AFEBC
:103440002946484602F04FFCB0BB40F2FF1594F805
:10345000F730A4F8F05023B1294604F11C00FFF71F
:1034600017FE40F2FF1398452CD145452AD020463F
:10347000BDE8F047FFF75ABF02F067FC0746504629
:1034800002F063FC0C378742DADA2846311D02F07D
:10349000CCFD0D4A536801335360CDE728460B49F4
:1034A00002F0C6FD18B9084A9368013393602846B4
:1034B000064902F0BAFDC3E702F047FC05460028C2
:1034C000C3D0C4E7BDE8F08788120020BC652000A7
:1034D00070B5D0F8C860044600F1A8058EB1FFF7BA
:1034E00051FCD4F8C82023465208B0FBF2F101FB8E
:1034F0001201284601EB5601044ABDE87040FFF76F
:10350000C5B92846BDE87040FFF7CAB9A95E2000DA
:103510002DE9F04104460E200D46904600F038FD9E
:10352000064600F0DFFC042000F02AFC002700F033
:1035300067FC0760B4F8F0202946428080F80080DC
:103540001B2000F02BFD01210D2000F019FD394654
:103550000F2000F015FD3946192000F011FD31460D
:103560000E2000F00DFD0521092000F009FD29467F
:10357000204602F0F0FC034AD3680133D360BDE873
:10358000F08100BF8812002038B504460D4600F0D7
:10359000A9FC94F8F6101720013989B200F0F0FC6C
:1035A00011491C2000F0FAFC0121152000F0E8FC74
:1035B0000121162000F0E4FCA9B2112000F0E0FC8B
:1035C000042000F04FFC04F1EC0104F1800002F053
:1035D0008AFB38B12246690304F17800BDE838401F
:1035E000FFF71EBC38BD00BFFC12002073B50446B7
:1035F000FFF7C8FB3C21C0F3090023464143204AA2
:1036000004F1CC00FFF742F9B4F8F0308BB340F28C
:10361000FF1293422DD004F1780002F0B8F940BBBC
:1036200004F1800002F075FB02F0EFF8054600B3EC
:10363000EB88B4F8F020083393421CDA05F10C0053
:1036400002F0BBFCB8B904F1EC06314601A802F067
:10365000ECFC3046291D02F0E8FC0F212046FFF764
:1036600093FF10B12046FFF761FE304601A902F03A
:10367000DCFC02B070BD284602F0FFF8D6E700BFC0
:10368000ED352000F7B590F8F42090F8F5300446B9
:103690009A4207D302F0A0FB2C4A536B01335363C9
:1036A00003B0F0BD0023783080F87B3002F06FF972
:1036B0000028F5D002F08EF905460028F0D020460B
:1036C000FFF798FE04F1EE06284604F1EC0700F03F
:1036D0002BFB3946304602F0ABFC054628B939468B
:1036E000304602F0A2FC84F8F450314604F1800028
:1036F00002F0F9FA05460028D2D001210F2084F803
:10370000F31000F03DFC94F8F43094F8F510092023
:10371000C91A0229A8BF022189B200F031FC94F82D
:10372000F2100E2000F02CFC0023ADF80430B4F8A9
:10373000F030ADF8063000F063FB019B29460360D2
:10374000204603B0BDE8F040FFF7DABD8812002044
:1037500070B504460D20154600F01AFC80B994F8A7
:10376000F4305A1994F8F530D2B2934284F8F42028
:1037700007D8204602F030FB094A536B01335363EC
:1037800070BDFFF7FFFAC0F30A01234604F15000B1
:10379000044A01F50061BDE87040FFF777B800BF4B
:1037A0008812002085362000F8B5064600F0F2FAAF
:1037B000042818D9172000F0EBFB0B4C0B4D237895
:1037C000DF0005EBC30398711C2000F0F3FB043706
:1037D0000146E81902F029FC237845F833600133EB
:1037E00003F00F032370F8BDDF1100202005002037
:1037F0002DE9F74F044600F003FBD0F800A01A2093
:1038000000F0D8FB04F180050146284602F06BFA6F
:1038100030B14FEA1A4102F07FFA2046FFF7EAFD85
:103820000D2000F0B5FB8146002840F0C2809D4D80
:103830001A206B6904F1780801336B6100F0BAFB60
:10384000014601A802F0F1FB404602F0BFF8022851
:10385000D4BF00268026944F3B68A34219D117207D
:1038600097F806B000F094FB834512D11C2000F0BD
:10387000A1FB0146381D02F0DBFB50B13246204669
:1038800001A9FFF745FE2B6A01332B6203B0BDE8A7
:10389000F08F09F10109B9F1100F07F10807DBD129
:1038A000B4F8F07087BB2046FFF77EFF00F004FA03
:1038B000064628B33A46204601A9FFF729FE3046BE
:1038C00000F032FA304600F019FA042000F044FA11
:1038D00000F060FA0028D9D0E36C1E68002ED5D025
:1038E0001C2000F067FB0446172000F051FB054642
:1038F000152000F04DFBE9B2C2B22046B047C5E743
:103900002B6B01332B63E0E7162000F041FB01280D
:103910003FD940F2FF12B4F8F030934239D0B3EB04
:103920001A4F4FF0150028BF46F0100600F030FB8C
:10393000411C89B2152000F023FB162000F028FB63
:10394000411E89B2162000F01BFB404602F03EF8F3
:10395000022814DC112000F01BFB224641034046E4
:10396000FFF75EFA58B12046FFF71EFF20463246A9
:1039700001A9FFF7CDFD2046FFF7D8FC86E72046DA
:1039800046F0C00201A9FFF7C3FD6B6A01336B6209
:103990007CE7162000F0FCFA01283FF677AF2046BE
:1039A00046F0600201A9FFF7B3FDEB6A0133EB6259
:1039B0006CE70D2000F0ECFA01287FF467AF1A20C5
:1039C00000F0F8FA04F1EE0102F032FB354E002867
:1039D00063D00E2000F0DCFA94F8F23083425CD120
:1039E000B3690133B36100F00BFA94F8F430D0F806
:1039F000008013B9022384F8F4301A2000F0DAFAB8
:103A00000146284602F06FF9054658B194F8F410C3
:103A100002F091F928464FEA184102F07DF920465C
:103A2000FFF7E8FC18F0800F5FFA88F70CD045B17B
:103A3000284602F0B2F994F8F5102846490002F041
:103A40007AF92046FFF7D6FC79060FD4204602F01B
:103A5000ABF9FB0603D504F11C00FFF72BFB204656
:103A6000FFF736FDB3690133B3610FE7BA06EDD452
:103A700094F8F510284602F05EF92046FFF7BAFCEC
:103A8000FFF780F9C0F30B012346084A01F5805186
:103A900004F15000FEF7FAFEDBE7F3690133F3614E
:103AA000E0E700BF881200202005002085362000B6
:103AB0002DE9F0474E1CB6B20D4617463146224A54
:103AC0000446984600F0D8F82049304602F0FFF846
:103AD0000A2340F2FF1984F8F230002304F1700049
:103AE000C4E91C3084F8F630A4F8F090C4F84C8097
:103AF00084F8F77001F086FE04F18000FFF7A6FB62
:103B000004F17403A367124B04F11C06E367FFF78B
:103B10008FFB294630460F4AFFF7A0FA94F8F7309A
:103B20001BB149463046FFF7B3FAFFF72BF93C21AA
:103B3000C0F3090023464143074A04F1CC00BDE825
:103B4000F047FEF7A3BE00BF406520004768200095
:103B5000B40000200D5E2000ED35200070B5044655
:103B60000D4690F8F610172000F00AFA94F8F63097
:103B70002D49013313F0FF0308BF80231C2084F874
:103B8000F63000F00BFA0121152000F0F9F90F21B1
:103B9000162000F0F5F91F2DCCBF1F21A9B211206E
:103BA00000F0EEF9B4F8F010B1B9152000F0E8F922
:103BB000E36C1E6876B11C2000F0FCF90446172067
:103BC00000F0E6F90546152000F0E2F9E9B2C2B2CC
:103BD0002046B047012524E0042000F043F91120DD
:103BE00000F0D6F92246410304F17800FFF718F9F6
:103BF000054618B12046FFF799FB012504F1EC01B9
:103C000004F1800002F06FF858B994F8F73043B12E
:103C10001C34204640F2FF11FFF73AFA2046FFF726
:103C200049FA284670BD00BFFC12002070B5054659
:103C30000C461646FFF7A2FA20462E610249BDE85F
:103C4000704002F044B800BF5B68200070B50446C5
:103C50001B200D4600F0AEF9064902F0E9F938B133
:103C6000A3691B6823B129462046BDE87040184768
:103C700070BD00BFFC12002070B505460C4616460C
:103C8000044AFFF7C5F92046AE610349BDE870401C
:103C900002F01DB8486520005D68200008B50448A2
:103CA00001F0EEFDBDE80840024801F0E9BD00BFAB
:103CB000CC000020C000002038B50E4801F0F0FD17
:103CC000054650B10C4801F0EBFD0446286030B9C0
:103CD0002946084801F0F8FD2546284638BD00F081
:103CE00097F804F1B601A4F8800004F1820000F016
:103CF0001FF9F2E7C0000020CC00002010B50146FB
:103D00000446074801F0F6FD48B12168054801F076
:103D1000DBFD2146BDE81040014801F0D5BD10BDD6
:103D2000C0000020CC00002010B501460446094820
:103D300001F0E0FD68B12468B4F88010204600F07E
:103D4000E1F804F1B60104F18200BDE8104000F092
:103D500003B910BDC000002010B507490B8883428D
:103D600008DB064C80B222880244181A0880012021
:103D7000228010BD0020FCE7BC100020BE100020F7
:103D8000014B1880704700BFBC10002000487047EE
:103D9000E0060020014B1888704700BFBC100020CF
:103DA000034A044B10781B781844C0B2704700BF18
:103DB000F6110020BE1000202DE9F0410C4F3A888A
:103DC00072B100240B4B0C4EB3F800800B4B1D78E6
:103DD000354421B2414504F1010403DB00233B805B
:103DE000BDE8F081FFF7DCFF3044435C6B54F0E743
:103DF000BE100020BC100020E0060020F6110020BC
:103E000008B5FFF7CDFF014B184408BDE0060020C0
:103E1000F8B50C4B04461E780B4B1F88F519802D06
:103E20000DDC3246094901F031FBFFF7E9FF34446C
:103E300001463A46204601F029FB2846F8BD0025F8
:103E4000FBE700BFF6110020BC100020E0060020B8
:103E500008B5FFF7A5FF024B1B88184480B208BDC8
:103E6000BC10002010B50146FFF7F2FF4318802B6D
:103E700012DC431E094A1BB21A44481C002B05DA07
:103E8000074B187801440120197010BD12F8014940
:103E9000013B14541BB2F1E70020F6E7E0060020D6
:103EA000F611002038B50C4D0C4C342200210C4882
:103EB00001F062FB2946204602F0B7F82946A01C13
:103EC00002F0B3F82946201D02F0AFF82946A01DE4
:103ED000BDE8384002F0A9B8BC652000C01200203F
:103EE000C81200200023044A1380044A1380044AA5
:103EF0001370FFF7D7BF00BFBE100020BC1000201A
:103F0000F611002038B50C460546FFF7EBFF802C74
:103F100028BF802429462246034801F0B7FA034B04
:103F200020461C8038BD00BFE0060020BC100020E9
:103F300010B5074B03F1340253F8044B934240F899
:103F4000044BF9D1034A13680B6053684B6010BDF2
:103F5000C8120020C012002010B5074B00F1340237
:103F600050F8044B904243F8044BF9D10B68034AD4
:103F700013604B68536010BDC8120020C0120020AF
:103F8000024B23F810100120704700BFC812002018
:103F9000014B33F810007047C812002008B5044BDD
:103FA0001A3803EB400002F040F8012008BD00BFC2
:103FB000C0120020024B1A3803EB4000704700BFCC
:103FC000C01200200149024802F032B8BC6520004E
:103FD000C2120020084B10B51B689847074B5B685E
:103FE0009847074B5B689847064B5B689847BDE866
:103FF0001040054B5B68184750642000786520002E
:10400000A46520005C65200024652000F8B5FCF75D
:1040100007FC114D064600242F461A20FFF7CAFF61
:10402000294602F005F880B10A20FFF7B1FF0C2302
:1040300003FB0474237A83420CD16068301AB0F514
:10404000A04F8CBF00200120F8BD0134102C05F1D9
:104050000C05E2D10020F7E76007002070B5184D8D
:1040600000242E461A20FFF7A5FF294601F0E0FFA5
:10407000013418B9102C05F10C05F3D10C23621E84
:1040800003FB0464A4F10C057AB90A20FFF780FF52
:104090003072FCF7C5FB70601A20FFF78BFFBDE89C
:1040A00070400146064801F0C0BF2B4654F8180D79
:1040B000013A616803C3A0682C461860E2E700BFBC
:1040C00060070020014B1888704700BF20010020C6
:1040D0002DE9F043012906468846144687B003DCE3
:1040E000002007B0BDE8F08303A902F0E1F803ABBC
:1040F00003CB1B88206123839DF811306161002B65
:1041000047D0B71C02AA01A903A801F099FF9DF8A6
:104110001350002D4ED0029B2BB17A7817F8023B3A
:1041200003EB02239BB2022DA38336D13D462046EA
:10413000324901F07AFF7B78237015F8023B6370F7
:104140009DF81590B9F1000F4ED0019B002B38D08F
:104150002F466A7817F8023B03EB0223029A9BB2C0
:10416000E38302B9A383B9F1020F2ED13D4623495F
:1041700004F1080001F059FF7B78237215F8023B27
:104180006372A81BA8EB00038045C4E90E53A7DBAC
:10419000A7E7B378F71CA376B4E7032D0FD107F197
:1041A00008052B46621E13F8011D9F4202F8011FED
:1041B000F9D1C5E72046114901F037FFA5833D46F7
:1041C000BEE7A38B2F46E383CDE7B9F1030F13D1ED
:1041D00007F108052B4604F1080213F8011DBB4244
:1041E00002F8011BF9D1CCE7044904F1080001F001
:1041F0001CFFA4F81E90C4E73D46C2E7BC65200042
:1042000030B591B00546FFF75DFF4FF6FF7398425A
:1042100004D14FF0FF34204611B030BD40220021C0
:10422000684601F0A9F9404B1A782AB901221A70A0
:10423000FEF7A8FD3D4B18701420FFF7A9FE8DF87E
:1042400010001320FFF7A4FE8DF81200FFF7BAFE4E
:104250000446002848D000238DF813308DF815301F
:10426000002301248DF814308DF818404DB10A2038
:10427000FFF78EFE00283FD00A20FFF789FE8DF859
:104280001A0002248DF81940FFF71CFFADF81C003E
:10429000FFF798FE00283CD04FF6FF738DF81740CB
:1042A000ADF80030FFF70EFFADF81E001A20FFF743
:1042B00081FE014602A801F0B8FEFFF7A1FD0E90B5
:1042C000FFF768FD0F90684601F064FF0446002D7B
:1042D000A1D0FFF7C7FD00289BD0FFF757FD01468F
:1042E000684601F09FFF96E70B20FFF751FE8DF81F
:1042F00015408DF81300B3E70C4B1A7802B91C7007
:1043000019780A204A1C1A708DF81A10FFF738FE27
:10431000B7E71B20FFF74EFE0146684601F085FE19
:104320008DF81740BEE700BFF7110020F8110020FC
:10433000014BDB68184700BFA4652000014B5B6997
:10434000184700BF78652000014B9B69184700BFE4
:1043500078652000024BD86900B10047704700BF64
:104360007865200070B590F829400F4B042C214649
:1043700028BF04210124DB698C40054698470128A9
:1043800038BF0120013C444305D0FEF7FBFCB0FBE5
:10439000F4F303FB14042B46214605F10800034AFD
:1043A000BDE87040FEF772BA786520002145200014
:1043B0002DE9F04106461B200F46FFF7FBFD494B58
:1043C00005461A78484C22B901221A70FEF7DAFC29
:1043D000208023880BB90123238021880A204B1CCD
:1043E0002380FFF7CDFD414801F00FFA0446002875
:1043F00047D13F4801F054FA0446002868D02946C6
:10440000201D01F012FE002304F12C00C4E90B3042
:10441000238501F0F7F92146344801F013FA206BA7
:1044200001F024FA072853DC324801F039FA054636
:10443000002841D0304801F033FAA860C0B3FFF73C
:104440003BFC686080B30920D5F80880FFF7A0FD29
:1044500008BB082388F808300D20C8E90067FFF77B
:1044600097FD01282946206B1BD101F0F8F9206B3C
:1044700001F0CBF9854233D12046BDE8F041FFF78A
:1044800071BF2946201D01F0D3FD0028C7D1204669
:1044900001F0F3F9AAE70920FFF77AFD88F8080090
:1044A000DAE701F0CFF9E2E7A968134801F00CFA66
:1044B0002946104801F008FA206B01F0D7F938B905
:1044C00021460A4801F0ABF92146094801F0FCF900
:1044D00039463046BDE8F0410123042201F008BF0F
:1044E000BDE8F081F9110020C010002080080020F4
:1044F000E4000020F0000020D800002008B50548A6
:1045000001F0BEF9044801F0BBF9BDE808400348DA
:1045100001F0B6B9F0000020D8000020E40000202F
:1045200013B5044668B1006B01F06FF9024640B163
:104530002146054B0548DB68019302B0BDE81040F9
:10454000184702B010BD00BF78652000CD4520009F
:104550002DE9F0470D4614468B680646D3E90078EE
:10456000106B92F8289001F05AF96868FFF7C6FBC3
:10457000A968124801F0A8F92946114801F0A4F9E8
:10458000206B01F042F960B1002320462385FFF73C
:10459000E9FE4B46324641463846BDE8F04701F059
:1045A000A7BE04F10800FEF77BF92146054801F09B
:1045B00036F92146044801F087F9EAE7D8000020DF
:1045C000F000002080080020E40000202DE9F041E8
:1045D0000E461746044620B1006B01F016F9054659
:1045E00008B9BDE8F0810A21686801F018FD80462D
:1045F0000A20FFF7CDFC804546D0284601F03DF962
:10460000EDE794F8282000203A4484F82820294631
:10461000224684F82900BDE8F041FFF799BF002346
:1046200084F8293094F82830DA19D2B284F8282096
:104630000B7A93421CD8224629460220EBE794F8D5
:104640002930DA19D2B2052A84F8292007D90022A4
:1046500094F8283084F82920013384F8283094F81D
:1046600028200B7A9A4203D3224629460120D2E71A
:104670002046FFF777FE6868BDE8F04101F0BBBC5B
:10468000224629463046C6E7A9680029A9D0032E4C
:10469000F6D801A353F826F0034620003F46200039
:1046A0001F462000E345200013B50024094B1C7071
:1046B000094B1C80FCF700F9012200F58051074BE3
:1046C00000940748FEF72EFA0122064B1A7002B03A
:1046D00010BD00BF11120020C2100020BD4B2000F1
:1046E000700900200C120020074B82B01B784BB1E0
:1046F000064B1A7832B901221A70054B1B6A0193D6
:1047000002B0184702B070470C12002011120020AE
:1047100050642000094B82B01B786BB1084B1A78AB
:1047200052B1084A127802F0FF012AB91970064BFB
:104730005B6A019302B0184702B070470C12002068
:10474000111200200D1200205064200008B5FFF760
:10475000E1FF0022014B1A6008BD00BF8009002064
:10476000044B1B7823B9044B1B680BB9FFF7D2BF6E
:10477000704700BF13120020800900200022094B5F
:1047800082B01A70084BC2B21A70084A084B28B19E
:1047900001211B6A1170019302B018475B6A107007
:1047A000F9E700BF0C1200200D12002011120020AA
:1047B0005064200037B50B4B1A7802F0FF056AB938
:1047C00001241C70084B1D70FCF776F8224600F59A
:1047D0008051064B06480095FEF7A4F9012003B06E
:1047E00030BD00BF0C1200200D120020BD4B200078
:1047F0007009002037B50B4B05461B780C4673B18A
:10480000FCF75AF8231A022B4FF0000348BF841C10
:104810000093012221462846034BFEF783F903B09B
:1048200030BD00BF0C120020BD4B200013B5224C40
:1048300022680AB9FFF76EFFFFF7ACFA032823D00E
:10484000FFF706FB00B31D4B9B68984700281BDB56
:10485000FFF7A0FAC0B1FFF7FBFAA8B11B20FFF7E2
:10486000A9FB174901F0E4FB50B11320FFF790FBBF
:10487000206058B9FFF74EFF1248FEF711F80DE01F
:10488000FFF7A0FB0028F0D102B010BDFFF72CFF0E
:10489000002320210C4A0B48FDF7F8FFFFF7B6FB79
:1048A0000028F1D1FFF7DAFB084BDB68019302B077
:1048B000BDE81040184700BF80090020986520001F
:1048C000FC1200204C0900204D4720005C652000B0
:1048D0002DE9F04F784E8BB0337805903BB9774B8C
:1048E0001B7823B9052420460BB0BDE8F08FFFF7F5
:1048F000AFFA0028F6D072491A20FFF74FFBFFF7F6
:1049000061FB07460C20FFF743FBB8B1FFF7A0FAA5
:1049100080464FF001096B4D6C68FFF737FA41464E
:10492000A047694CAB6984F80090029398470194C2
:1049300070B10023019A13700124D4E701210B20E8
:10494000FFF71EFB614B5B6898470028DEDAC9E77A
:10495000EB690393984704460028EAD1FFF7DAFE93
:10496000337886F80090DBB20493059B83BB4FF04D
:1049700006096FF0030A6FF00F0BFBF79DFF06901F
:10498000FFF7B2FE0698AAEB00030693FBF794FF2D
:10499000069BC342F9D46B69984750B90290FFF760
:1049A000B9FEDDE901301870FFF7B4FE049B3370E7
:1049B000C2E7FFF7AFFEFBF77FFFABEB0003069309
:1049C000FBF77AFF069BC342F9D4B9F10109D4D1B0
:1049D0000FB9FFF789FE0A20FFF7DAFAC3B2069390
:1049E000FCF720F9FBF768FF8146DFF8E4B0ABEB9A
:1049F000000BDFF8E0A0AAEB090AFBF75DFF1AEB5A
:104A0000000F4AD5FCF70EF9002F3ED0AB684046A8
:104A10009847FBF751FF6FF00C031B1A0793FBF746
:104A20004BFF079BC342F9D4002FE6D1029B984766
:104A3000002836D0FBF740FF6FF01408A8EB000801
:104A4000FBF73AFF18EB000FFAD403212B6909A8F2
:104A5000984703282ED19DF82630069A934229D1F3
:104A600000254FF00108FFF755FE049B019A3370B3
:104A700000231370002D7FF45FAF002F7FF433AF5E
:104A8000984514BF1C4602242DE7059B002BBDD082
:104A9000FBF712FF1BEB000FB8D400254FF0000806
:104AA000E1E7039B98470028C4D16B699847002829
:104AB0009FD1BFE70125F1E70C1200200D12002065
:104AC000FC12002050642000131200209865200082
:104AD000DEFDFFFFB0EFFFFF2DE9F14F06460F4669
:104AE0001446002A61D0324BD3F80090B9F1000F80
:104AF0000BD05068FFF718F901231A4639463046A3
:104B000001B0BDE8F04F01F0F3BB1546DFF8A4A0FB
:104B1000DFF8A4B0284600F0B0FEA8460546D8F855
:104B20000400FFF701F90C20FFF732FAE0B91DB1DC
:104B300001211320FFF724FA51461A20FFF72EFA1D
:104B400001210B20FFF71CFADBF8043098470028FE
:104B500002DA01230522D1E701210C20FFF710FA28
:104B6000D8F8040001F04DFA002DD3D1204600F012
:104B700084FE254604466868FFF7D6F81320FFF741
:104B800007FA80464846FFF7A3FE032805460CD0E7
:104B9000024601233946304601F0AAFB2DB924B163
:104BA0004FF00109B8F1000FE0D101B0BDE8F08F7E
:104BB00080090020FC1200209865200040F2E312DA
:104BC0002DE9F3476F4C0546238893423AD0B3F55D
:104BD000F27F08D2002B00F08A8040F2B11293429B
:104BE0000BD0002393E040F202229342F9D100233C
:104BF000654A1370654A137007E0644A13780133FD
:104C0000DBB2012B137000F28680614B1A78002A08
:104C100074D1604A1268002A70D11B780BB9FFF773
:104C200063FD5D4B5B699847002865D10122564BB7
:104C30001A70FBF741FE594B594A18600023137054
:104C4000584A1370524B584F1B7803F0FF06002B45
:104C50007FD13B78002B7CD0FBF72EFE6FF4CC721B
:104C60004E4B1B68C01A1044002872DADFF8288106
:104C7000DFF82C91D8F81430984718B199F80060F3
:104C80000136F6B289F80060464ED8F818A033789D
:104C900001333370D047002855D0002389F8003005
:104CA0003378D8F81C800A2B04D9D04710B9C047F4
:104CB00000284CD0C04700284BD13C4B1B789BB1FF
:104CC0002E68FBF7F9FD331A13F1120F4FF00003B2
:104CD00048BF811C00934FF001022846344B58BF57
:104CE00006F11401FDF71EFF40F2E3130FE0FBF79E
:104CF000E3FD304B18607AE7FFF732FDFBF7DCFD90
:104D000000F110012846FFF775FD40F2B113238032
:104D100002B0BDE8F0871C4B1B78002B89D1254ED3
:104D2000336803F580533360FBF7C6FD3368C3F186
:104D3000A003C3427FF55BAF28463168FFF75AFDF9
:104D400040F20223E3E799F80030052BA8D9FFF7DA
:104D500007FD3B78002BE2D00F4EB369984760B156
:104D6000FBF7AAFD0D4B1B68C01A6FF4CC731844F7
:104D70000028D4DBFFF7F4FCD1E7F369984700285B
:104D8000EED1F7E7C21000200F1200200E12002013
:104D90001312002080090020506420007C090020AC
:104DA0001212002010120020111200200C120020FC
:104DB000BD4B20006C09002008B5024B1B689847CA
:104DC000023008BD5065200038B50C4B9B689847F1
:104DD000041E02DA4FF0FF3038BDFFF711F80378F8
:104DE0000546002BF6D10220FEF7B6FF0028F1D0D1
:104DF0006878FEF7C5FFA01CEEE700BF50652000F5
:104E000070B50220FFF72EF810B94FF0FF3070BDDB
:104E1000FEF7BCFF002606700446FEF7BBFF60707D
:104E2000FFF716F80446FFF7C7FF20442A2812DCD4
:104E3000C0F12B00C4B2FEF7E3FF0546FEF7AAFF60
:104E400022463146284400F097FBFEF7A3FF20449A
:104E500080B2FEF795FF044B5B689847041ED4DBD5
:104E6000FEF7AAFFA01CD2E750652000014B9B680B
:104E7000184700BF2465200070B504460D46142075
:104E80000121FFF77DF8034B29462046BDE870401D
:104E90009B6818475C65200070B503880446412B69
:104EA00020D0462B46D0CBB9304E00F03FF900F071
:104EB00091F831462E4801F0BBF8727805463178FA
:104EC000B0B12C48FCF77EFFAA212B4801222B4BC6
:104ED000FEF7EEFD0121284800F0FDFF002303202E
:104EE000238004E0264800F066FC90B9012070BDE4
:104EF0002448FCF767FFAA211F482B460122FEF732
:104F0000D7FD4FF4F0411E4800F043FC41232380BD
:104F1000ECE71B4800F046FCFDF734FF4FF47051FE
:104F2000B0FBF1F303FB1101174889B200F031FC2B
:104F30004623ECE7144800F03EFC0028D6D0FEF7EC
:104F4000D1FFFEF75DFF114D2B8803800220FEF795
:104F500017FF29880E48FCF735FF08210648FEF7A1
:104F6000FDFD2B8801332B80D0E700BFFC12002011
:104F7000220100207B682000A40900200C010020F1
:104F8000840900209D68200094090020141200204C
:104F9000C868200037B504461546FEF7FBFE022818
:104FA00008D0FEF7F7FE0146084803B0BDE83040E0
:104FB000FCF708BFFEF724FF62780388217800958C
:104FC0000348FCF7FFFE03B030BD00BFE3682000DC
:104FD0000269200008B5FDF709FB0020FDF7E4FA9F
:104FE0000B4B18600120FDF7DFFA0A4B1860062012
:104FF000FDF7DAFA084B18600720FDF7D5FA074BE2
:1050000000211860BDE808400548FDF767BD00BFF6
:10501000AC0A0020B00A0020B80A0020B40A002020
:10502000100100202DE9F347FDF7E0FA0020FDF71D
:10503000BBFA1A4E1A4D30600120FDF7B5FA286010
:105040000620FDF7B1FA174C20600720FDF7ACFAF7
:105050003268154E2B682768144D34681449A7EB45
:10506000040A2C682860041B1248DFF850E0D1F8CD
:1050700000900B600188DEF800804D1CCEF8002007
:1050800005803760A3EB0903CDE900A4A2EB080279
:105090000948FCF797FE02B0BDE8F087A00A00209F
:1050A000A40A0020A80A0020B80A0020B40A0020A0
:1050B000B00A0020C410002040692000AC0A002083
:1050C00010B5038804462BB16D2B0AD00023038052
:1050D000032010BD4FF47051074800F05AFB6D23B8
:1050E0002380054800F067FB0028F2D0024800F05A
:1050F00059FBFFF797FFF2E7BC0A002010B4084BFA
:10510000197809B910BC70475C880288944205D1AF
:10511000044B0548198010BCFCF754BE0433EFE77C
:10512000BE652000C61000206F6920000148FFF70F
:10513000E5BF00BFFC12002053B94AB9002908BFDF
:1051400000281CBF4FF0FF314FF0FF3000F06EB968
:10515000ADF1080C6DE904CE00F006F8DDF804E0CE
:10516000DDE9022304B070472DE9F047089E0D46A3
:1051700004468E46002B40F083808A42174647D96A
:10518000B2FA82F34BB1C3F1200105FA03FE20FA13
:1051900001F19F4041EA0E0E9C404FEA1748BEFBCA
:1051A000F8FC1FFA87F908FB1CE20CFB09F0210C44
:1051B00041EA024290420AD9BA180CF1FF3180F05C
:1051C0001881904240F21581ACF1020C3A44121A57
:1051D000B2FBF8F008FB102200FB09F1A4B244EA8C
:1051E0000244A14209D93C1900F1FF3280F0038149
:1051F000A14240F2008102383C44641A002140EA96
:105200000C401EB10022DC40C6E90042BDE8F08738
:1052100002B9FFDEB2FA82F3002B4FD18D1A0121C1
:105220004FEA124E1FFA82F8B5FBFEFC0EFB1C552E
:1052300008FB0CF0220C42EA0545A84207D97D196B
:105240000CF1FF3202D2A84200F2E98094462D1AF6
:10525000B5FBFEF00EFB105508FB00F8A4B244EAC3
:105260000544A04507D93C1900F1FF3202D2A04500
:1052700000F2D9801046A4EB080440EA0C40C0E7D5
:105280008B4208D9002E00F0B1800021C6E900054C
:105290000846BDE8F087B3FA83F100294BD1AB4251
:1052A00002D3824200F2B980841A65EB0303012025
:1052B0009E46002EAAD0C6E9004EA7E79F40C3F144
:1052C0002002D1404FEA174EB1FBFEF01FFA87F8DB
:1052D0000EFB101124FA02F29D4000FB08FC2A4349
:1052E000150C45EA0145AC4504FA03F409D97D19CA
:1052F00000F1FF3180F08F80AC4540F28C800238A5
:105300003D44A5EB0C05B5FBFEF10EFB115C01FB6A
:1053100008F995B245EA0C45A94507D97D1901F16F
:10532000FF3274D2A94572D902393D44A5EB090573
:1053300041EA004178E7C1F120078B4022FA07FCDF
:105340004CEA030C25FA07F44FEA1C4EB4FBFEF9B5
:105350001FFA8CF80EFB194420FA07F309FB08FA30
:105360008D401D432B0C43EA0444A24502FA01F28E
:1053700000FA01F309D91CEB040409F1FF3048D20B
:10538000A24546D9A9F102096444A4EB0A04B4FB7E
:10539000FEF00EFB104400FB08FAADB245EA0444EF
:1053A000A24508D91CEB040400F1FF352DD2A2451B
:1053B0002BD90238644440EA0940A0FB0289A4EBDF
:1053C0000A044C45C6464D4619D316D05EB1B3EB20
:1053D0000E0264EB050404FA07F722FA01F31F43F7
:1053E000CC40C6E900740021BDE8F0873146304664
:1053F0000CE78C46EBE61046FFE64345E6D2B8EBF9
:10540000020E69EB0C050138E0E72846D3E71146A8
:105410008CE78146B9E7084673E7084649E7ACF1EF
:10542000020C3D4413E702383C4424E7704700BFB8
:10543000032A70B412D940EA0105AD0704460B46B1
:105440001DD11946204653F8045B54F8046BAE4254
:1054500015D1043A032A20461946F2D8561E9AB1AD
:105460000139441E01E0C3180BD014F8015F11F894
:10547000012F331B9542F6D0A81A70BC7047561EF8
:10548000EEE7184670BC70471046F6E7844641EADE
:10549000000313F0030349D1403A23D30B680360A0
:1054A0004B6843608B688360CB68C3600B690361A2
:1054B0004B6943618B698361CB69C3610B6A03628A
:1054C0004B6A43628B6A8362CB6AC3620B6B036372
:1054D0004B6B43638B6B8363CB6BC3634030403157
:1054E000403ADBD230320BD30B6803604B68436029
:1054F0008B688360CB68C36010301031103AF3D2F0
:105500000C3205D351F8043B40F8043B043AF9D27D
:10551000043208D0D2071CBF11F8013B00F8013B50
:1055200001D30B8803806046704700BF082A13D35D
:105530008B07B1D010F00303AED0C3F10403D21A2D
:10554000DB071CBF11F8013B00F8013BA4D331F885
:10555000023B20F8023B9FE7043AD9D3013A11F805
:10556000013B00F8013BF9D20B7803704B78437094
:105570008B78837060467047F0B4860746D0541E1F
:10558000002A3CD00346CAB201E0013C37D303F8FD
:10559000012B9D07F9D1032C2AD9CDB245EA052567
:1055A0000F2C45EA054534D9A4F1100222F00F0C66
:1055B00003F120071609674403F1100242E904557C
:1055C00042E902551032BA42F8D1721C14F00C0FA5
:1055D00003EB021204F00F0613D0331F23F0030372
:1055E0000433134442F8045B9342FBD106F00304F6
:1055F0002CB1CAB21C4403F8012B9C42FBD1F0BC75
:10560000704734461346002CF3D1F8E7144603469E
:10561000C1E71A462646E0E7FEE708B5FAF736FE88
:10562000F7B500240646254627463046FAF78AFF96
:105630000197019BAB4215DB3046FAF78BFFC5F5AE
:10564000C8750197019B9D4211DC0134B4F5487F78
:1056500001D103B0F0BDB4F5C87FD4BF2546C4F571
:105660004875E2E700BF019B01330193E1E700BF0A
:10567000019B01330193E5E7704770470020FBF77A
:1056800097B90120FBF794B90020FBF75DBB01201F
:10569000FBF75ABB0220FBF757BB0320FBF754BBB9
:1056A00010B50C46FBF7A0FC2046BDE81040FBF708
:1056B00041BF10B50446C1B20020FBF799FA20465D
:1056C00010BD70B50E460025441E631C02D014F8B0
:1056D000010F08B9284670BDB542FBD0FFF7E9FFBE
:1056E0000135F2E738B505460024285D20B90A20C7
:1056F000FFF7DFFF204638BDFFF7DBFF0134F4E79B
:10570000002070470120704710B504463022002168
:105710000E20FBF787FB6CB1012C0CD142F2107309
:105720000011A0F28E5058432A2390FBF3F000F5AD
:10573000C340283010BD4FF00040FBE70020704709
:105740000120704710B50446302200210F20FBF7DE
:1057500069FB5CB1012C03BF40F6F253584347F696
:10576000F0734FF0004008BF90FBF3F010BD084607
:1057700008B511460AB1FFF7A4FF002008BD10B517
:10578000041F54F8040F00B910BD0021FDF7A6F95D
:10579000F7E710B5044600F01BF82046BDE81040BE
:1057A000FCF7BEBF10B5044600F019F82046BDE86E
:1057B0001040FCF7B5BFC068B0FA80F040097047F0
:1057C000837BDB0701D5FDF781B87047FFF755BF35
:1057D00010B541600446FBF723F8206010BDD0E906
:1057E000003213440360704710B50446FBF718F805
:1057F0002368C3F101030344606898422CBF002072
:10580000012010BD002303607047006870470068E6
:1058100020B1034600680028FBD118467047036892
:1058200010B53BB1002499421A6806D11CB9026038
:1058300000221A6010BD2260FAE71C46002AF9D047
:105840001346F0E738B50546FFF7E9FF00230B6084
:10585000FFF7DDFF08B9296038BD0160FCE738B506
:10586000FFF7DDFF03680B60016038BD03680020AF
:1058700003B970471B680130FAE700B10068704750
:1058800010B50446428800214068FFF775FE238862
:105890006288A0680021BDE810405A43FFF76CBE43
:1058A000002310B54188994201DC002009E04268DC
:1058B000D418D25C32B9012222700288806803FBBE
:1058C000020010BD0133EEE7002330B58268448842
:1058D0009C4201DCFF2008E08A4207D14168CA5C93
:1058E0000AB1013ACA544268D05C30BD0588013320
:1058F0002A44EDE782688A4208D84388008800FB82
:10590000032081422CBF00200120704700207047F7
:105910000023013A0160027143718371704710B531
:10592000427983790479D31A34EA030308D00368EF
:10593000995443790279013313404371012010BD1A
:105940000020FCE7837942790179D21A0A421FBF0D
:105950000268D25C01330B401ABF837110464FF0CE
:10596000FF30704738B50446856801462B681868D3
:10597000FFF755FF6068FEF7C1F904F10C00FCF772
:105980008FFF21466868BDE83840FFF79DBF036878
:105990001868FFF73ABF38B5036805461868FFF77F
:1059A00034FF044688B12B6801461868FFF737FFBB
:1059B0006068FEF7A3F904F10C00FCF771FF2146C3
:1059C0006868BDE83840FFF77FBF38BD03681868D6
:1059D000FFF74CBF00B140687047831C002013F8EC
:1059E000022C023302B9704713F8032C1044F6E777
:1059F000072B2DE9F84306460F4615461C4607DCE3
:105A00001A4629463846FDF735FA3070BDE8F88366
:105A10004FEAE3087AB97B5D73550135A845FADC96
:105A200014F00702F2D0002107EB0800FDF722FA7C
:105A300006F80800EAE74FF0000907EB0900082222
:105A40002946FDF717FA06F8090009F10109C845CA
:105A5000F3DC14F00702D9D02946E5E72DE9F74336
:105A6000FEF7CEF904460220FEF776F920B90025AC
:105A7000284603B0BDE8F0836378207800EB03206C
:105A800080B2FDF783FB05460028F0D0FEF7B8F999
:105A90000746287B10F0070318BF012303EBD00053
:105AA000FEF75AF90028E2D00026B146AC6802346D
:105AB00014F8023C002BDBD0192B14F8018C07EBF7
:105AC000E60106F007020BD901A84346FFF790FF55
:105AD00014F8020C01A9FEF761FA46440234E7E724
