:020000040020DA
:10000000B01700208D022000334D2000314D20001C
:10001000314D2000314D2000314D20000000000006
:10002000000000000000000000000000BF5320009E
:10003000314D200000000000DD5320007108200039
:10004000A14D2000A74D2000AD4D2000B34D200054
:1000500000000000954D20009B4D2000314D2000F8
:10006000314D2000000000000000000000000000F2
:100070000000000000000000314D200000000000E2
:100080000000000000000000314D2000314D200034
:10009000314D2000314D2000314D2000314D2000E8
:1000A000314D2000314D2000314D2000314D2000D8
:1000B000314D2000314D2000314D2000314D2000C8
:1000C000314D2000314D2000314D2000314D2000B8
:1000D000314D200000000000000000000000000082
:1000E0000000000000000000000000000000000010
:1000F0000000000000000000551A2000651A2000D2
:1001000000000000000000000000000000000000EF
:1001100000000000000000000000000000000000DF
:1001200000000000000000000000000000000000CF
:1001300000000000000000000000000000000000BF
:1001400000000000000000000000000000000000AF
:10015000000000000000000000000000000000009F
:10016000000000000000000000000000000000008F
:10017000000000000000000000000000000000007F
:10018000000000000000000000000000000000006F
:10019000000000000000000000000000000000005F
:1001A000000000000000000000000000000000004F
:1001B000000000000000000000000000000000003F
:1001C000000000000000000000000000000000002F
:1001D000000000000000000000000000000000001F
:1001E000000000000000000000000000000000000F
:1001F00000000000000000000000000000000000FF
:1002000000000000000000000000000000000000EE
:1002100000000000000000000000000000000000DE
:1002200000000000000000000000000000000000CE
:1002300000000000000000000000000000000000BE
:1002400000000000000000000000000000000000AE
:10025000000000000000000000000000000000009E
:10026000000000000000000000000000000000008E
:10027000314D2000D518200029192000A50E20009E
:10028000F11C200035092000314D2000FF224824B8
:1002900008B5084B08481A60084AE3690849121A69
:1002A00098470848084A0021A369121A984700F0A5
:1002B0000DF8FEE7B4200D40400000201E01002094
:1002C000345E200020010020A90F002073B500F04B
:1002D000B1FC00F085FD00F0C7FC00F07DFA01F0F4
:1002E000F5FC04F0FFFD00F073FD00F021F9202083
:1002F00004F022FD02F066FB00F088FC002000F014
:10030000A3FB012000F0A0FB0020434900F068FCA3
:1003100002F09EFC62B6082004F00EFD3F4804F097
:100320006DFD3F4804F06AFD00F0F4F9002002F092
:100330003BFD01F027FB00213A4802F0CFFB02F021
:100340006FFA04F025FD00F0EDFD00F009FE03F06A
:100350009BF80821684601F0FBFC9DF806309DF8EB
:100360000750314C45EA0325BDF806302F4823805D
:1003700001F028FD2E4E21782E4801F023FD6178F2
:100380002D4801F01FFDF46A4AF6CD310220A04746
:1003900029460320A0471A210120A04708226946C8
:1003A000736B0B209847254801F00CFD244B18680F
:1003B00004F024FD234801F005FD234B186804F0E8
:1003C0001DFD224801F0FEFC214B186804F016FDCB
:1003D0000021204802F082FB1F4B01219B688120F5
:1003E000984702F0CBF800F067FA01221B4B186027
:1003F0001B4B1C481A7004F04EFD00F00DFC102041
:1004000004F09AFC00F00EFC02F0F4FA10F0FF0F7A
:10041000F8D101F0B1FBF5E7092C2000465A200085
:10042000625A200068000020A00F00207C5A2000A3
:10043000505820009A5A2000945C2000A05A2000B6
:1004400024592000A75A200054592000AE5A2000F9
:100450007059200098000020D8572000340F002049
:10046000280F0020AC592000F8B52D4D2E782870AB
:100470004640F20609D510F010042A4F25D000F0AE
:100480001BFA294BD8600123FB7016F0300F0AD0FD
:100490002B78244C13F0300725D000F00DFA224BB6
:1004A000186101232371B3060AD52B781D4E13F072
:1004B000200426D000F000FA1B4B58610123737111
:1004C0002878BDE8F84000F003B9FB78002BDCD0B9
:1004D00000F0F2F9154A1449D368C968FC705B1A38
:1004E0000344D360D1E72379002BDCD000F0E4F99A
:1004F0000E4A0D491369096927715B1A0344136198
:10050000D1E77379002BDBD000F0D6F9074A064912
:100510005369496974715B1A03445361D0E700BFA2
:10052000B40D0020280F0020340F0020F40E00200E
:1005300008B500F0C5F80022014B1A7008BD00BFD5
:10054000B40D0020024B1B781843FFF78DBF00BF8E
:10055000B40D0020024B1B7823EA0000FFF784BF94
:10056000B40D002018B1012804D000207047034BBF
:1005700018687047024B1878704700BF20900D40F4
:10058000B50D002010B5094A00201378013313700F
:10059000074B197802F07AFABDE8104005490023AC
:1005A000054A0968054802F071B900BFB50D002081
:1005B000A20F0020580100208505200038010020EE
:1005C00008B50346812B08462BD0B3F5807F39D080
:1005D000802B24D102F0EEF91C4B1D4A18701368D1
:1005E000032123F00803136052F8203C002023F07D
:1005F000080342F8203C52F81C3C23F0080342F860
:100600001C3C52F8183C43F0080342F8183C042202
:1006100000F0F4FB032200210E4800F075FB0120DE
:1006200008E00D4B0D491A6828B142F008021A6023
:1006300001230B6008BD22F008021A600123C1F8F3
:100640008030F7E7064B1960E9E700BFA20F0020F2
:1006500020940D406506200010940D4000E100E05C
:100660005801002008B50F4804F04AFCC8B14021E9
:100670000C4804F039FC0C4B196849B100220B4BB3
:100680001A700B4B1B6843B90A4A0B4802F0FEF87C
:10069000BDE80840094802F057BB074802F000F9DE
:1006A000F6E708BD3001002058010020B50D0020FC
:1006B00020900D408505200038010020D8572000EB
:1006C000024A136843F038031360704700C40D40BA
:1006D000014B1860704700BFE0C00D40044B1B6821
:1006E000C3F3072013F4704F04BF1030C0B270473B
:1006F0001C300D40064B1868C00910F0060F03BFF0
:1007000000F00700C0F1020040034FF400407047C2
:1007100014300D402DE9F047482488B0FFF7DEFF84
:10072000164B06461F68A36898476368804698473B
:100730000446FFF7DFFF054600F0CEFA814600F0E1
:10074000D7FA824600F086FAAD0A07F00103A40A40
:10075000C7F34007CDE905A003934146CDF81090BB
:1007600002970195009406F00F03C6F307120448A0
:1007700001F028FB08B0BDE8F08700BF1C300D4039
:10078000BC5A20002DE9F84300F096F810490246C3
:10079000D1E90045AC46A04238BF05F1010C6346E3
:1007A000C1E900230B48D0E90089B8EB040169EBEB
:1007B00005048E1844EB0C07C0E9006701F0D0FF78
:1007C00018B1BDE8F84301F04FBFBDE8F88300BFA2
:1007D000280100202001002047F61122E0210C4BC7
:1007E0005A600C4A82F82310002207219A6019608F
:1007F00009490B6843F001030B60084B1A6004229F
:1008000043F80C2C012243F8082C1F22DA627047AF
:1008100010E000E000ED00E008200D400C00034077
:10082000034BD3E90023500940EAC360704700BF7F
:1008300028010020054B186053F81C2C1C3B42F08B
:1008400001021A601A68D207FCD4704728000340DE
:1008500010B5064C236823F001032360FFF792FFD5
:10086000236843F00103236010BD00BF10E000E0E7
:1008700038B500F021F80123094C0A4DA370A86097
:10088000FFF780FFA3784BB100F016F8064AA9687D
:1008900093685B1A034493600023A37038BD00BFC4
:1008A000280F0020340F0020F40E0020014B1868A0
:1008B000704700BF5C010020064B18685A68083377
:1008C0001B681B0443EA0223034A0343106843EAFC
:1008D0000060704740500D404C500D40014608B537
:1008E000104A1368DB07FCD572B6FFF7E5FF0B1A59
:1008F000062BD8BFC11D0C4B0A0E1A60C1F307426C
:1009000043F8042CC1F3072243F8082CCAB243F879
:100910000C2C62B64FF40032044B1960044B1A6180
:1009200008BD00BF50500D404C500D405C010020F0
:1009300000E100E070B501F0E9F8FFF7BDFF012329
:1009400000254FF400320C4C0C4EA3700C4BB060E1
:100950001D600C4BC3F89021C3F8902002F0F4F80E
:10096000A37843B1FFF7A8FF074AB1689368A57061
:100970005B1A0344936070BD280F0020340F0020E1
:100980005C01002000E100E0F40E0020064B1B6833
:100990001B075FBF054B186880F00800C0F3C0005C
:1009A00048BF0020704700BF18C0004018D000406A
:1009B0002DE9F0410746FFF77FFF01231D4D1E4A39
:1009C000AB702C2303FB07234FF6BF721B4EDC6872
:1009D000B060236C626413F050021BD0DFF86480B7
:1009E000A369DB060DD5AB784BB1FFF765FF144A61
:1009F000B16893685B1A034493600023AB70BDE851
:100A0000F08158F827301BB12068C0B29847E7E75B
:100A10002368E5E713F4D06FE5D04FF44073236308
:100A2000FF236360E36AE262E362236B43F0010346
:100A30002363D8E7280F0020E8572000340F002058
:100A4000F40E0020600100202DE9F04F0128064639
:100A500085B000F2B4802C2545435A4F7C1994F997
:100A60002090B9F1000FC0F2AA8094F922B0BBF136
:100A7000000FC0F2A4804FF00008534801F014F9B1
:100A8000524978590A6894F921A002430A604A68D9
:100A90006068E56802434A608A68A06894F9233078
:100AA00002438A6022690AEBC901C5F8C88F116048
:100AB00094F823105FFA8BF0227D0193CDE90201B7
:100AC00000F0A6F9DDE90201082200F097F9012300
:100AD0003F494FEA0B32019852F801C003FA00FB7C
:100AE0004BEA0C0050504FEA093959F8012003FA3B
:100AF0000AFA4AEA020249F801205022AA63AA6BC4
:100B000094F9240042F4D062AA6302226A634FF48B
:100B100040722A63A26940456A62E269AA624FF0A4
:100B20007002EA620D4614DB94F92510294A41EA65
:100B3000C0041460020354598B4023435351C9B27B
:100B40004246C0B200F05AF9234A136843F4004306
:100B500013602C2303FB067393F92640002C1BDB48
:100B600093F827905FFA84F801224946404693F9AA
:100B700027A000F04DF901232403625903FA0AF378
:100B80001343635108224946404600F037F9124AA0
:100B9000136843F4804313602C2000FB0676F26850
:100BA000136B43F001031363012296F828305909AF
:100BB00003F01F0302FA03F3084A42F8213005B09C
:100BC000BDE8F08FE85720008D09200028200D4057
:100BD00020940D4004410D4030D0004000E100E081
:100BE00001289CBF014B43F8201070476001002092
:100BF000012808D82C22044B02FB0030C3689A69F4
:100C00009206FCD419607047E85720000022014B7F
:100C10001A60704700500D400822014B1A6070475F
:100C200000500D40A022024B1A6050221A607047FB
:100C300000500D40014A024B9A60704700002000AE
:100C400000ED00E0024B1868C0F38150704700BF10
:100C500004200D4008B5FFF7F5FF024B53F82000C4
:100C600008BD00BF4058200038B5164D164C2B6803
:100C7000012223F040032B602368062123F0400368
:100C80000320236000F0BAF82B68012223F08003D0
:100C90002B602368072123F080032360032000F0EA
:100CA000ADF84FF40032094B09491A60094A13465E
:100CB00010680842FCD11A685101FCD41A6852012C
:100CC000FCD538BD20C40D4000C40D4000200D40AF
:100CD0000000010104200D40034B04481B6803F091
:100CE00007031841704700BF04200D400048E80189
:100CF000034B04481B68C3F302231841704700BF2D
:100D000004200D400048E801024B02EBC10243F809
:100D10002200704768010020F8B507460D46002400
:100D2000084E06EB411647FA04F3DB07E1B204D59F
:100D300056F824300BB1284698470134082CF2D1DC
:100D4000F8BD00BF680100202DE9F84F054600F00E
:100D5000DDFEFFF7B1FD0123174FDFF86C80BB709C
:100D6000DFF868A0154BC8F808002E0356F803906A
:100D700056F80A404FEAC50B24FA0BF449EA04007E
:100D80002946C0B2FFF7C8FFE4B20D4A5FFA89F303
:100D900004FA0BF4B35046F80A40BB7853B1FFF79E
:100DA0008BFD084AD8F8081093685B1A03449360D7
:100DB0000023BB70BDE8F88F280F002018940D4069
:100DC0001C940D40F40E0020340F002018970D40A5
:100DD00080220021014803F05BBF00BF68010020B2
:100DE000034B044A1A60044B803A1A60704700BFF4
:100DF000E801002080400D40EC010020034B01EB96
:100E0000C0011B6843F82120704700BFE8010020A3
:100E1000034B01EBC0011B6843F82120704700BF62
:100E2000EC0100200E2870B506460BD1134B1C6850
:100E300044F0020018601248056825F03F0343F0B3
:100E4000010303600F48036823F0FF031A431143B3
:100E500031430D4A016013681B06FCD50B4B0C4A4D
:100E60001B68106803F0FC0343EA00230E2E18B23F
:100E700001BF034B1D60014B1C6070BD3400014479
:100E8000F486084008700D4000700D400C700D4055
:100E900010700D40024B1868B0FA80F0400970479E
:100EA00000B7084070B5FFF707FD01224FF400417D
:100EB0000F4C104EA270104A104DB060C2F8901145
:100EC000C2F89010286850B9FFF7F6FC0C4AB168D8
:100ED00093685B1A034493600023A37070BD01F014
:100EE00015FE00232B60A378002BF7D0ECE700BFA2
:100EF000280F0020340F002000E100E0F001002066
:100F0000F40E0020064A136843F00203136053688E
:100F100043F002035360936843F002039360704709
:100F200048200D4007B50C4800F0BEFEFFF7EAFF71
:100F30000A4B1A6842F002021A6000220192019ADA
:100F40000F2A06DD1A6822F002021A6003B05DF86B
:100F500004FB019A0132F1E7950E200054200D4068
:100F6000064A136823F002031360536823F0020358
:100F70005360936823F002039360704748200D404C
:100F8000044B186800F02200A0F120035842584199
:100F9000704700BF4C860840024B186800F04000C4
:100FA000704700BF4C86084008B50B4B93F90020F2
:100FB000002A09DBED21094A11601160E32111606B
:100FC0001A7862F07F021A70FFF776FC044BD86142
:100FD0000120044BD87108BDB80D002038880840A6
:100FE000340F0020280F002038B505460C46134A60
:100FF00013689B07FCD4124B93F90030002B01DBE4
:10100000FFF7D2FFEE220F4B691E1A601A60A21C76
:1010100043F8102C2144022000F0CEFC0A49013C88
:1010200041EA0411022000F0D9FC022000F0E0FCAB
:10103000022000F0F5FC002038BD00BF4C860840BF
:10104000B80D00203888084002C001C0204B18703D
:10105000002832D01F4A13681B03FCD51E4B1A68A8
:1010600042F002021A601A6842F001021A601A681D
:101070005007FCD51A6822F001021A601A6851075D
:10108000FCD41A6842F002021A601A6842F00102A7
:101090001A601A685207FCD5104A136823F004033B
:1010A0001360D2F8A83123F00403C2F8A8314FF43A
:1010B00000520B4BC3F890207047084A136843F066
:1010C000040313604FF40052054B1A61704700BFD0
:1010D000B70D002004200D40048808408C8608408D
:1010E00000E100E00B280DD1082A0DD161B1074BBA
:1010F000074A083111F8010D43F8040B9342F9D166
:10110000002070470120704702207047A8850840E2
:10111000C885084070B52F4E0246306810F0400078
:1011200008D02D4D2868040605D5ED2200202B4B54
:101130001A601A6070BDC0B20428F6D9023888421D
:10114000F3DCC4B2032C1ED12B6813702B685370D0
:101150002B6893702968224B493949B219702B6862
:10116000204D18062B70E0D589B2042002F062F9F8
:101170002978032001F07F0102F05CF91A4B1B78FB
:10118000CBB12046D6E711190320013900F01CFC31
:10119000164B611E032043EA011100F01FFC0320DF
:1011A00000F026FC032000F03BFC032000F044FC90
:1011B0000028FAD1CEE733685A06E2D533681B0619
:1011C00003D50B4801F0A2FCDBE7ED22034B1A60CC
:1011D0001A60D6E74C8608402888084038880840BE
:1011E000B90D0020B60D0020B70D002002C0010C83
:1011F0005000002010B5134B1A689207FCD41B68EE
:101200005B065FBFED22104B1A601A600F4B1B6824
:1012100013B1EF220C4B1A600D4A0E4C137803F0F9
:101220007F031370E37953B1FFF746FB0A4A0B497A
:10123000D369C9695B1A0344D3610023E3710120B8
:1012400010BD00BF4C860840388808402C860840F6
:10125000B80D0020280F0020F40E0020340F0020CD
:1012600038B5A0F10B05EBB20F2B044613D80B4B8E
:101270001B6813F03F0302D0FFF7BCFF0123084AAD
:1012800005EB85050B3515600BB1FFF78DFE054BA2
:1012900060B21C7038BD4FF0FF30FBE74886084055
:1012A0003C8608401C01002010B50C4607285FD87A
:1012B000DFE800F0040F1A2124404659012903D128
:1012C000FFF772FE00203AE0002953D1FFF792FFAA
:1012D000F8E7A1F10B030F2B4CD8C8B2FFF7C0FF02
:1012E0000130EFD103202AE0234BCAB2C4F3072414
:1012F0001A605C60E6E7214BCAB2F7E731F00703FA
:1013000038D11F4B11F0010F1A68C1F3800014BFD0
:1013100042F0010222F001021A601A4B11F0020F92
:101320001A6814BF42F0200222F020021A60FFF770
:101330008DFEC7E731F001001CD1134B197010BDB1
:1013400001F118031F2B15D80D23104A52F8331042
:101350008C4205DC02EBC3031A790D4B1A60B1E72E
:10136000013BF3D2AEE70B4BCCB249341C60A9E78A
:101370000120E4E70220E2E7C8850840D085084064
:1013800000860840248608401D010020885820005F
:10139000408608405886084038B50C46002900F0C1
:1013A0008680102800F28580DFE800F009101B22FB
:1013B000243B44575C727683837B7D547F003E4B95
:1013C0001B68003B18BF0123236024E005223B4B30
:1013D0001B6803F07F030B3B93FBF2F30B33DBB291
:1013E000F2E7374B1A68043B1B6843EA0223EBE73A
:1013F000344BF7E700230B60334B344A1B6803F090
:1014000001030B601268900644BF43F002030B60B7
:101410002F4B1B780BB900200BE00B6843F0040343
:10142000D2E700202B4B08601B78002BF3D0012360
:101430000B6038BD284B29491A680023D2B201EB52
:10144000C3000079904202D851F83330BCE7013331
:101450000E2BF4D16FF01703B6E7214B1B685BB27C
:10146000493BB1E71F4B1B6899060FD1FFF79CFD65
:1014700001231D490A68D207FCD51C4A1568493D5D
:101480006DB20BB1FFF7B6FE2560C4E70023F0E7AD
:10149000174B93F9003097E7164B1B7803F07F0347
:1014A00092E70B2390E71A238EE707238CE70220AD
:1014B000BFE70120BDE700BF2C8608403C860840FE
:1014C000CC850840D4850840008608402486084022
:1014D000B70D00201D0100204086084088582000DC
:1014E0005886084048860840648608406086084060
:1014F000B90D0020B60D002010B50B4B1B689906E6
:101500000FD1FFF751FD012308490A68D207FCD526
:10151000074A1468C4F300140BB1FFF76BFE2046B2
:1015200010BD0023F0E700BF4886084064860840ED
:101530004C8608402DE9F843374B93F90030002BD7
:101540001BDBFFF7B9F90446FFF72EFDC4F1FF24BA
:1015500004F57F04F634FFF7AFF9C442FBD44FF033
:1015600001082E4B1B785BB92D4E346814F0200413
:101570000BD002242046BDE8F8834FF00008F0E7C6
:10158000FFF7BAFF0028EFD1F3E7264D264FEB799E
:1015900043B1FFF791F9254AF969D369EC715B1AF8
:1015A0000344D361FFF788F90123AB71E9234FF0BE
:1015B00004091F4CB861236033689A0704D409F109
:1015C000FF3919F0FF091DD133689B071ED4EE23A4
:1015D000236023600124AB794BB1FFF76DF9134A07
:1015E000B96993695B1A034493610023AB71FFF7F8
:1015F00063F90123F861EB71B8F1000FBAD0FFF77E
:10160000F9FDB7E70620FFF715F9D5E7346814F0C0
:101610000204FBD1DFE700BFB80D00201D01002050
:101620004C860840280F0020340F0020F40E0020C4
:10163000388808400B282DE9F0470C460FD1082ABE
:1016400079D1002977D03D4B3D4A4C1E53F80419FF
:10165000934204F8011FF9D10020BDE8F0870C285F
:1016600067D1042A67D1002965D0364B36491A68FC
:10167000DFF8E48022F007021A600A68334F42F074
:1016800008020A60D8F800003A681D68DFF8CCE06C
:10169000DFF8CCC025F070051D60DEF80050DCF8E6
:1016A0000060C0B2120240EA066092B202434FEA02
:1016B0000549274809F47F09D0F800A042EA090645
:1016C0001A685FFA8AF522F0070242F001021A60F6
:1016D0000A6842F008020A60D8F800203F681968DA
:1016E00021F0700141F010011960DEF80010DCF803
:1016F00000C0D3B23A0243EA0C6392B213430A0425
:10170000016802F47F0243EA02085FFA81F9FFF7F9
:10171000D3F8B6EB080165EB0905ED030746002396
:10172000C8030C4A45EA514103F092F83F1A27607A
:1017300092E7012091E702208FE700BFC4850840AF
:10174000A48508401088084004880840188808408C
:101750001C8808400048E801148808402488084094
:1017600020880840F8B52D4F3D7815F0010552D17D
:101770000124F8222A4B7F261C605C609C60A3F544
:101780009323A3F514731A600922C3F8902115223C
:101790001A670B22703303F59B23C3F83C214022C8
:1017A00003F59E73A3F59B23A3F5F0731A601A68E3
:1017B00042F020021A60D52243F81C5CDE62DA6136
:1017C000184B1878FFF74CFD4FF48042164B02205F
:1017D0001E60164B1A6100F017F91549022000F03F
:1017E000F3F8032000F010F91149032000F0E4F8A9
:1017F000104B1878FFF72AFC29460F4801F06EF9C4
:101800003B7823433B70FFF757F80C4BD8612046D9
:101810000B4BDC71F8BD0020FCE700BFB80D0020C9
:10182000A8200D401C0100209486084000E100E043
:1018300028880840B70D002050000020340F0020F9
:10184000280F002038B50388044653B340F2034202
:10185000934233D11B4B18781A4638BB822923D1C7
:10186000137873B901F098FD01F024FD8021FFF792
:1018700051FC002805DD80B201F0DCFC124B1B6935
:101880009847124B1A7852060BD500221A70104B4B
:101890001D68FFF7AFFCFFF765FFAB0601D0FFF750
:1018A00083FB40F20343238001200AE01B78002BD6
:1018B000FAD0064B1B785806F6D5CFE700230380F5
:1018C000032038BDB70D002070592000B80D00204E
:1018D0004886084070B5FEF7EFFF01220C4C0D4E14
:1018E000A2700D4AB060127812B90C4801F00EF9DE
:1018F00000250B4B1D60A37843B1FEF7DDFF094ABD
:10190000B1689368A5705B1A0344936070BD00BF13
:10191000280F0020340F0020B70D002050000020B9
:1019200034880840F40E002070B5FEF7C5FF01238F
:1019300000260E4C0E4DA3700E4BA8601A680E4880
:10194000042A1FBF0D490A7842F040020A701E6047
:1019500001F0DCF8A37843B1FEF7AEFF084AA968AE
:101960009368A6705B1A0344936070BD280F002033
:10197000340F00202C88084050000020B80D0020B3
:10198000F40E002008B5094B40220021184603F050
:101990007FF90121064A074B116050604FF48042E5
:1019A0005A604FF400425A6008BD00BF000000209A
:1019B00004F00F4000E100E003289EBF014B00014E
:1019C000195070470000002003289EBF024B03EB14
:1019D00000104160704700BF0000002003289EBF38
:1019E000024B03EB00108160704700BF0000002035
:1019F000032806D80123034A03FA00F011680843BC
:101A00001060704728F00F40032806D80123034ACE
:101A100003FA00F0116808431060704720F00F408F
:101A2000032806D80123034A03FA00F0116808438B
:101A30001060704714F00F4003289FBF044B03EB66
:101A40000010806800F0070088BF0020704700BFCA
:101A5000000000204FF0FF32014B1A60704700BFBA
:101A600004F50F400122014B1A6070474CF00F4003
:101A7000094B19461A68D002FCD4084B1A6822F4A4
:101A800080321A600A68D203FCD41968044A0A40FA
:101A900042F400321A60704704200D4000200D40CF
:101AA000F8F8FDFF70B5154CFEF706FF2378144DCE
:101AB0003BB1144A296813685B1A0344136000237E
:101AC00023700123104E686031680220637000F0BB
:101AD00087FD30BF022000F067FD3060FEF7ECFEAE
:101AE00063783BB1074A696853685B1A03445360E3
:101AF0000023637001232860237070BD280F00202D
:101B0000340F0020F40E0020F401002070B5144CB6
:101B10002268900722D0134B1A4619684901FCD459
:101B200013685B01FCD50025FEF792FEFFF7A0FFCE
:101B30000220256000F038FD0B4B1860FEF7BCFE5C
:101B40000A4B0B495A7832B10A4C4E6862685D7094
:101B5000921B02446260012208601A7070BD00BFCF
:101B600058200D4004200D40F4010020280F0020D3
:101B7000340F0020F40E00202DE9F0413F4B1C688B
:101B800014F03F0432D13E4D55F8043B23B1984741
:101B900060B30134052CF7D13A4D2B7833B3FEF7FF
:101BA00085FE0446FEF788FE201A09281ED9ECB1EE
:101BB000354A364B11680B4043F4807343F0010300
:101BC0001360334B19461868C002FCD4136843F401
:101BD000803313600B68DB03FCD5FEF76DFE241A1F
:101BE000092C07D8BDE8F041FFF742BFBDE8F0413E
:101BF000FFF758BF632C274F2FD92B78022B2CD1FE
:101C0000254E3B60254C0220316800F0E9FCFEF7D0
:101C100053FE2378224D3BB1224A296813685B1A90
:101C2000034413600023237001236860637000F095
:101C300023FFA0B14FF00008FFF71AFF0220C7F8FA
:101C4000008000F0B1FC3060FEF736FE637863B9C7
:101C5000012328602370BDE8F0810123D0E7FEF75F
:101C600025FE0028E6D030BFF5E70E4A69685368C4
:101C700084F801805B1A03445360E9E74886084012
:101C8000F8010020BA0D002000200D40FEFEFDFFEF
:101C900004200D4058200D40F4010020280F0020A2
:101CA000340F0020F40E0020074A10B5002314461C
:101CB00052F8041B814202D011B944F8230010BD30
:101CC0000133052BF4D1FAE7F80100200022054B7F
:101CD00005491A600B6943F004030B61034B1A704A
:101CE000704700BF58200D4000ED00E0BA0D002005
:101CF00070B5FEF7E1FD01224FF480310F4C104E1C
:101D0000A270104A104DB060C2F89011C2F8901045
:101D1000286850B9FEF7D0FD0C4AB16893685B1A89
:101D2000034493600023A37070BD00F0EFFE002316
:101D30002B60A378002BF7D0ECE700BF280F002022
:101D4000340F002000E100E00C020020F40E00201F
:101D500070B5184B1A78431E52B101F52011164A7E
:101D6000273191421AD011F8010903F8010FF8E761
:101D7000124A1278122AF0D1114A12784B2AECD169
:101D80004C0804F520120C4D2732AA4207D100233B
:101D900001F5201120442731A34205DB70BD12F864
:101DA000016903F8016FF0E7CA1A1278013300F8ED
:101DB000012BF1E72B002800270028002A0028002B
:101DC000290028000FB407B504AA52F8041B0448E0
:101DD000019200F021F803B05DF804EB04B0704705
:101DE0006000002070B505460C460A4E102C07D83E
:101DF00074B122462B6868680649BDE870401847F0
:101E0000102231462B686868984710B9103CEDE7FE
:101E1000204670BDDC5B20002DE9F04F07461546DB
:101E200000268FB00791079B1B78002B00F09C8346
:101E3000079B1A781C460133002A00F08583252A67
:101E4000F7D1079B9C4205D081E323784644002BC1
:101E500000F08A836278631C002A00F085830024E6
:101E6000184610F8012B19462B2A17D00BD8202A18
:101E700017D0232A18D0A2F1310CBCF1080F3FD89B
:101E80004FF0000A18E02D2A04D0302AF3D144F094
:101E9000100401E044F001040346E1E744F00604C5
:101EA000FAE744F00204F7E744F00804F4E70A21F3
:101EB00001FB0A2AAAF1300A194613F8012BA2F1F4
:101EC00030000928F3D90B782E2B37D14A784B1CD8
:101ED000A2F13000092829D84FF000081A781946D5
:101EE000A2F13000092803F1010319D90B786C2BFA
:101EF0006FD14B786C2B24D144F08004023123E065
:101F00002A2A0AD1D5F800A00146BAF1000F05F13E
:101F10000405B8BF44F00104D5E74FF0000AD2E74A
:101F20000A2101FB0828A8F13008D7E72A2A04D1A2
:101F3000D5F8008002310435D8E719464FF0FF3854
:101F4000D4E7013144F060040B78782B0CD8572B80
:101F50004BD8472B08D8402B00F29080002B00F084
:101F60000383252B00F0D3804B1C079304F4E0631C
:101F7000B3F5A06F00F0C98200F2CC80B3F5407FCA
:101F800000F07282B3F5806F00F03682B3F5807F87
:101F90007FF449AFB8F1000FACBF24F010044FF04C
:101FA000010814F4005204F0E003069200F0EA8005
:101FB000402B00F0E08000F2C280002B00F0DE80B9
:101FC000202B00F0C78000220023CDE9002300234E
:101FD000CFE0682BB8D14B78682B02D144F02004B5
:101FE0008CE7013144F04004AEE7583B202BBBD8CE
:101FF00001A252F823F000BFC1202000691F200079
:10200000691F2000691F2000691F2000691F200030
:10201000691F2000691F2000691F2000EB2020009D
:10202000691F2000F7202000A9202000D3202000D5
:10203000C7202000DF202000691F2000A9202000E9
:10204000691F2000691F2000691F2000691F2000F0
:1020500009212000B520200003212000691F200055
:10206000691F2000FD202000691F2000AF202000F4
:10207000691F2000691F2000BB202000413B062B68
:102080003FF672AF01A252F823F000BFF12020000A
:10209000691F2000691F2000691F2000D92020002F
:1020A000CD202000E520200044F424545CE744F4D3
:1020B000106459E744F4885456E744F4C85453E78D
:1020C00044F4B24450E744F400744DE744F48444CB
:1020D0004AE744F4024447E744F4424444E744F402
:1020E000813441E744F4A1343EE744F4C1343BE792
:1020F00044F4E13438E744F4A06435E744F4806400
:1021000032E744F440742FE744F4E0642CE744F4ED
:10211000C06429E7B3F5C06F07D0B3F5E06F7FF473
:1021200082AE2B6804351E607DE601223B68A9491A
:1021300078689847002840F01582013673E6602BD6
:102140001CD0802B7FF43FAF073525F00705F5E85D
:10215000022303E095F90020D3170435002A73F118
:102160000001BFF632AF524263EB4303CDE90023D7
:102170000123039317E0B5F90020EDE72A68043541
:10218000D317EBE7402B00F0B08000F29A80002BD1
:1021900000F0AD80202B00F0A180069B002203936D
:1021A0000023CDE9002304F4C053B3F5805F00F0B1
:1021B000D580B3F5C05F00F0D680B3F5006F00F0B6
:1021C000B78000230DF1360B0493049B41F2080203
:1021D000984588BFA8EB030841F6080304EA030109
:1021E00098BF4FF0000891421A4604D1B8F1010F90
:1021F00038BF4FF00108049B914203EB080040F008
:10220000CC80DDE90023134300F0C780724914F449
:10221000804F724B4FF0020918BF0B46069A72B1FD
:10222000039A002A40F0BD8004F00602022A00F062
:10223000BC80062A6A4A04BF4FF00109134609EB25
:102240000002924594BF4FF0000AAAEB020A14F074
:102250000102009204D1E10640F1AB80D0449246E5
:10226000B9F1000F07D04A4619463C687868A04784
:10227000002840F077814446049B1E44102C5949A5
:10228000D7E9003000F29F802CB12246554998478B
:10229000002840F0678159463B68049A78684E44AC
:1022A0009847002840F05E81009B4644002B00F0D8
:1022B000D48051463846FFF795FD002800F0CD80C8
:1022C00050E1602B13D0802B7FF467AF073525F0EA
:1022D0000705F5E80223CDE9002304E02A7800236E
:1022E000CDE900230435069B43E72A88F7E72B68EE
:1022F000002219460435CDE90012F4E7DDE90401B6
:102300000A22002302F0A4FADDE9040130320BF8BE
:10231000012D00230A2202F09BFACDE90401DDE938
:1023200004231343EAD10DF13603A3EB0B034BE770
:10233000DDE900230DF1360BCDE90423EFE702F0D0
:10234000070130310BF8011DD10841EA4371D8086B
:102350000A46034652EA0301F1D1E4E70DF1360BD8
:10236000DDE90023F6E7204B14F4804F0DF1360B26
:102370001E4908BF1946DDE9002352EA0300D2D006
:1023800002F00F00085C4FEA131C0BF8010D100956
:1023900040EA037002466346EFE74FF000094B4600
:1023A0003CE74FF00109124B49E74FF00109114B8F
:1023B00045E7514638460393FFF714FD039B002879
:1023C0003FF44EAFCEE010229847002840F0CA807C
:1023D000103C53E7DA5B2000C95B2000CC5B200097
:1023E000D15B2000EC5B2000B85B2000A75B2000E5
:1023F000CF5B2000AC5A2000D5F800900435B9F12D
:10240000000F2CD04B469B469BF800200133002A3E
:10241000F9D1ABEB090BB8F1000F02DBC34528BFC4
:10242000C346DA4594BF4FF0000AAAEB0B0A14F03A
:10243000010406D151463846FFF7D4FC002840F08D
:1024400091805A4649463B6878689847002840F092
:1024500089805E44002C7FF42CAF5644E3E44FF0B7
:10246000060BDFF81491D6E7414B424A14F4804F33
:1024700008BF9C460DF1330318BF944600211A464D
:102480002868043550EA010E30D1D21A08BF302234
:102490004FF0780104BF03F8012C03F1FF3303F878
:1024A000011C4FF0300108BF012203F8021C232158
:1024B00002F10309CA4594BF4FF0000AAAEB090ACA
:1024C00014F00104A3F1030803F8031C05D15146DD
:1024D0003846FFF787FC002844D14A4641463B680E
:1024E0007868984700283DD14E44B3E700F00F0EBE
:1024F0001CF80EE04FEA111803F801ED4FEA101E28
:102500004EEA017E70464146BCE7BAF1010F38BF82
:102510004FF0010A2B6814F0010405F104058DF851
:1025200020300AF1FF3805D141463846FFF75AFC02
:10253000C0B9464401223B68786808A9984788B921
:10254000002C8AD04146B5E6079B9C420CD0079BE5
:102550000799A4EB030842463B687868984700282F
:102560003FF473AC4FF0FF3630460FB0BDE8F08F4C
:10257000B85B2000A75B2000D35B20000C23002267
:1025800010B50648064C0749013B44F8042B40F8B7
:10259000042B01F8012BF7D110BD00BFF40E002071
:1025A000340F0020280F002038B50A4B04461B5C6E
:1025B000094D63B1FEF780F9084A55F8243052F806
:1025C000241042F824005B1A034445F8243055F8DF
:1025D000240038BD280F0020F40E0020340F002006
:1025E000014B43F820107047F40E0020F8B5002688
:1025F0000A4F0B4D0B4C17F8013B3BB1FEF75CF952
:102600002B68226820609B1A03442B6001360C2E35
:1026100005F1040504F10404EDD1F8BD280F0020F4
:10262000F40E0020340F002010B50D4C236813B9B0
:102630000C4A136010BDFEF7F3F82268D2E90031AE
:102640000B441B1A92681AB91844064B1860F1E73C
:10265000D2E900142144091A8B4228BF0B46F1E746
:102660001402002010020020014800F04FBA00BF01
:10267000680000202DE9F8430388054653B1592B23
:1026800048D1872921D1002024490B6863B918B1AA
:102690000B6001E0214A1360592301202B80BDE823
:1026A000F88301203346F1E7D3E902649442F8D07D
:1026B00000B10B6019460B4689680029ECD0C86848
:1026C0009042F8D189689960F4E78229E4D1134FE8
:1026D0004FF00009B84600263C68002CDCD02046AC
:1026E00002F00EFC98B122468821E06800F0CEF995
:1026F00058B9A368E0602EB1B360C4F80890FFF742
:1027000093FFE8E7C8F80030F7E7FFF7ADFF26468C
:10271000A468E2E7002303800320C0E7140200203E
:1027200010B50446FFF7A0FFE3680B4A0BB113682E
:1027300033B90A4B1B68E36013681460A36004E0BC
:10274000A34206D1054A1268DA60BDE81040FFF7DF
:102750006BBF9B68ECE700BF140200209C030020C5
:10276000024B1868003818BF01207047140200207F
:1027700010B50B4A04461368834208D1836813607E
:10278000FFF752FF0023C4E9023310BD1346002BAC
:10279000F8D09A68A242F9D1A2689A60F0E700BF27
:1027A00014020020F8B5038805461646CBB14A2B23
:1027B0002BD188291FD1174802F0B3FB0446C4B1BE
:1027C000231D9E421FD12146124802F0B4FB124E37
:1027D000626937683260A2690AB1E0699047376080
:1027E00007E00C4802F09DFB044634B901220B4B74
:1027F0001A704A232B8001200AE0A168201D02F0F4
:1028000054FB2468F1E72468D9E700230380032000
:10281000F8BD00BF180200209C030020BB0D002063
:1028200010B50024054B06481C7002F077FB2146CA
:10283000BDE81040034800F051B900BFBB0D0020B7
:10284000180200207800002070B50446E3610B4BAD
:10285000049D1B78C4E905526BB1094D094B2E68E4
:10286000201D2B6002F021FB2E602146BDE8704048
:10287000054802F073BBA160F7E700BFBB0D002065
:102880009C030020780000201802002013B5034CA0
:1028900024680094FFF7D8FF02B010BD9C0300200D
:1028A00010B5084B04461B7843B10430FFF760FFB6
:1028B0002146BDE81040044802F03DBBC0E90333A7
:1028C000F6E700BFBB0D00201802002038B5836872
:1028D00004460D469BB10A4804600220A07304F12F
:1028E0000C0098470238012801D9832D05D12146D3
:1028F0002046BDE8384000F005B80123A37338BD79
:102900009C0300202DE9F8431C4F04463D6888468F
:102910002B46A34204D00BB9BDE8F8831B68F8E747
:10292000002CF9D0164EA37BD6F8009063B100239B
:10293000A3738DB9A3683BB1444505D02A468321D2
:10294000346004F10C0098473B68A3420ED1236821
:102950003B60C6F80090DFE7A54204D022468721FD
:10296000284602F0B9FA2D68E3E71346002BF0D0B1
:102970001A68A242F9D122681A60EAE7A00300208F
:102980009C030020002238B50125084B1A70084B23
:102990001C6804B938BDE37B2BB10022822120469C
:1029A000E581FFF793FF2468F3E700BFBF0D002028
:1029B000A0030020024B1878421C1A70704700BF19
:1029C000BD0D00208A22064B1A700023054A1370A1
:1029D000054A1370054A1360054A1360704700BF2B
:1029E000BD0D0020BC0D0020BE0D0020A003002066
:1029F0009C0300202DE9F0411A4D2B780BB1FFF715
:102A0000C1FF194C267896B10C221849184F0B7843
:102A1000013E5A430133B81803F01F03BF5C0B702B
:102A20002670D0E9018090B9124B1E6826B92B7828
:102A300020781844BDE8F0812B780BB1FFF7A2FF96
:102A400030464246394602F047FA3668EEE7812FB3
:102A500008BF01234246394608BF837302F03CFA9F
:102A6000E5E700BFBF0D0020BE0D0020BC0D00201B
:102A70001C020020A0030020024A034B10781B78A0
:102A800018447047BE0D0020BF0D0020F0B50B4E5E
:102A90003378202B0FD00C25094C0A4F24781C4486
:102AA00004F01F046C433D19C5E9012000200133E7
:102AB00039553370F0BD0120FCE700BFBE0D00208A
:102AC000BC0D00201C02002038B5034C256802F024
:102AD00003FA256038BD00BF9C03002010B40A4CE7
:102AE0000A4621680B4683420CD04BB950B10160B5
:102AF00001212060817310BC81218381FFF7E4BF35
:102B00001B68F0E710BC7047A003002038B1837B3E
:102B1000013B012B9FBF0123014AC3731370704710
:102B2000BF0D00200246084610B5064953600C68E8
:102B3000029B106093600A600CB9FDF7CFFE002085
:102B400010BD00BFA403002010B5084C206858B188
:102B500000232360D0E901319847236823B1BDE801
:102B600010401868FDF7BABE10BD00BFA4030020D6
:102B700070B505880446672D09D0792D2FD0002D1A
:102B800033D1FFF717FF1B4B18701B4B1D601B4EFB
:102B9000194D08E00A282B680ED07E2B03DC5A1C46
:102BA0002A60174AD054304602F058FA431CF1D13B
:102BB0006723238001201BE05A1C2A600025104A4D
:102BC0002846D5540B4B1978FFF760FF0D4B2A466A
:102BD00085211868FFF75AFF18B97923E9E7852995
:102BE000E8D10022044B1A60D1E7002303800320C0
:102BF00070BD00BFA70F0020A8030020AC03002079
:102C0000C00D00209C0300200D28014610B516D0F1
:102C10000C4C237853B90C4802F00DFA08B9012383
:102C200023700A48FFF772FF012010BD0A28F8D16F
:102C3000054802F000FA0028F3D00023F0E7002056
:102C4000F3E700BF400E0020AC0300208800002006
:102C500008B505490548802202F0E6F9BDE80840BC
:102C600000210348FFF73ABF410E0020AC030020CB
:102C7000880000202DE9F04104880546772C20D0FB
:102C80007E2C3DD0002C4ED1FFF794FE284E294BD0
:102C9000294FDFF8B08018703460336857F823206C
:102CA0002AB9264A137077232B8001203EE008F8CA
:102CB00003409368002180209847336801333360D4
:102CC000EBE700231E4A1360194A1360184B1B4A96
:102CD0001B6812789A4204DC194B1B68002BF0D158
:102CE000E1E7184AD256002A19DA134A002052F8AE
:102CF0002320104B1978FFF7C9FE28B97E23D3E7AC
:102D00000C4B1B788B42D0D1094B0E491A688B5C57
:102D100003F07F038B540A4A136801331360044A9B
:102D200013680133D1E7002303800320BDE8F0815D
:102D3000B8030020A80F002040000020C10E002092
:102D4000B4030020A30F002010B40A4B0A4A1978DC
:102D500000238B4203DA52F8044BA04208D1074902
:102D60000748CA5C62F07F02CA5410BCFFF7CEBEAF
:102D70000133EEE7C10E002040000020A30F002029
:102D800098000020064A136843F004031360054BC3
:102D9000186804331B6840EA032080B2704700BF04
:102DA00000700D4014700D4010B5174A136823F0E1
:102DB0000C0313600122154B1A601A68012AFCD11A
:102DC0000822134B13491A60E32203F505731A60B6
:102DD0001A460B68DB07FCD50F4C10210023206836
:102DE000013900F0010043EA00034FEA43039BB2BC
:102DF000F5D1002BF1D00949180A03F0FE03086051
:102E00000B60EF23136010BD00700D40A8200D4033
:102E100024860840648608409C86084014700D4053
:102E20000378407840EA0320054B00FA01F1985CF2
:102E3000C2F1080200EA21201041C0B2704700BF71
:102E40002D5C2000F8B506460A480D46174602F0EC
:102E500068F8044630B93A4629463046BDE8F8409D
:102E600002F099BAA3680BB128469847204602F0B1
:102E700090F8EEE7BC03002038B500F0EFF8054607
:102E8000094802F04EF8044628B95DB12846BDE86D
:102E9000384002F07BBA636803B19847204602F0DD
:102EA00078F8F0E738BD00BFBC03002010B5044639
:102EB00000F0E2F838B100F0D9F9034B034821469D
:102EC0009B689847012010BD9C592000452E20008A
:102ED00070B50B4C0023616E0A4A04F13800FFF70D
:102EE000D5FCFFF74FFF656E0023B0FBF5F1064AF6
:102EF00001FB150104F11800BDE87040FFF7C6BCE6
:102F0000C00300200D2F2000252F2000044B5A6EF7
:102F1000196E5200914294BF59665A66FFF7D8BFA6
:102F2000C003002010B500F037FA00F0C3F9002309
:102F30000380044600F06EF82288930008B1017BFC
:102F400051B9023398B200F075F9238873B1BDE826
:102F50001040074800F044B8818823445980C18854
:102F600001329980228002F014F8E5E710BD00BF1D
:102F7000C00300209DF80030012B04D1024B9A6D54
:102F80005A66FFF7A5BF7047C0030020F8B50F468B
:102F900016461D46064C0146064A204600F00EF82D
:102FA000C4E9167625660448BDE8F84000F02CB860
:102FB000C003002030592000752F200070B5054651
:102FC0000C461646044A00F08BF820466E61034911
:102FD000BDE8704002F0CCB9385920003B5C2000BD
:102FE00010B5044604491A2000F032FA2046BDE824
:102FF000104002F0C9B900BFA00F0020014801F045
:103000008DBF00BF2C040020014B1860704700BF2B
:1030100030040020014801F084BF00BF2C040020D0
:103020002DE9F04105460C480C46164601F079FFA3
:1030300008B9BDE8F0818388A34209D18768002FD1
:10304000F7D0334622462946BC46BDE8F0416047EA
:1030500001F09FFFECE700BF2C040020054B10B5EA
:103060001B689847044618B18188012000F0E2F9F6
:10307000204610BD1859200038B5064B05465B6840
:1030800098470446A988012000F0D4F9201E18BFF3
:10309000012038BD18592000014B9B68184700BF1C
:1030A00018592000014801F039BF00BF3404002046
:1030B00081800146014801F051BF00BF3404002067
:1030C00010B50446054801F02CFF00B910BD8388F7
:1030D000A342FBD001F05DFFF7E700BF34040020FE
:1030E00070B505460C461646FFF7E2FF20462E61F6
:1030F0000249BDE8704002F03BB900BF3F5C2000D0
:1031000070B504461B200D4600F0AEF9064902F0EA
:103110008EF938B1A3691B6823B129462046BDE862
:103120007040184770BD00BFA00F002070B5054665
:103130000C461646044AFFF741FF2046AE6103499C
:10314000BDE8704002F014B940592000415C2000F5
:1031500008B5044801F020FFBDE80840024801F02E
:103160001BBF00BFB4000020A800002038B50E48E7
:1031700001F022FF054650B10C4801F01DFF044646
:10318000286030B92946084801F02AFF254628461C
:1031900038BD00F097F804F1B601A4F8800004F1FE
:1031A000820000F01FF9F2E7A8000020B400002020
:1031B00010B501460446074801F028FF48B12168D0
:1031C000054801F00DFF2146BDE81040014801F01F
:1031D00007BF10BDA8000020B400002010B50146B4
:1031E0000446094801F012FF68B12468B4F8801061
:1031F000204600F0E1F804F1B60104F18200BDE8D8
:10320000104000F003B910BDA800002010B5074918
:103210000B88834208DB064C80B222880244181ACD
:1032200008800120228010BD0020FCE7A80D0020AE
:10323000AA0D0020014B1880704700BFA80D002088
:103240000048704758040020014B1888704700BFA1
:10325000A80D0020034A044B10781B781844C0B214
:10326000704700BFD20E0020AA0D00202DE9F041CA
:103270000C4F3A8872B100240B4B0C4EB3F800800F
:103280000B4B1D78354421B2414504F1010403DBA9
:1032900000233B80BDE8F081FFF7DCFF3044435C56
:1032A0006B54F0E7AA0D0020A80D00205804002060
:1032B000D20E002008B5FFF7CDFF014B184408BD22
:1032C00058040020F8B50C4B04461E780B4B1F88A1
:1032D000F519802D0DDC3246094901F063FCFFF73A
:1032E000E9FF344401463A46204601F05BFC28469B
:1032F000F8BD0025FBE700BFD20E0020A80D00207E
:103300005804002008B5FFF7A5FF024B1B8818449E
:1033100080B208BDA80D002010B50146FFF7F2FFEE
:103320004318802B12DC431E094A1BB21A44481C66
:10333000002B05DA074B187801440120197010BDE5
:1033400012F80149013B14541BB2F1E70020F6E7E3
:1033500058040020D20E002038B50C4D0C4C3422FD
:1033600000210C4801F094FC2946204602F05CF84C
:103370002946A01C02F058F82946201D02F054F8F6
:103380002946A01DBDE8384002F04EB8B4592000CF
:10339000640F00206C0F00200023044A1380044AAD
:1033A0001380044A1370FFF7D7BF00BFAA0D002097
:1033B000A80D0020D20E002038B50C460546FFF7B8
:1033C000EBFF802C28BF802429462246034801F0C9
:1033D000E9FB034B20461C8038BD00BF5804002089
:1033E000A80D002010B5074B03F1340253F8044B2D
:1033F000934240F8044BF9D1034A13680B605368B9
:103400004B6010BD6C0F0020640F002010B5074BFF
:1034100000F1340250F8044B904243F8044BF9D1C8
:103420000B68034A13604B68536010BD6C0F00209B
:10343000640F0020024B23F810100120704700BFDA
:103440006C0F0020014B33F8100070476C0F002008
:1034500008B5044B1A3803EB400001F0E5FF0120EA
:1034600008BD00BF640F0020024B1A3803EB400078
:10347000704700BF640F00200149024801F0D7BF28
:10348000B4592000660F0020084B10B51B68984700
:10349000074B5B689847074B5B689847064B5B6830
:1034A0009847BDE81040054B5B681847505820000E
:1034B000705920009C5920005459200024592000A4
:1034C000F8B5FDF7ADF9114D064600242F461A2038
:1034D000FFF7CAFF294601F0AAFF80B10A20FFF7D3
:1034E000B1FF0C2303FB0474237A83420CD1606880
:1034F000301AB0F5A04F8CBF00200120F8BD013478
:10350000102C05F10C05E2D10020F7E7D8040020CB
:1035100070B5184D00242E461A20FFF7A5FF294646
:1035200001F085FF013418B9102C05F10C05F3D119
:103530000C23621E03FB0464A4F10C057AB90A2073
:10354000FFF780FF3072FDF76BF970601A20FFF70C
:103550008BFFBDE870400146064801F065BF2B4671
:1035600054F8180D013A616803C3A0682C4618602E
:10357000E2E700BFD8040020014B1888704700BF65
:10358000180100202DE9F04301290646884614461B
:1035900087B003DC002007B0BDE8F08303A902F088
:1035A00086F803AB03CB1B88206123839DF8113081
:1035B0006161002B47D0B71C02AA01A903A801F042
:1035C0003EFF9DF81350002D4ED0029B2BB17A7810
:1035D00017F8023B03EB02239BB2022DA38336D1E3
:1035E0003D462046324901F01FFF7B78237015F8D5
:1035F000023B63709DF81590B9F1000F4ED0019B0E
:10360000002B38D02F466A7817F8023B03EB0223D1
:10361000029A9BB2E38302B9A383B9F1020F2ED1C0
:103620003D46234904F1080001F0FEFE7B78237239
:1036300015F8023B6372A81BA8EB00038045C4E9A0
:103640000E53A7DBA7E7B378F71CA376B4E7032DE7
:103650000FD107F108052B46621E13F8011D9F428A
:1036600002F8011FF9D1C5E72046114901F0DCFE3F
:10367000A5833D46BEE7A38B2F46E383CDE7B9F193
:10368000030F13D107F108052B4604F1080213F8C4
:10369000011DBB4202F8011BF9D1CCE7044904F13A
:1036A000080001F0C1FEA4F81E90C4E73D46C2E741
:1036B000B459200030B591B00546FFF75DFF4FF6D5
:1036C000FF73984204D14FF0FF34204611B030BD53
:1036D00040220021684601F0DBFA404B1A782AB9F3
:1036E00001221A70FFF74EFB3D4B18701420FFF7B4
:1036F000A9FE8DF810001320FFF7A4FE8DF812002C
:10370000FFF7BAFE0446002848D000238DF8133096
:103710008DF81530002301248DF814308DF81840F1
:103720004DB10A20FFF78EFE00283FD00A20FFF798
:1037300089FE8DF81A0002248DF81940FFF71CFF4E
:10374000ADF81C00FFF798FE00283CD04FF6FF7341
:103750008DF81740ADF80030FFF70EFFADF81E00F2
:103760001A20FFF781FE014602A801F05DFEFFF777
:10377000A1FD0E90FFF768FD0F90684601F009FF6C
:103780000446002DA1D0FFF7C7FD00289BD0FFF70E
:1037900057FD0146684601F044FF96E70B20FFF70E
:1037A00051FE8DF815408DF81300B3E70C4B1A78D5
:1037B00002B91C7019780A204A1C1A708DF81A1068
:1037C000FFF738FEB7E71B20FFF74EFE01466846BD
:1037D00001F02AFE8DF81740BEE700BFD30E00208F
:1037E000D40E0020014BDB68184700BF9C59200015
:1037F000014B5B69184700BF70592000014B9B6962
:10380000184700BF70592000024BD86900B100472B
:10381000704700BF7059200070B590F829400F4BD9
:10382000042C214628BF04210124DB698C40054675
:103830009847012838BF0120013C444305D0FFF7D9
:10384000A1FAB0FBF4F303FB14042B46214605F167
:103850000800034ABDE87040FFF718B8705920000F
:10386000D53920002DE9F04106461B200F46FFF711
:10387000FBFD494B05461A78484C22B901221A70C3
:10388000FFF780FA208023880BB901232380218849
:103890000A204B1C2380FFF7CDFD414801F041FB7E
:1038A0000446002847D13F4801F086FB0446002823
:1038B00068D02946201D01F0B7FD002304F12C003B
:1038C000C4E90B30238501F029FB2146344801F07F
:1038D00045FB206B01F056FB072853DC324801F012
:1038E0006BFB0546002841D0304801F065FBA8601D
:1038F000C0B3FFF73BFC686080B30920D5F80880AF
:10390000FFF7A0FD08BB082388F808300D20C8E9A0
:103910000067FFF797FD01282946206B1BD101F0B6
:103920002AFB206B01F0FDFA854233D12046BDE829
:10393000F041FFF771BF2946201D01F078FD0028F6
:10394000C7D1204601F025FBAAE70920FFF77AFD41
:1039500088F80800DAE701F001FBE2E7A9681348FC
:1039600001F03EFB2946104801F03AFB206B01F0C4
:1039700009FB38B921460A4801F0DDFA2146094819
:1039800001F02EFB39463046BDE8F0410123042208
:1039900001F0ADBEBDE8F081D50E0020AC0D0020D9
:1039A000F8050020CC000020D8000020C000002036
:1039B00008B5054801F0F0FA044801F0EDFABDE859
:1039C0000840034801F0E8BAD8000020C0000020F9
:1039D000CC00002013B5044668B1006B01F0A1FAD9
:1039E000024640B12146054B0548DB68019302B011
:1039F000BDE81040184702B010BD00BF705920004C
:103A0000813A20002DE9F0470D4614468B680646A2
:103A1000D3E90078106B92F8289001F08CFA68686E
:103A2000FFF7C6FBA968124801F0DAFA29461148E7
:103A300001F0D6FA206B01F074FA60B10023204641
:103A40002385FFF7E9FE4B46324641463846BDE83E
:103A5000F04701F04CBE04F10800FEF721FF2146BB
:103A6000054801F068FA2146044801F0B9FAEAE78E
:103A7000C0000020D8000020F8050020CC00002065
:103A80002DE9F0410E461746044620B1006B01F0C7
:103A900048FA054608B9BDE8F0810A21686801F0D6
:103AA000BDFC80460A20FFF7CDFC804546D0284665
:103AB00001F06FFAEDE794F8282000203A4484F8EA
:103AC00028202946224684F82900BDE8F041FFF766
:103AD00099BF002384F8293094F82830DA19D2B23B
:103AE00084F828200B7A93421CD8224629460220CB
:103AF000EBE794F82930DA19D2B2052A84F82920A4
:103B000007D9002294F8283084F82920013384F85A
:103B1000283094F828200B7A9A4203D3224629466B
:103B20000120D2E72046FFF777FE6868BDE8F04144
:103B300001F060BC224629463046C6E7A968002944
:103B4000A9D0032EF6D801A353F826F0B73A2000E7
:103B5000F33A2000D33A2000973A200013B500240E
:103B6000094B1C70094B1C80FCF7A6FE012200F5D6
:103B70008051074B00940748FEF7D4FF0122064B03
:103B80001A7002B010BD00BFED0E0020AE0D002077
:103B900071402000E8060020E80E0020074B82B0AC
:103BA0001B784BB1064B1A7832B901221A70054BBB
:103BB0001B6A019302B0184702B07047E80E00205C
:103BC000ED0E002050582000094B82B01B786BB1DD
:103BD000084B1A7852B1084A127802F0FF012AB94C
:103BE0001970064B5B6A019302B0184702B0704728
:103BF000E80E0020ED0E0020E90E002050582000B5
:103C000008B5FFF7E1FF0022014B1A6008BD00BFB5
:103C1000F8060020044B1B7823B9044B1B680BB932
:103C2000FFF7D2BF704700BFEF0E0020F80600205C
:103C30000022094B82B01A70084BC2B21A70084AAF
:103C4000084B28B101211B6A1170019302B018477B
:103C50005B6A1070F9E700BFE80E0020E90E002053
:103C6000ED0E00205058200037B50B4B1A7802F0AB
:103C7000FF056AB901241C70084B1D70FCF71CFE7F
:103C8000224600F58051064B06480095FEF74AFF94
:103C9000012003B030BD00BFE80E0020E90E002077
:103CA00071402000E806002037B50B4B05461B7815
:103CB0000C4673B1FCF700FE231A022B4FF00003F1
:103CC00048BF841C0093012221462846034BFEF77F
:103CD00029FF03B030BD00BFE80E00207140200076
:103CE00013B5224C22680AB9FFF76EFFFFF7ACFA52
:103CF000032823D0FFF706FB00B31D4B9B689847B2
:103D000000281BDBFFF7A0FAC0B1FFF7FBFAA8B150
:103D10001B20FFF7A9FB174901F089FB50B11320C5
:103D2000FFF790FB206058B9FFF74EFF1248FEF7EF
:103D3000B7FD0DE0FFF7A0FB0028F0D102B010BDE9
:103D4000FFF72CFF002320210C4A0B48FEF79EFDB5
:103D5000FFF7B6FB0028F1D1FFF7DAFB084BDB6871
:103D6000019302B0BDE81040184700BFF8060020DC
:103D700090592000A00F0020C4060020013C200024
:103D8000545920002DE9F04F784E8BB033780590D0
:103D90003BB9774B1B7823B9052420460BB0BDE80F
:103DA000F08FFFF7AFFA0028F6D072491A20FFF71C
:103DB0004FFBFFF761FB07460C20FFF743FBB8B151
:103DC000FFF7A0FA80464FF001096B4D6C68FFF7D2
:103DD00037FA4146A047694CAB6984F800900293DA
:103DE0009847019470B10023019A13700124D4E71D
:103DF00001210B20FFF71EFB614B5B6898470028F1
:103E0000DEDAC9E7EB690393984704460028EAD154
:103E1000FFF7DAFE337886F80090DBB20493059B57
:103E200083BB4FF006096FF0030A6FF00F0BFCF72E
:103E300043FD0690FFF7B2FE0698AAEB0003069337
:103E4000FCF73AFD069BC342F9D46B69984750B919
:103E50000290FFF7B9FEDDE901301870FFF7B4FEFC
:103E6000049B3370C2E7FFF7AFFEFCF725FDABEB19
:103E700000030693FCF720FD069BC342F9D4B9F179
:103E80000109D4D10FB9FFF789FE0A20FFF7DAFA4A
:103E9000C3B20693FCF7C6FEFCF70EFD8146DFF8C1
:103EA000E4B0ABEB000BDFF8E0A0AAEB090AFCF7EB
:103EB00003FD1AEB000F4AD5FCF7B4FE002F3ED0ED
:103EC000AB6840469847FCF7F7FC6FF00C031B1AF1
:103ED0000793FCF7F1FC079BC342F9D4002FE6D10E
:103EE000029B9847002836D0FCF7E6FC6FF01408D8
:103EF000A8EB0008FCF7E0FC18EB000FFAD4032154
:103F00002B6909A8984703282ED19DF82630069AD8
:103F1000934229D100254FF00108FFF755FE049B7D
:103F2000019A337000231370002D7FF45FAF002FD0
:103F30007FF433AF984514BF1C4602242DE7059B40
:103F4000002BBDD0FCF7B8FC1BEB000FB8D400254C
:103F50004FF00008E1E7039B98470028C4D16B6944
:103F6000984700289FD1BFE70125F1E7E80E002020
:103F7000E90E0020A00F002050582000EF0E002076
:103F800090592000DEFDFFFFB0EFFFFF2DE9F14F5C
:103F900006460F461446002A61D0324BD3F80090F3
:103FA000B9F1000F0BD05068FFF718F901231A463A
:103FB0003946304601B0BDE8F04F01F098BB1546D8
:103FC000DFF8A4A0DFF8A4B0284600F0E2FFA8467E
:103FD0000546D8F80400FFF701F90C20FFF732FA84
:103FE000E0B91DB101211320FFF724FA51461A2030
:103FF000FFF72EFA01210B20FFF71CFADBF8043043
:104000009847002802DA01230522D1E701210C207C
:10401000FFF710FAD8F8040001F0F2F9002DD3D11F
:10402000204600F0B6FF254604466868FFF7D6F83C
:104030001320FFF707FA80464846FFF7A3FE032840
:1040400005460CD0024601233946304601F04FFBAD
:104050002DB924B14FF00109B8F1000FE0D101B042
:10406000BDE8F08FF8060020A00F00209059200036
:1040700040F2E3122DE9F3476F4C05462388934243
:104080003AD0B3F5F27F08D2002B00F08A8040F2DC
:10409000B11293420BD0002393E040F202229342EC
:1040A000F9D10023654A1370654A137007E0644A2A
:1040B00013780133DBB2012B137000F28680614B61
:1040C0001A78002A74D1604A1268002A70D11B78CD
:1040D0000BB9FFF763FD5D4B5B699847002865D11D
:1040E0000122564B1A70FCF7E7FB594B594A1860EE
:1040F00000231370584A1370524B584F1B7803F02B
:10410000FF06002B7FD13B78002B7CD0FCF7D4FB43
:104110006FF4CC724E4B1B68C01A1044002872DA40
:10412000DFF82881DFF82C91D8F81430984718B1BF
:1041300099F800600136F6B289F80060464ED8F86A
:1041400018A0337801333370D047002855D00023AE
:1041500089F800303378D8F81C800A2B04D9D0476E
:1041600010B9C04700284CD0C04700284BD13C4B69
:104170001B789BB12E68FCF79FFB331A13F1120FCB
:104180004FF0000348BF811C00934FF00102284606
:10419000344B58BF06F11401FEF7C4FC40F2E313A0
:1041A0000FE0FCF789FB304B18607AE7FFF732FD30
:1041B000FCF782FB00F110012846FFF775FD40F285
:1041C000B113238002B0BDE8F0871C4B1B78002B95
:1041D00089D1254E336803F580533360FCF76CFBBF
:1041E0003368C3F1A003C3427FF55BAF2846316853
:1041F000FFF75AFD40F20223E3E799F80030052B60
:10420000A8D9FFF707FD3B78002BE2D00F4EB3692A
:10421000984760B1FCF750FB0D4B1B68C01A6FF458
:10422000CC7318440028D4DBFFF7F4FCD1E7F36922
:1042300098470028EED1F7E7AE0D0020EB0E0020E6
:10424000EA0E0020EF0E0020F80600205058200053
:10425000F4060020EE0E0020EC0E0020ED0E0020F3
:10426000E80E002071402000E406002008B5024B53
:104270001B689847023008BD4859200038B50C4BE0
:104280009B689847041E02DA4FF0FF3038BDFFF7F5
:1042900011F803780546002BF6D10220FEF7B6FF91
:1042A0000028F1D06878FEF7C5FFA01CEEE700BF3C
:1042B0004859200070B50220FFF72EF810B94FF0D2
:1042C000FF3070BDFEF7BCFF002606700446FEF707
:1042D000BBFF6070FFF716F80446FFF7C7FF2044E6
:1042E0002A2812DCC0F12B00C4B2FEF7E3FF05461A
:1042F000FEF7AAFF22463146284400F0C9FCFEF72B
:10430000A3FF204480B2FEF795FF044B5B689847FB
:10431000041ED4DBFEF7AAFFA01CD2E748592000F8
:10432000014B9B68184700BF2459200070B5044614
:104330000D4614200121FFF77DF8034B2946204646
:10434000BDE870409B6818475459200070B5038839
:1043500004463F2B57D006D833B3372B1ED000234B
:10436000032023801FE0442BF9D1324800F0AFFD39
:10437000C0B1FFF711F8FEF79DFF2F4D2B8803808A
:104380000220FEF757FF29882C48FDF71BFD2C481B
:1043900000F086F92B8801332B8032E0294800F0A9
:1043A00096FDC8B9012070BD274E00F04BFA00F011
:1043B0009DF93146254801F03AF872780546317882
:1043C00088B12348FDF7FEFC4FF400611D4800F062
:1043D0006CFD37232380E5E70122AA211D4B1848F5
:1043E00000F0F4F8BBE71C48FDF7ECFCAA211448E8
:1043F0002B462A4600F0EAF84FF4F041174800F047
:1044000054FD3F23E6E7154800F061FD0028C9D0C0
:10441000124800F053FDFEF7B5FC4FF47051B0FBAD
:10442000F1F303FB1101034889B200F03EFD442380
:10443000D0E700BF7C070020F00E00209A5C20002F
:104440000C070020FC060020A00F00201A0100200D
:104450005F5C2000F4000020795C20006C070020E5
:1044600037B504460D46FEF7EFFE022808D0FEF7EA
:10447000EBFE0146084803B0BDE83040FDF7A2BCA2
:10448000FEF718FF62780388217800950348FDF74E
:1044900099FC03B030BD00BFAD5C2000C45C2000BF
:1044A0002DE9F34104460E46FEF7CEFE04280746EA
:1044B00005D0254802B0BDE8F04100F09FBCFEF7F2
:1044C000F9FE05683846FEF7BDFF2F0C0FFA80F89D
:1044D000CDE90078727831781C48ABB2FDF772FCF8
:1044E00018F15E0F2CDBB4F85C3001379F42ADB29F
:1044F00003DBB4F85E30AB4222D23146A4F85E5002
:1045000004F13800A4F85C7000F08EFFFEF73AFC6E
:10451000B4F85C30B4F85E2094F8381005460C48C6
:10452000FDF750FC0A21C5F309052346B5FBF1F15F
:10453000084A04F13C0002B0BDE8F041FEF7A6B91C
:1045400002B0BDE8F08100BFFA5C20001E5D2000D3
:10455000605D20006D46200013B50446FEF774FE32
:10456000022807D8FEF770FE01461748FDF72AFC1F
:1045700002B010BDFEF79EFE837802888DF80630EB
:10458000B4F84430ADF804205BB90320FEF73EFEDA
:104590009DF80610E36901311B68C9B201A898476C
:1045A000E6E79DF8063001338DF80630FEF782FE0F
:1045B000BDF804209DF8063004F1200102808370CC
:1045C000204600F0F2FED3E7935D20002DE9F04194
:1045D00004460D463830114916461F4600F024FFA8
:1045E0004FF6FF73294620460D4AE3656763FEF7E1
:1045F000E5FC691C0B4A89B204F11800FEF796FD30
:1046000056B100212346A4F85C1004F13C00064A90
:10461000BDE8F041FEF73AB9BDE8F081B459200099
:10462000F8000020000100206D46200013B5B0F80E
:104630005E300446ADF80430B0F85C30ADF80630BA
:10464000FEF7AAFE04210DEB0100FEF7B5FEB4F85B
:104650005C20B4F85E100448FDF7B4FB2046FEF77A
:10466000BFFC02B010BD00BFBC5D200010B5044609
:10467000FFF7DCFFB4F85C3073B9B4F85E3004F1D6
:104680003C000133A4F85E304FF4F0412346BDE80E
:104690001040024AFEF7FAB810BD00BF6D46200078
:1046A000F7B5104B00F138071B8805460E49384610
:1046B000ADF8043000F0BBFE064688B90320FEF7D3
:1046C0002BFE0446FEF7BCFDBDF804308670038067
:1046D000394605F1180000F068FE204603B0F0BD31
:1046E0000024FAE7A00F0020B459200008B5FDF718
:1046F0007DFF0020FDF758FF0B4B18600120FDF7F0
:1047000053FF0A4B18600620FDF74EFF084B186058
:104710000720FDF749FF074B00211860BDE808405E
:104720000548FEF7DBB900BF980700209C07002072
:10473000A4070020A0070020080100202DE9F3476E
:10474000FDF754FF0020FDF72FFF1A4E1A4D306081
:104750000120FDF729FF28600620FDF725FF174CF3
:1047600020600720FDF720FF3268154E2B68276870
:10477000144D34681449A7EB040A2C682860041B04
:104780001248DFF850E0D1F800900B600188DEF8A5
:1047900000804D1CCEF8002005803760A3EB090394
:1047A000CDE900A4A2EB08020948FDF70BFB02B01B
:1047B000BDE8F0878C0700209007002094070020B8
:1047C000A4070020A00700209C070020B00D0020B7
:1047D000EB5D20009807002010B5038804462BB13C
:1047E0006D2B0AD000230380032010BD4FF47051BD
:1047F000074800F05AFB6D232380054800F067FB53
:104800000028F2D0024800F059FBFFF797FFF2E7CB
:10481000A807002010B4084B197809B910BC7047DC
:104820005C880288944205D1044B0548198010BC6D
:10483000FDF7C8BA0433EFE7B6592000B20D0020E7
:104840001A5E20000148FFF7E5BF00BFA00F00205F
:1048500053B94AB9002908BF00281CBF4FF0FF31E7
:104860004FF0FF3000F06EB9ADF1080C6DE904CEE9
:1048700000F006F8DDF804E0DDE9022304B070473B
:104880002DE9F047089E0D4604468E46002B40F069
:1048900083808A42174647D9B2FA82F34BB1C3F1FB
:1048A000200105FA03FE20FA01F19F4041EA0E0EB5
:1048B0009C404FEA1748BEFBF8FC1FFA87F908FB3B
:1048C0001CE20CFB09F0210C41EA024290420AD999
:1048D000BA180CF1FF3180F01881904240F2158136
:1048E000ACF1020C3A44121AB2FBF8F008FB1022A9
:1048F00000FB09F1A4B244EA0244A14209D93C19DF
:1049000000F1FF3280F00381A14240F200810238C1
:104910003C44641A002140EA0C401EB10022DC40F5
:10492000C6E90042BDE8F08702B9FFDEB2FA82F3C1
:10493000002B4FD18D1A01214FEA124E1FFA82F837
:10494000B5FBFEFC0EFB1C5508FB0CF0220C42EAEA
:104950000545A84207D97D190CF1FF3202D2A842C1
:1049600000F2E98094462D1AB5FBFEF00EFB1055BF
:1049700008FB00F8A4B244EA0544A04507D93C1955
:1049800000F1FF3202D2A04500F2D9801046A4EB1C
:10499000080440EA0C40C0E78B4208D9002E00F022
:1049A000B1800021C6E900050846BDE8F087B3FAEA
:1049B00083F100294BD1AB4202D3824200F2B9808D
:1049C000841A65EB030301209E46002EAAD0C6E997
:1049D000004EA7E79F40C3F12002D1404FEA174E97
:1049E000B1FBFEF01FFA87F80EFB101124FA02F259
:1049F0009D4000FB08FC2A43150C45EA0145AC45E7
:104A000004FA03F409D97D1900F1FF3180F08F8099
:104A1000AC4540F28C8002383D44A5EB0C05B5FB5B
:104A2000FEF10EFB115C01FB08F995B245EA0C455D
:104A3000A94507D97D1901F1FF3274D2A94572D970
:104A400002393D44A5EB090541EA004178E7C1F18F
:104A500020078B4022FA07FC4CEA030C25FA07F4E6
:104A60004FEA1C4EB4FBFEF91FFA8CF80EFB1944FA
:104A700020FA07F309FB08FA8D401D432B0C43EA8B
:104A80000444A24502FA01F200FA01F309D91CEB31
:104A9000040409F1FF3048D2A24546D9A9F1020920
:104AA0006444A4EB0A04B4FBFEF00EFB104400FBCC
:104AB00008FAADB245EA0444A24508D91CEB040447
:104AC00000F1FF352DD2A2452BD90238644440EACB
:104AD0000940A0FB0289A4EB0A044C45C6464D469A
:104AE00019D316D05EB1B3EB0E0264EB050404FAE1
:104AF00007F722FA01F31F43CC40C6E900740021F6
:104B0000BDE8F087314630460CE78C46EBE61046B0
:104B1000FFE64345E6D2B8EB020E69EB0C0501381F
:104B2000E0E72846D3E711468CE78146B9E7084617
:104B300073E7084649E7ACF1020C3D4413E702383D
:104B40003C4424E7704700BF032A70B412D940EAFE
:104B50000105AD0704460B461DD11946204653F802
:104B6000045B54F8046BAE4215D1043A032A204684
:104B70001946F2D8561E9AB10139441E01E0C318F5
:104B80000BD014F8015F11F8012F331B9542F6D0BA
:104B9000A81A70BC7047561EEEE7184670BC7047E6
:104BA0001046F6E7844641EA000313F0030349D1B7
:104BB000403A23D30B6803604B6843608B68836083
:104BC000CB68C3600B6903614B6943618B69836187
:104BD000CB69C3610B6A03624B6A43628B6A83626F
:104BE000CB6AC3620B6B03634B6B43638B6B836357
:104BF000CB6BC36340304031403ADBD230320BD311
:104C00000B6803604B6843608B688360CB68C3604C
:104C100010301031103AF3D20C3205D351F8043B66
:104C200040F8043B043AF9D2043208D0D2071CBF42
:104C300011F8013B00F8013B01D30B88038060466B
:104C4000704700BF082A13D38B07B1D010F00303BD
:104C5000AED0C3F10403D21ADB071CBF11F8013B2D
:104C600000F8013BA4D331F8023B20F8023B9FE758
:104C7000043AD9D3013A11F8013B00F8013BF9D2CB
:104C80000B7803704B7843708B7883706046704765
:104C9000F0B4860746D0541E002A3CD00346CAB260
:104CA00001E0013C37D303F8012B9D07F9D1032C18
:104CB0002AD9CDB245EA05250F2C45EA054534D958
:104CC000A4F1100222F00F0C03F12007160967442B
:104CD00003F1100242E9045542E902551032BA428A
:104CE000F8D1721C14F00C0F03EB021204F00F0643
:104CF00013D0331F23F003030433134442F8045B3F
:104D00009342FBD106F003042CB1CAB21C4403F851
:104D1000012B9C42FBD1F0BC704734461346002C5B
:104D2000F3D1F8E714460346C1E71A462646E0E702
:104D3000FEE708B5FBF7AAFAF7B5002406462546B4
:104D400027463046FBF7FEFB0197019BAB4215DB84
:104D50003046FBF7FFFBC5F5C8750197019B9D42E7
:104D600011DC0134B4F5487F01D103B0F0BDB4F5D6
:104D7000C87FD4BF2546C4F54875E2E700BF019B54
:104D800001330193E1E700BF019B01330193E5E7A4
:104D9000704770470020FBF70BBE0120FBF708BEF1
:104DA0000020FBF7D1BF0120FBF7CEBF0220FBF7AD
:104DB000CBBF0320FBF7C8BF10B50C46FCF714F9B6
:104DC0002046BDE81040FCF7B5BB10B50446C1B2A3
:104DD0000020FBF70DFF204610BD70B50E460025E4
:104DE000441E631C02D014F8010F08B9284670BD98
:104DF000B542FBD0FFF7E9FF0135F2E738B50546CC
:104E00000024285D20B90A20FFF7DFFF204638BDC7
:104E1000FFF7DBFF0134F4E7002070470120704703
:104E200010B50446302200210E20FBF7FBFF6CB1C9
:104E3000012C0CD142F210730011A0F28E50584395
:104E40002A2390FBF3F000F5C340283010BD4FF04B
:104E50000040FBE7002070470120704710B5044672
:104E6000302200210F20FBF7DDFF5CB1012C03BFD6
:104E700040F6F253584347F6F0734FF0004008BF36
:104E800090FBF3F010BD084608B511460AB1FFF7D4
:104E9000A4FF002008BD10B5041F54F8040F00B98A
:104EA00010BD0021FDF71AFEF7E710B5044600F02B
:104EB0001BF82046BDE81040FDF732BC10B5044693
:104EC00000F019F82046BDE81040FDF729BCC06885
:104ED000B0FA80F040097047837BDB0701D5FDF70E
:104EE000F5BC7047FFF755BF10B541600446FBF7AE
:104EF00097FC206010BDD0E9003213440360704776
:104F000010B50446FBF78CFC2368C3F1010303448E
:104F1000606898422CBF0020012010BD0023036070
:104F2000704700687047006820B103460068002899
:104F3000FBD118467047036810B53BB10024994275
:104F40001A6806D11CB9026000221A6010BD2260E6
:104F5000FAE71C46002AF9D01346F0E738B50546B3
:104F6000FFF7E9FF00230B60FFF7DDFF08B92960B9
:104F700038BD0160FCE738B5FFF7DDFF03680B6063
:104F8000016038BD0368002003B970471B68013019
:104F9000FAE700B10068704710B504464288002166
:104FA0004068FFF775FE23886288A0680021BDE88D
:104FB00010405A43FFF76CBE002310B54188994258
:104FC00001DC002009E04268D418D25C32B9012229
:104FD00022700288806803FB020010BD0133EEE7F7
:104FE000002330B5826844889C4201DCFF2008E041
:104FF0008A4207D14168CA5C0AB1013ACA54426880
:10500000D05C30BD058801332A44EDE782688A42CE
:1050100008D84388008800FB032081422CBF002071
:1050200001207047002070470023013A016002719F
:1050300043718371704710B5427983790479D31A2B
:1050400034EA030308D003689954437902790133A1
:1050500013404371012010BD0020FCE783794279A1
:105060000179D21A0A421FBF0268D25C01330B4099
:105070001ABF837110464FF0FF307047831C002029
:1050800013F8022C023302B9704713F8032C1044B2
:10509000F6E7072B2DE9F84306460F4615461C4652
:1050A00007DC1A4629463846FDF7BAFE3070BDE8DF
:1050B000F8834FEAE3087AB97B5D73550135A8455B
:1050C000FADC14F00702F2D0002107EB0800FDF72C
:1050D000A7FE06F80800EAE74FF0000907EB090011
:1050E00008222946FDF79CFE06F8090009F101098E
:1050F000C845F3DC14F00702D9D02946E5E72DE9CD
:10510000F743FEF7D7F804460220FEF77FF820B9F0
:105110000025284603B0BDE8F0836378207800EBD3
:10512000032080B2FDF7CCFF05460028F0D0FEF743
:10513000C1F80746287B10F0070318BF012303EBD3
:10514000D000FEF763F80028E2D00026B146AC6834
:10515000023414F8023C002BDBD0192B14F8018C1C
:1051600007EBE60106F007020BD901A84346FFF75B
:1051700090FF14F8020C01A9FEF76AF946440234C4
:10518000E7E7434601A8ADF80490FFF782FF9DF8DA
:1051900005109DF8043014F8020C43EA0121FEF7D3
:1051A00049F9EBE7072B2DE9F0410FDC1478C1F149
:1051B0001001CB1A04FA03F30178C3F307220A4360
:1051C000417802700B434370BDE8F081DC10C9B92F
:1051D000555C45540131A142FADB13F00703F3D0CB
:1051E000125DC3F108052A41C3F11003055D02FAFF
:1051F00003F3C3F307222A43011902554A781343E4
:105200004B70E1E705460026C1F1080E975D95F861
:1052100000C007FA0EF7C7F307284CEA080C05F898
:1052200001CB95F800C001364CEA0707A6422F7063
:10523000ECDB13F00703C7D0125DC3F1080631445D
:105240000A41D2B2C3F11003015D02FA03F3C3F3C2
:1052500007220A43051902556A7813436B70B3E7B6
:105260002DE9F743057B044615F0070218BF01221C
:1052700002EBD505A81CFEF74FF8A8B1FDF7E0FF3B
:10528000A3880370A3881B0A4370FDF7D9FF2A4641
:105290000025861C00213046FFF7FAFCA468023482
:1052A00014F8020C18B9012003B0BDE8F0831928E6
:1052B00014F8017C06EBE50805F007090AD9FEF7AA
:1052C000D3F83B46024649464046FFF76BFF3D4454
:1052D0000234E5E7FEF7B6F83B46ADF8040001AA54
:1052E000F1E710B5FDF734FFFEF756F8FDF786FE3F
:1052F00000F03CF8BDE810404FF461134FF47042E9
:105300004FF480510220FDF741BE7047F8B50E46BC
:10531000FDF7D0FF07880446FDF796FFBB00023378
:10532000834203D800250234AF4200DCF8BD54F8B4
:10533000041B30460A0C89B2FDF772FE0135F3E713
:1053400043695B6803B11847704713B504461A20D8
:10535000FEF78AF8014601A800F066F863691B6849
:1053600013B1204601A9984702B010BDFDF79ABEBF
:1053700038B50D46FDF7A4FE044620B185602846E9
:10538000FDF78AFE207338BDFDF790BD03691B68E9
:1053900003B11847704703695B6803B1184770474A
:1053A00083695B6803B11847704710B504461B203A
:1053B000FEF74EF82046BDE81040FDF711BE0EF096
:1053C0000F000D2808BF00F00EB800982DE9F04F2F
:1053D00000F1240181F3098890E8F08F0EF00F00AE
:1053E0000D2818BF7047EFF3098020E9F04F0990AE
:1053F000BDE8F08F006800F1B6018230FDF7F2BF22
:1054000010B5046804F1B60104F18200FDF7EAFF6B
:105410002046FDF757FFA4F8800010BD036803EB9A
:105420004103B3F8820070470B8803807047022263
:1054300008B5FFF789FBB0FA80F0400908BD30B528
:1054400030B3037A022B2CD1C579437A04792DB974
:10545000002B4AD1012C48D1204615E053EA040024
:105460001DD0032D2FD1032B2FD1B4FA84F0400986
:10547000002309E0181E18BF0120002CF8D1023BC0
:10548000012B8CBF0023012301B10B6002B110601E
:1054900030BD023B012B8CBF00230123DCE7012040
:1054A0001BE00378022B22D0037953B9437A13F01F
:1054B000030318BF0123C07910F0030018BF0120B7
:1054C000E2E70023F7E7022DD4D0A3F1020CDCF1D0
:1054D000000040EB0C00002CCAD1022DCFD0032DD0
:1054E000C6D19C1E63426341CEE7002CD1D0002080
:1054F0000346C9E7002337B50B608B80437D0D461B
:10550000D9075CBF01232B70037E0446012B0BD807
:10551000C37D9A072CD0437E9B0729D0C28B838BF7
:105520009A4225D101232375694601AA04F110008E
:10553000FFF785FF009B0BB10223EB70019B0BB1C2
:1055400002236B70E37D03F00303022B03D0032BD4
:1055500014BF00230823AB70637E03F00303022B08
:1055600003D0032B14BF002308232B7103B030BDDD
:105570000023D8E702280CBF022308230B448B42E8
:1055800001D10120704713F8012DFF2AF7D0002028
:10559000704707B56946FFF7ADFF9DF800309DF8ED
:1055A0000100023303449DF8020003449DF8030008
:1055B00003449DF8040003449DF80500184403B01B
:1055C0005DF804FB43788278DB00120102F01002E0
:1055D00003F008031343027802F007021343C27872
:1055E000520102F0200213430279920102F04002BC
:1055F00013430B704379427A03F0010343EA8213A9
:105600008279520002F002021343C279920002F042
:105610000C021343027A120102F0300213434B7062
:10562000704737B504460D466946FFF763FF2946C4
:1056300004F11000FFF7C6FF9DF800309DF801202F
:10564000012B09BFA37E0223AB700323022A08D1DA
:10565000A18B5A1CE954A18BD2B20233090ADBB2E6
:10566000A9549DF802201344DBB2991AC9B2B2B909
:105670009DF80320022A08D1E18B5A1CE954E18BE2
:10568000D2B20233090ADBB2A9549DF804200834CF
:105690001344D8B2831ADBB22AB903B030BD013A41
:1056A000A05C6854E1E7013AA15CE954F2E70278B2
:1056B000437802F007000870C2F3C0004870C2F3DC
:1056C00000108870C2F34010C2F380120A7103F018
:1056D00001024A71C3F340028A71C3F38102CA71A5
:1056E000C3F301129B09C8700A724B72704710B461
:1056F0000446084611461A4614B1234610BC184702
:1057000010BC704730B591B0FDF7D4FD0446FDF7ED
:105710009BFD6A4601462046FDF734FF044620B94A
:105720004FF0FF34204611B030BDFDF76FFD00286B
:10573000F6D014209DF81010FDF77CFE9DF8173070
:10574000ABB1BDF81C50FDF717FF854205D04FF6F1
:10575000FF73BDF81C209A42E2D169469DF81700FC
:10576000FFF708FF18B969461B20FDF771FE02A973
:105770001A20FDF76DFE13209DF81210FDF75AFE5A
:105780009DF8153053B99DF81A100A20FDF752FE06
:105790009DF81A100E20FDF74DFEC3E74FF6FF717E
:1057A000F3E70120FDF786BF0020FDF783BF8020CF
:1057B000704770B5044600200D46FEF7E3FA032853
:1057C000024606D029462046BDE870400123FFF777
:1057D0008EBF70BD70470000B55A200065052000DF
:1057E000C1052000000000000100000001000000D1
:1057F0000100000000C0004000410D40000000001A
:10580000110000001700000000000001FFFFFFFF73
:10581000050000000200000002000000020000007D
:1058200000D0004008410D400200000011000000BF
:105830001700000002010200FFFFFFFF060000004A
:10584000505B2000545B2000635B2000675B2000FE
:1058500065172000E90F200035152000B94D200004
:1058600015112000F9142000810F2000990F20004D
:10587000A90F2000F511200099132000A912200083
:1058800035162000E510200007000000FF00000092
:1058900005000000ED00000003000000D50000003E
:1058A00001000000C500000000000000B60000007C
:1058B000FFFFFFFFB0000000FDFFFFFFA1000000A1
:1058C000FBFFFFFF91000000F9FFFFFF88000000D1
:1058D000F7FFFFFF72000000F5FFFFFF620000000E
:1058E000F3FFFFFF58000000F1FFFFFF4200000040
:1058F000E8FFFFFF000000008E5B2000214E20002B
:10590000194E20001D4E2000A25B20005D4E20009D
:10591000554E2000594E2000FF50200061522000BB
:105920007D502000365C2000E3522000792E2000BC
:105930000D5320000B5320004B53200041532000F7
:1059400001312000A1532000A9572000A3572000B7
:1059500005572000475C2000B13920006538200041
:10596000E5372000F1372000FD37200009382000FE
:105970004C5C20005D3B2000B35720008D3F200091
:10598000E13C2000693C2000313C2000AF57200062
:105990006D422000B54220007D422000575C20006F
:1059A000D55720002D43200021432000E400002093
:1059B0000000000000000100F79C0200D9760300FF
:1059C000F3840400F3EE0500F7920600F39A070053
:1059D000DE210800F2A10900D8B50A00F21E0B0072
:1059E000D95F0C00F2330D00DE0C0E00F20E0F003A
:1059F000D9491000F3DC1100D9231200F38B1300F6
:105A0000F3C21400F3B71500DEE41600F3881700A4
:105A1000F79A1800F7E71900F2851A00F2271B0021
:105A2000F2641C00F3D31D00F38D1E00F7E11F008C
:105A3000DEAF2000F2912100F2D72200F3A3230071
:105A4000F2D92400D99F436F6E74696B692D332E90
:105A5000782D333334352D67333262356231376612
:105A600036005A6F6C6572746961204669726566AA
:105A70006C7920706C6174666F726D0052696D652F
:105A800020636F6E666967757265642077697468F4
:105A900020616464726573732000253032783A00A7
:105AA000204E65743A2000204D41433A2000205298
:105AB00044433A2000427574746F6E00434332359C
:105AC00033383A2049443A2030782530346C782CE9
:105AD000207265762E3A20504725642E25642C20AE
