:020000040020DA
:10000000381800208D0220002F4A20002D4A2000A1
:100010002D4A20002D4A20002D4A2000000000001B
:10002000000000000000000000000000BB502000A5
:100030002D4A200000000000D95020007108200047
:100040009D4A2000A34A2000A94A2000AF4A200070
:1000500000000000914A2000974A20002D4A20000D
:100060002D4A2000000000000000000000000000F9
:1000700000000000000000002D4A200000000000E9
:1000800000000000000000002D4A20002D4A200042
:100090002D4A20002D4A20002D4A20002D4A200004
:1000A0002D4A20002D4A20002D4A20002D4A2000F4
:1000B0002D4A20002D4A20002D4A20002D4A2000E4
:1000C0002D4A20002D4A20002D4A20002D4A2000D4
:1000D0002D4A200000000000000000000000000089
:1000E0000000000000000000000000000000000010
:1000F0000000000000000000551A2000651A2000D2
:1001000000000000000000000000000000000000EF
:1001100000000000000000000000000000000000DF
:1001200000000000000000000000000000000000CF
:1001300000000000000000000000000000000000BF
:1001400000000000000000000000000000000000AF
:10015000000000000000000000000000000000009F
:10016000000000000000000000000000000000008F
:10017000000000000000000000000000000000007F
:10018000000000000000000000000000000000006F
:10019000000000000000000000000000000000005F
:1001A000000000000000000000000000000000004F
:1001B000000000000000000000000000000000003F
:1001C000000000000000000000000000000000002F
:1001D000000000000000000000000000000000001F
:1001E000000000000000000000000000000000000F
:1001F00000000000000000000000000000000000FF
:1002000000000000000000000000000000000000EE
:1002100000000000000000000000000000000000DE
:1002200000000000000000000000000000000000CE
:1002300000000000000000000000000000000000BE
:1002400000000000000000000000000000000000AE
:10025000000000000000000000000000000000009E
:10026000000000000000000000000000000000008E
:100270002D4A2000D518200029192000A50E2000A5
:10028000F11C2000350920002D4A2000FF224824BF
:1002900008B5084B08481A60084AE3690849121A69
:1002A00098470848084A0021A369121A984700F0A5
:1002B0000DF8FEE7B4200D40400000203F01002073
:1002C0003C5C2000400100203210002073B500F09B
:1002D000B1FC00F085FD00F0C7FC00F07DFA01F0F4
:1002E000F5FC04F07DFC00F073FD00F021F9202006
:1002F00004F0A0FB02F066FB00F088FC002000F098
:10030000A3FB012000F0A0FB0020434900F068FCA3
:1003100002F08CFC62B6082004F08CFB3F4804F02D
:10032000EBFB3F4804F0E8FB00F0F4F9002002F09A
:1003300029FD01F027FB00213A4802F0CFFB02F033
:100340006FFA04F0A3FB00F0EDFD00F009FE03F0EE
:1003500089F80821684601F0FBFC9DF806309DF8FD
:100360000750314C45EA0325BDF806302F4823805D
:1003700001F028FD2E4E21782E4801F023FD6178F2
:100380002D4801F01FFDF46A4AF6CD310220A04746
:1003900029460320A0471A210120A04708226946C8
:1003A000736B0B209847254801F00CFD244B18680F
:1003B00004F0A2FB234801F005FD234B186804F06C
:1003C0009BFB224801F0FEFC214B186804F094FBD3
:1003D0000021204802F082FB1F4B01219B688120F5
:1003E000984702F0CBF800F067FA01221B4B186027
:1003F0001B4B1C481A7004F0CCFB00F00DFC1020C5
:1004000004F018FB00F00EFC02F0F4FA10F0FF0FFD
:10041000F8D101F0B1FBF5E7E52B20002E572000C5
:100420004A57200068000020281000206457200050
:100430003855200082572000915A2000885720000C
:100440000C5620008F5720003C5620009657200065
:100450005856200098000020C0542000BC0F0020F7
:10046000B00F002094562000F8B52D4D2E7828703E
:100470004640F20609D510F010042A4F25D000F0AE
:100480001BFA294BD8600123FB7016F0300F0AD0FD
:100490002B78244C13F0300725D000F00DFA224BB6
:1004A000186101232371B3060AD52B781D4E13F072
:1004B000200426D000F000FA1B4B58610123737111
:1004C0002878BDE8F84000F003B9FB78002BDCD0B9
:1004D00000F0F2F9154A1449D368C968FC705B1A38
:1004E0000344D360D1E72379002BDCD000F0E4F99A
:1004F0000E4A0D491369096927715B1A0344136198
:10050000D1E77379002BDBD000F0D6F9074A064912
:100510005369496974715B1A03445361D0E700BFA2
:10052000440E0020B00F0020BC0F00207C0F0020E4
:1005300008B500F0C5F80022014B1A7008BD00BFD5
:10054000440E0020024B1B781843FFF78DBF00BFFD
:10055000440E0020024B1B7823EA0000FFF784BF03
:10056000440E002018B1012804D000207047034B2E
:1005700018687047024B1878704700BF20900D40F4
:10058000450E002010B5094A00201378013313707E
:10059000074B197802F07AFABDE8104005490023AC
:1005A000054A0968054802F071B900BF450E0020F0
:1005B0002A10002078010020850520005801002025
:1005C00008B50346812B08462BD0B3F5807F39D080
:1005D000802B24D102F0EEF91C4B1D4A18701368D1
:1005E000032123F00803136052F8203C002023F07D
:1005F000080342F8203C52F81C3C23F0080342F860
:100600001C3C52F8183C43F0080342F8183C042202
:1006100000F0F4FB032200210E4800F075FB0120DE
:1006200008E00D4B0D491A6828B142F008021A6023
:1006300001230B6008BD22F008021A600123C1F8F3
:100640008030F7E7064B1960E9E700BF2A10002069
:1006500020940D406506200010940D4000E100E05C
:100660007801002008B50F4804F0C8FAC8B140214D
:100670000C4804F0B7FA0C4B196849B100220B4B37
:100680001A700B4B1B6843B90A4A0B4802F0FEF87C
:10069000BDE80840094802F045BB074802F000F9F0
:1006A000F6E708BD5001002078010020450E00202B
:1006B00020900D408505200058010020C0542000E6
:1006C000024A136843F038031360704700C40D40BA
:1006D000014B1860704700BFE0C00D40044B1B6821
:1006E000C3F3072013F4704F04BF1030C0B270473B
:1006F0001C300D40064B1868C00910F0060F03BFF0
:1007000000F00700C0F1020040034FF400407047C2
:1007100014300D402DE9F047482488B0FFF7DEFF84
:10072000164B06461F68A36898476368804698473B
:100730000446FFF7DFFF054600F0CEFA814600F0E1
:10074000D7FA824600F086FAAD0A07F00103A40A40
:10075000C7F34007CDE905A003934146CDF81090BB
:1007600002970195009406F00F03C6F307120448A0
:1007700001F028FB08B0BDE8F08700BF1C300D4039
:10078000A45720002DE9F84300F096F810490246DE
:10079000D1E90045AC46A04238BF05F1010C6346E3
:1007A000C1E900230B48D0E90089B8EB040169EBEB
:1007B00005048E1844EB0C07C0E9006701F0D0FF78
:1007C00018B1BDE8F84301F04FBFBDE8F88300BFA2
:1007D000480100204001002047F61122E0210C4B87
:1007E0005A600C4A82F82310002207219A6019608F
:1007F00009490B6843F001030B60084B1A6004229F
:1008000043F80C2C012243F8082C1F22DA627047AF
:1008100010E000E000ED00E008200D400C00034077
:10082000034BD3E90023500940EAC360704700BF7F
:1008300048010020054B186053F81C2C1C3B42F06B
:1008400001021A601A68D207FCD4704728000340DE
:1008500010B5064C236823F001032360FFF792FFD5
:10086000236843F00103236010BD00BF10E000E0E7
:1008700038B500F021F80123094C0A4DA370A86097
:10088000FFF780FFA3784BB100F016F8064AA9687D
:1008900093685B1A034493600023A37038BD00BFC4
:1008A000B00F0020BC0F00207C0F0020014B186807
:1008B000704700BF7C010020064B18685A68083357
:1008C0001B681B0443EA0223034A0343106843EAFC
:1008D0000060704740500D404C500D40014608B537
:1008E000104A1368DB07FCD572B6FFF7E5FF0B1A59
:1008F000062BD8BFC11D0C4B0A0E1A60C1F307426C
:1009000043F8042CC1F3072243F8082CCAB243F879
:100910000C2C62B64FF40032044B1960044B1A6180
:1009200008BD00BF50500D404C500D407C010020D0
:1009300000E100E070B501F0E9F8FFF7BDFF012329
:1009400000254FF400320C4C0C4EA3700C4BB060E1
:100950001D600C4BC3F89021C3F8902002F0E2F820
:10096000A37843B1FFF7A8FF074AB1689368A57061
:100970005B1A0344936070BDB00F0020BC0F0020D1
:100980007C01002000E100E07C0F0020064B1B688A
:100990001B075FBF054B186880F00800C0F3C0005C
:1009A00048BF0020704700BF18C0004018D000406A
:1009B0002DE9F0410746FFF77FFF01231D4D1E4A39
:1009C000AB702C2303FB07234FF6BF721B4EDC6872
:1009D000B060236C626413F050021BD0DFF86480B7
:1009E000A369DB060DD5AB784BB1FFF765FF144A61
:1009F000B16893685B1A034493600023AB70BDE851
:100A0000F08158F827301BB12068C0B29847E7E75B
:100A10002368E5E713F4D06FE5D04FF44073236308
:100A2000FF236360E36AE262E362236B43F0010346
:100A30002363D8E7B00F0020D0542000BC0F002063
:100A40007C0F0020800100202DE9F04F0128064690
:100A500085B000F2B4802C2545435A4F7C1994F997
:100A60002090B9F1000FC0F2AA8094F922B0BBF136
:100A7000000FC0F2A4804FF00008534801F014F9B1
:100A8000524978590A6894F921A002430A604A68D9
:100A90006068E56802434A608A68A06894F9233078
:100AA00002438A6022690AEBC901C5F8C88F116048
:100AB00094F823105FFA8BF0227D0193CDE90201B7
:100AC00000F0A6F9DDE90201082200F097F9012300
:100AD0003F494FEA0B32019852F801C003FA00FB7C
:100AE0004BEA0C0050504FEA093959F8012003FA3B
:100AF0000AFA4AEA020249F801205022AA63AA6BC4
:100B000094F9240042F4D062AA6302226A634FF48B
:100B100040722A63A26940456A62E269AA624FF0A4
:100B20007002EA620D4614DB94F92510294A41EA65
:100B3000C0041460020354598B4023435351C9B27B
:100B40004246C0B200F05AF9234A136843F4004306
:100B500013602C2303FB067393F92640002C1BDB48
:100B600093F827905FFA84F801224946404693F9AA
:100B700027A000F04DF901232403625903FA0AF378
:100B80001343635108224946404600F037F9124AA0
:100B9000136843F4804313602C2000FB0676F26850
:100BA000136B43F001031363012296F828305909AF
:100BB00003F01F0302FA03F3084A42F8213005B09C
:100BC000BDE8F08FD05420008D09200028200D4072
:100BD00020940D4004410D4030D0004000E100E081
:100BE00001289CBF014B43F8201070478001002072
:100BF000012808D82C22044B02FB0030C3689A69F4
:100C00009206FCD419607047D05420000022014B9A
:100C10001A60704700500D400822014B1A6070475F
:100C200000500D40A022024B1A6050221A607047FB
:100C300000500D40014A024B9A60704700002000AE
:100C400000ED00E0024B1868C0F38150704700BF10
:100C500004200D4008B5FFF7F5FF024B53F82000C4
:100C600008BD00BF2855200038B5164D164C2B681E
:100C7000012223F040032B602368062123F0400368
:100C80000320236000F0BAF82B68012223F08003D0
:100C90002B602368072123F080032360032000F0EA
:100CA000ADF84FF40032094B09491A60094A13465E
:100CB00010680842FCD11A685101FCD41A6852012C
:100CC000FCD538BD20C40D4000C40D4000200D40AF
:100CD0000000010104200D40034B04481B6803F091
:100CE00007031841704700BF04200D400048E80189
:100CF000034B04481B68C3F302231841704700BF2D
:100D000004200D400048E801024B02EBC10243F809
:100D10002200704788010020F8B507460D460024E0
:100D2000084E06EB411647FA04F3DB07E1B204D59F
:100D300056F824300BB1284698470134082CF2D1DC
:100D4000F8BD00BF880100202DE9F84F054600F0EE
:100D5000DDFEFFF7B1FD0123174FDFF86C80BB709C
:100D6000DFF868A0154BC8F808002E0356F803906A
:100D700056F80A404FEAC50B24FA0BF449EA04007E
:100D80002946C0B2FFF7C8FFE4B20D4A5FFA89F303
:100D900004FA0BF4B35046F80A40BB7853B1FFF79E
:100DA0008BFD084AD8F8081093685B1A03449360D7
:100DB0000023BB70BDE8F88FB00F002018940D40E1
:100DC0001C940D407C0F0020BC0F002018970D4094
:100DD00080220021014803F0D9BD00BF8801002016
:100DE000034B044A1A60044B803A1A60704700BFF4
:100DF0000802002080400D400C020020034B01EB54
:100E0000C0011B6843F82120704700BF0802002082
:100E1000034B01EBC0011B6843F82120704700BF62
:100E20000C0200200E2870B506460BD1134B1C682F
:100E300044F0020018601248056825F03F0343F0B3
:100E4000010303600F48036823F0FF031A431143B3
:100E500031430D4A016013681B06FCD50B4B0C4A4D
:100E60001B68106803F0FC0343EA00230E2E18B23F
:100E700001BF034B1D60014B1C6070BD3400014479
:100E8000F486084008700D4000700D400C700D4055
:100E900010700D40024B1868B0FA80F0400970479E
:100EA00000B7084070B5FFF707FD01224FF400417D
:100EB0000F4C104EA270104A104DB060C2F8901145
:100EC000C2F89010286850B9FFF7F6FC0C4AB168D8
:100ED00093685B1A034493600023A37070BD01F014
:100EE00015FE00232B60A378002BF7D0ECE700BFA2
:100EF000B00F0020BC0F002000E100E01002002035
:100F00007C0F0020064A136843F002031360536805
:100F100043F002035360936843F002039360704709
:100F200048200D4007B50C4800F0BEFEFFF7EAFF71
:100F30000A4B1A6842F002021A6000220192019ADA
:100F40000F2A06DD1A6822F002021A6003B05DF86B
:100F500004FB019A0132F1E7950E200054200D4068
:100F6000064A136823F002031360536823F0020358
:100F70005360936823F002039360704748200D404C
:100F8000044B186800F02200A0F120035842584199
:100F9000704700BF4C860840024B186800F04000C4
:100FA000704700BF4C86084008B50B4B93F90020F2
:100FB000002A09DBED21094A11601160E32111606B
:100FC0001A7862F07F021A70FFF776FC044BD86142
:100FD0000120044BD87108BD480E00203888084015
:100FE000BC0F0020B00F002038B505460C46134A50
:100FF00013689B07FCD4124B93F90030002B01DBE4
:10100000FFF7D2FFEE220F4B691E1A601A60A21C76
:1010100043F8102C2144022000F0CEFC0A49013C88
:1010200041EA0411022000F0D9FC022000F0E0FCAB
:10103000022000F0F5FC002038BD00BF4C860840BF
:10104000480E00203888084002C001C0204B1870AC
:10105000002832D01F4A13681B03FCD51E4B1A68A8
:1010600042F002021A601A6842F001021A601A681D
:101070005007FCD51A6822F001021A601A6851075D
:10108000FCD41A6842F002021A601A6842F00102A7
:101090001A601A685207FCD5104A136823F004033B
:1010A0001360D2F8A83123F00403C2F8A8314FF43A
:1010B00000520B4BC3F890207047084A136843F066
:1010C000040313604FF40052054B1A61704700BFD0
:1010D000470E002004200D40048808408C860840FC
:1010E00000E100E00B280DD1082A0DD161B1074BBA
:1010F000074A083111F8010D43F8040B9342F9D166
:10110000002070470120704702207047A8850840E2
:10111000C885084070B52F4E0246306810F0400078
:1011200008D02D4D2868040605D5ED2200202B4B54
:101130001A601A6070BDC0B20428F6D9023888421D
:10114000F3DCC4B2032C1ED12B6813702B685370D0
:101150002B6893702968224B493949B219702B6862
:10116000204D18062B70E0D589B2042002F050F90A
:101170002978032001F07F0102F04AF91A4B1B780D
:10118000CBB12046D6E711190320013900F01CFC31
:10119000164B611E032043EA011100F01FFC0320DF
:1011A00000F026FC032000F03BFC032000F044FC90
:1011B0000028FAD1CEE733685A06E2D533681B0619
:1011C00003D50B4801F0A2FCDBE7ED22034B1A60CC
:1011D0001A60D6E74C8608402888084038880840BE
:1011E000490E0020460E0020470E002002C0010CD0
:1011F0005000002010B5134B1A689207FCD41B68EE
:101200005B065FBFED22104B1A601A600F4B1B6824
:1012100013B1EF220C4B1A600D4A0E4C137803F0F9
:101220007F031370E37953B1FFF746FB0A4A0B497A
:10123000D369C9695B1A0344D3610023E3710120B8
:1012400010BD00BF4C860840388808402C860840F6
:10125000480E0020B00F00207C0F0020BC0F0020A3
:1012600038B5A0F10B05EBB20F2B044613D80B4B8E
:101270001B6813F03F0302D0FFF7BCFF0123084AAD
:1012800005EB85050B3515600BB1FFF78DFE054BA2
:1012900060B21C7038BD4FF0FF30FBE74886084055
:1012A0003C8608403C01002010B50C4607285FD85A
:1012B000DFE800F0040F1A2124404659012903D128
:1012C000FFF772FE00203AE0002953D1FFF792FFAA
:1012D000F8E7A1F10B030F2B4CD8C8B2FFF7C0FF02
:1012E0000130EFD103202AE0234BCAB2C4F3072414
:1012F0001A605C60E6E7214BCAB2F7E731F00703FA
:1013000038D11F4B11F0010F1A68C1F3800014BFD0
:1013100042F0010222F001021A601A4B11F0020F92
:101320001A6814BF42F0200222F020021A60FFF770
:101330008DFEC7E731F001001CD1134B197010BDB1
:1013400001F118031F2B15D80D23104A52F8331042
:101350008C4205DC02EBC3031A790D4B1A60B1E72E
:10136000013BF3D2AEE70B4BCCB249341C60A9E78A
:101370000120E4E70220E2E7C8850840D085084064
:1013800000860840248608403D010020705520005A
:10139000408608405886084038B50C46002900F0C1
:1013A0008680102800F28580DFE800F009101B22FB
:1013B000243B44575C727683837B7D547F003E4B95
:1013C0001B68003B18BF0123236024E005223B4B30
:1013D0001B6803F07F030B3B93FBF2F30B33DBB291
:1013E000F2E7374B1A68043B1B6843EA0223EBE73A
:1013F000344BF7E700230B60334B344A1B6803F090
:1014000001030B601268900644BF43F002030B60B7
:101410002F4B1B780BB900200BE00B6843F0040343
:10142000D2E700202B4B08601B78002BF3D0012360
:101430000B6038BD284B29491A680023D2B201EB52
:10144000C3000079904202D851F83330BCE7013331
:101450000E2BF4D16FF01703B6E7214B1B685BB27C
:10146000493BB1E71F4B1B6899060FD1FFF79CFD65
:1014700001231D490A68D207FCD51C4A1568493D5D
:101480006DB20BB1FFF7B6FE2560C4E70023F0E7AD
:10149000174B93F9003097E7164B1B7803F07F0347
:1014A00092E70B2390E71A238EE707238CE70220AD
:1014B000BFE70120BDE700BF2C8608403C860840FE
:1014C000CC850840D4850840008608402486084022
:1014D000470E00203D010020408608407055200046
:1014E0005886084048860840648608406086084060
:1014F000490E0020460E002010B50B4B1B689906C4
:101500000FD1FFF751FD012308490A68D207FCD526
:10151000074A1468C4F300140BB1FFF76BFE2046B2
:1015200010BD0023F0E700BF4886084064860840ED
:101530004C8608402DE9F843374B93F90030002BD7
:101540001BDBFFF7B9F90446FFF72EFDC4F1FF24BA
:1015500004F57F04F634FFF7AFF9C442FBD44FF033
:1015600001082E4B1B785BB92D4E346814F0200413
:101570000BD002242046BDE8F8834FF00008F0E7C6
:10158000FFF7BAFF0028EFD1F3E7264D264FEB799E
:1015900043B1FFF791F9254AF969D369EC715B1AF8
:1015A0000344D361FFF788F90123AB71E9234FF0BE
:1015B00004091F4CB861236033689A0704D409F109
:1015C000FF3919F0FF091DD133689B071ED4EE23A4
:1015D000236023600124AB794BB1FFF76DF9134A07
:1015E000B96993695B1A034493610023AB71FFF7F8
:1015F00063F90123F861EB71B8F1000FBAD0FFF77E
:10160000F9FDB7E70620FFF715F9D5E7346814F0C0
:101610000204FBD1DFE700BF480E00203D0100209F
:101620004C860840B00F0020BC0F00207C0F00202B
:10163000388808400B282DE9F0470C460FD1082ABE
:1016400079D1002977D03D4B3D4A4C1E53F80419FF
:10165000934204F8011FF9D10020BDE8F0870C285F
:1016600067D1042A67D1002965D0364B36491A68FC
:10167000DFF8E48022F007021A600A68334F42F074
:1016800008020A60D8F800003A681D68DFF8CCE06C
:10169000DFF8CCC025F070051D60DEF80050DCF8E6
:1016A0000060C0B2120240EA066092B202434FEA02
:1016B0000549274809F47F09D0F800A042EA090645
:1016C0001A685FFA8AF522F0070242F001021A60F6
:1016D0000A6842F008020A60D8F800203F681968DA
:1016E00021F0700141F010011960DEF80010DCF803
:1016F00000C0D3B23A0243EA0C6392B213430A0425
:10170000016802F47F0243EA02085FFA81F9FFF7F9
:10171000D3F8B6EB080165EB0905ED030746002396
:10172000C8030C4A45EA514102F010FF3F1A2760F6
:1017300092E7012091E702208FE700BFC4850840AF
:10174000A48508401088084004880840188808408C
:101750001C8808400048E801148808402488084094
:1017600020880840F8B52D4F3D7815F0010552D17D
:101770000124F8222A4B7F261C605C609C60A3F544
:101780009323A3F514731A600922C3F8902115223C
:101790001A670B22703303F59B23C3F83C214022C8
:1017A00003F59E73A3F59B23A3F5F0731A601A68E3
:1017B00042F020021A60D52243F81C5CDE62DA6136
:1017C000184B1878FFF74CFD4FF48042164B02205F
:1017D0001E60164B1A6100F017F91549022000F03F
:1017E000F3F8032000F010F91149032000F0E4F8A9
:1017F000104B1878FFF72AFC29460F4801F06EF9C4
:101800003B7823433B70FFF757F80C4BD8612046D9
:101810000B4BDC71F8BD0020FCE700BF480E002038
:10182000A8200D403C0100209486084000E100E023
:1018300028880840470E002050000020BC0F0020E0
:10184000B00F002038B50388044653B340F203427A
:10185000934233D11B4B18781A4638BB822923D1C7
:10186000137873B901F086FD01F012FD8021FFF7B6
:1018700051FC002805DD80B201F0CAFC124B1B6947
:101880009847124B1A7852060BD500221A70104B4B
:101890001D68FFF7AFFCFFF765FFAB0601D0FFF750
:1018A00083FB40F20343238001200AE01B78002BD6
:1018B000FAD0064B1B785806F6D5CFE700230380F5
:1018C000032038BD470E002058562000480E002047
:1018D0004886084070B5FEF7EFFF01220C4C0D4E14
:1018E000A2700D4AB060127812B90C4801F00EF9DE
:1018F00000250B4B1D60A37843B1FEF7DDFF094ABD
:10190000B1689368A5705B1A0344936070BD00BF13
:10191000B00F0020BC0F0020470E00205000002018
:10192000348808407C0F002070B5FEF7C5FF012306
:1019300000260E4C0E4DA3700E4BA8601A680E4880
:10194000042A1FBF0D490A7842F040020A701E6047
:1019500001F0DCF8A37843B1FEF7AEFF084AA968AE
:101960009368A6705B1A0344936070BDB00F0020AB
:10197000BC0F00202C88084050000020480E00209A
:101980007C0F002008B5094B40220021184602F0C8
:10199000FDFF0121064A074B116050604FF4804261
:1019A0005A604FF400425A6008BD00BF000000209A
:1019B00004F00F4000E100E003289EBF014B00014E
:1019C000195070470000002003289EBF024B03EB14
:1019D00000104160704700BF0000002003289EBF38
:1019E000024B03EB00108160704700BF0000002035
:1019F000032806D80123034A03FA00F011680843BC
:101A00001060704728F00F40032806D80123034ACE
:101A100003FA00F0116808431060704720F00F408F
:101A2000032806D80123034A03FA00F0116808438B
:101A30001060704714F00F4003289FBF044B03EB66
:101A40000010806800F0070088BF0020704700BFCA
:101A5000000000204FF0FF32014B1A60704700BFBA
:101A600004F50F400122014B1A6070474CF00F4003
:101A7000094B19461A68D002FCD4084B1A6822F4A4
:101A800080321A600A68D203FCD41968044A0A40FA
:101A900042F400321A60704704200D4000200D40CF
:101AA000F8F8FDFF70B5154CFEF706FF2378144DCE
:101AB0003BB1144A296813685B1A0344136000237E
:101AC00023700123104E686031680220637000F0BB
:101AD00087FD30BF022000F067FD3060FEF7ECFEAE
:101AE00063783BB1074A696853685B1A03445360E3
:101AF0000023637001232860237070BDB00F0020A5
:101B0000BC0F00207C0F00201402002070B5144C84
:101B10002268900722D0134B1A4619684901FCD459
:101B200013685B01FCD50025FEF792FEFFF7A0FFCE
:101B30000220256000F038FD0B4B1860FEF7BCFE5C
:101B40000A4B0B495A7832B10A4C4E6862685D7094
:101B5000921B02446260012208601A7070BD00BFCF
:101B600058200D4004200D4014020020B00F00202A
:101B7000BC0F00207C0F00202DE9F0413F4B1C687A
:101B800014F03F0432D13E4D55F8043B23B1984741
:101B900060B30134052CF7D13A4D2B7833B3FEF7FF
:101BA00085FE0446FEF788FE201A09281ED9ECB1EE
:101BB000354A364B11680B4043F4807343F0010300
:101BC0001360334B19461868C002FCD4136843F401
:101BD000803313600B68DB03FCD5FEF76DFE241A1F
:101BE000092C07D8BDE8F041FFF742BFBDE8F0413E
:101BF000FFF758BF632C274F2FD92B78022B2CD1FE
:101C0000254E3B60254C0220316800F0E9FCFEF7D0
:101C100053FE2378224D3BB1224A296813685B1A90
:101C2000034413600023237001236860637000F095
:101C300023FFA0B14FF00008FFF71AFF0220C7F8FA
:101C4000008000F0B1FC3060FEF736FE637863B9C7
:101C5000012328602370BDE8F0810123D0E7FEF75F
:101C600025FE0028E6D030BFF5E70E4A69685368C4
:101C700084F801805B1A03445360E9E74886084012
:101C8000180200204A0E002000200D40FEFEFDFF3D
:101C900004200D4058200D4014020020B00F0020F9
:101CA000BC0F00207C0F0020074A10B5002314460B
:101CB00052F8041B814202D011B944F8230010BD30
:101CC0000133052BF4D1FAE7180200200022054B5E
:101CD00005491A600B6943F004030B61034B1A704A
:101CE000704700BF58200D4000ED00E04A0E002074
:101CF00070B5FEF7E1FD01224FF480310F4C104E1C
:101D0000A270104A104DB060C2F89011C2F8901045
:101D1000286850B9FEF7D0FD0C4AB16893685B1A89
:101D2000034493600023A37070BD00F0EFFE002316
:101D30002B60A378002BF7D0ECE700BFB00F00209A
:101D4000BC0F002000E100E02C0200207C0F0020EE
:101D500070B5184B1A78431E52B101F52011164A7E
:101D6000273191421AD011F8010903F8010FF8E761
:101D7000124A1278122AF0D1114A12784B2AECD169
:101D80004C0804F520120C4D2732AA4207D100233B
:101D900001F5201120442731A34205DB70BD12F864
:101DA000016903F8016FF0E7CA1A1278013300F8ED
:101DB000012BF1E72B002800270028002A0028002B
:101DC000290028000FB407B504AA52F8041B0448E0
:101DD000019200F021F803B05DF804EB04B0704705
:101DE0006000002070B505460C460A4E102C07D83E
:101DF00074B122462B6868680649BDE870401847F0
:101E0000102231462B686868984710B9103CEDE7FE
:101E1000204670BDC45820002DE9F04F07461546F6
:101E200000268FB00791079B1B78002B00F09C8346
:101E3000079B1A781C460133002A00F08583252A67
:101E4000F7D1079B9C4205D081E323784644002BC1
:101E500000F08A836278631C002A00F085830024E6
:101E6000184610F8012B19462B2A17D00BD8202A18
:101E700017D0232A18D0A2F1310CBCF1080F3FD89B
:101E80004FF0000A18E02D2A04D0302AF3D144F094
:101E9000100401E044F001040346E1E744F00604C5
:101EA000FAE744F00204F7E744F00804F4E70A21F3
:101EB00001FB0A2AAAF1300A194613F8012BA2F1F4
:101EC00030000928F3D90B782E2B37D14A784B1CD8
:101ED000A2F13000092829D84FF000081A781946D5
:101EE000A2F13000092803F1010319D90B786C2BFA
:101EF0006FD14B786C2B24D144F08004023123E065
:101F00002A2A0AD1D5F800A00146BAF1000F05F13E
:101F10000405B8BF44F00104D5E74FF0000AD2E74A
:101F20000A2101FB0828A8F13008D7E72A2A04D1A2
:101F3000D5F8008002310435D8E719464FF0FF3854
:101F4000D4E7013144F060040B78782B0CD8572B80
:101F50004BD8472B08D8402B00F29080002B00F084
:101F60000383252B00F0D3804B1C079304F4E0631C
:101F7000B3F5A06F00F0C98200F2CC80B3F5407FCA
:101F800000F07282B3F5806F00F03682B3F5807F87
:101F90007FF449AFB8F1000FACBF24F010044FF04C
:101FA000010814F4005204F0E003069200F0EA8005
:101FB000402B00F0E08000F2C280002B00F0DE80B9
:101FC000202B00F0C78000220023CDE9002300234E
:101FD000CFE0682BB8D14B78682B02D144F02004B5
:101FE0008CE7013144F04004AEE7583B202BBBD8CE
:101FF00001A252F823F000BFC1202000691F200079
:10200000691F2000691F2000691F2000691F200030
:10201000691F2000691F2000691F2000EB2020009D
:10202000691F2000F7202000A9202000D3202000D5
:10203000C7202000DF202000691F2000A9202000E9
:10204000691F2000691F2000691F2000691F2000F0
:1020500009212000B520200003212000691F200055
:10206000691F2000FD202000691F2000AF202000F4
:10207000691F2000691F2000BB202000413B062B68
:102080003FF672AF01A252F823F000BFF12020000A
:10209000691F2000691F2000691F2000D92020002F
:1020A000CD202000E520200044F424545CE744F4D3
:1020B000106459E744F4885456E744F4C85453E78D
:1020C00044F4B24450E744F400744DE744F48444CB
:1020D0004AE744F4024447E744F4424444E744F402
:1020E000813441E744F4A1343EE744F4C1343BE792
:1020F00044F4E13438E744F4A06435E744F4806400
:1021000032E744F440742FE744F4E0642CE744F4ED
:10211000C06429E7B3F5C06F07D0B3F5E06F7FF473
:1021200082AE2B6804351E607DE601223B68A9491A
:1021300078689847002840F01582013673E6602BD6
:102140001CD0802B7FF43FAF073525F00705F5E85D
:10215000022303E095F90020D3170435002A73F118
:102160000001BFF632AF524263EB4303CDE90023D7
:102170000123039317E0B5F90020EDE72A68043541
:10218000D317EBE7402B00F0B08000F29A80002BD1
:1021900000F0AD80202B00F0A180069B002203936D
:1021A0000023CDE9002304F4C053B3F5805F00F0B1
:1021B000D580B3F5C05F00F0D680B3F5006F00F0B6
:1021C000B78000230DF1360B0493049B41F2080203
:1021D000984588BFA8EB030841F6080304EA030109
:1021E00098BF4FF0000891421A4604D1B8F1010F90
:1021F00038BF4FF00108049B914203EB080040F008
:10220000CC80DDE90023134300F0C780724914F449
:10221000804F724B4FF0020918BF0B46069A72B1FD
:10222000039A002A40F0BD8004F00602022A00F062
:10223000BC80062A6A4A04BF4FF00109134609EB25
:102240000002924594BF4FF0000AAAEB020A14F074
:102250000102009204D1E10640F1AB80D0449246E5
:10226000B9F1000F07D04A4619463C687868A04784
:10227000002840F077814446049B1E44102C5949A5
:10228000D7E9003000F29F802CB12246554998478B
:10229000002840F0678159463B68049A78684E44AC
:1022A0009847002840F05E81009B4644002B00F0D8
:1022B000D48051463846FFF795FD002800F0CD80C8
:1022C00050E1602B13D0802B7FF467AF073525F0EA
:1022D0000705F5E80223CDE9002304E02A7800236E
:1022E000CDE900230435069B43E72A88F7E72B68EE
:1022F000002219460435CDE90012F4E7DDE90401B6
:102300000A22002302F022F9DDE9040130320BF841
:10231000012D00230A2202F019F9CDE90401DDE9BB
:1023200004231343EAD10DF13603A3EB0B034BE770
:10233000DDE900230DF1360BCDE90423EFE702F0D0
:10234000070130310BF8011DD10841EA4371D8086B
:102350000A46034652EA0301F1D1E4E70DF1360BD8
:10236000DDE90023F6E7204B14F4804F0DF1360B26
:102370001E4908BF1946DDE9002352EA0300D2D006
:1023800002F00F00085C4FEA131C0BF8010D100956
:1023900040EA037002466346EFE74FF000094B4600
:1023A0003CE74FF00109124B49E74FF00109114B8F
:1023B00045E7514638460393FFF714FD039B002879
:1023C0003FF44EAFCEE010229847002840F0CA807C
:1023D000103C53E7C2582000B1582000B4582000E8
:1023E000B9582000D4582000A05820008F58200051
:1023F000B758200094572000D5F800900435B9F163
:10240000000F2CD04B469B469BF800200133002A3E
:10241000F9D1ABEB090BB8F1000F02DBC34528BFC4
:10242000C346DA4594BF4FF0000AAAEB0B0A14F03A
:10243000010406D151463846FFF7D4FC002840F08D
:1024400091805A4649463B6878689847002840F092
:1024500089805E44002C7FF42CAF5644E3E44FF0B7
:10246000060BDFF81491D6E7414B424A14F4804F33
:1024700008BF9C460DF1330318BF944600211A464D
:102480002868043550EA010E30D1D21A08BF302234
:102490004FF0780104BF03F8012C03F1FF3303F878
:1024A000011C4FF0300108BF012203F8021C232158
:1024B00002F10309CA4594BF4FF0000AAAEB090ACA
:1024C00014F00104A3F1030803F8031C05D15146DD
:1024D0003846FFF787FC002844D14A4641463B680E
:1024E0007868984700283DD14E44B3E700F00F0EBE
:1024F0001CF80EE04FEA111803F801ED4FEA101E28
:102500004EEA017E70464146BCE7BAF1010F38BF82
:102510004FF0010A2B6814F0010405F104058DF851
:1025200020300AF1FF3805D141463846FFF75AFC02
:10253000C0B9464401223B68786808A9984788B921
:10254000002C8AD04146B5E6079B9C420CD0079BE5
:102550000799A4EB030842463B687868984700282F
:102560003FF473AC4FF0FF3630460FB0BDE8F08F4C
:10257000A05820008F582000BB5820000C230022B8
:1025800010B50648064C0749013B44F8042B40F8B7
:10259000042B01F8012BF7D110BD00BF7C0F0020E8
:1025A000BC0F0020B00F002038B50A4B04461B5C5E
:1025B000094D63B1FEF780F9084A55F8243052F806
:1025C000241042F824005B1A034445F8243055F8DF
:1025D000240038BDB00F00207C0F0020BC0F00206D
:1025E000014B43F8201070477C0F0020F8B50026FF
:1025F0000A4F0B4D0B4C17F8013B3BB1FEF75CF952
:102600002B68226820609B1A03442B6001360C2E35
:1026100005F1040504F10404EDD1F8BDB00F00206C
:102620007C0F0020BC0F002010B50D4C236813B99F
:102630000C4A136010BDFEF7F3F82268D2E90031AE
:102640000B441B1A92681AB91844064B1860F1E73C
:10265000D2E900142144091A8B4228BF0B46F1E746
:102660003402002030020020014800F04FBA00BFC1
:10267000680000202DE9F8430388054653B1592B23
:1026800048D1872921D1002024490B6863B918B1AA
:102690000B6001E0214A1360592301202B80BDE823
:1026A000F88301203346F1E7D3E902649442F8D07D
:1026B00000B10B6019460B4689680029ECD0C86848
:1026C0009042F8D189689960F4E78229E4D1134FE8
:1026D0004FF00009B84600263C68002CDCD02046AC
:1026E00002F08CFA98B122468821E06800F0CEF919
:1026F00058B9A368E0602EB1B360C4F80890FFF742
:1027000093FFE8E7C8F80030F7E7FFF7ADFF26468C
:10271000A468E2E7002303800320C0E7340200201E
:1027200010B50446FFF7A0FFE3680B4A0BB113682E
:1027300033B90A4B1B68E36013681460A36004E0BC
:10274000A34206D1054A1268DA60BDE81040FFF7DF
:102750006BBF9B68ECE700BF34020020BC03002085
:10276000024B1868003818BF01207047340200205F
:1027700010B50B4A04461368834208D1836813607E
:10278000FFF752FF0023C4E9023310BD1346002BAC
:10279000F8D09A68A242F9D1A2689A60F0E700BF27
:1027A00034020020F8B5038805461646CBB14A2B03
:1027B0002BD188291FD1174802F031FA0446C4B141
:1027C000231D9E421FD12146124802F032FA124EBA
:1027D000626937683260A2690AB1E0699047376080
:1027E00007E00C4802F01BFA044634B901220B4BF7
:1027F0001A704A232B8001200AE0A168201D02F0F4
:10280000D2F92468F1E72468D9E700230380032084
:10281000F8BD00BF38020020BC0300204B0E002092
:1028200010B50024054B06481C7002F0F5F921464E
:10283000BDE81040034800F051B900BF4B0E002026
:10284000380200207800002070B50446E3610B4B8D
:10285000049D1B78C4E905526BB1094D094B2E68E4
:10286000201D2B6002F09FF92E602146BDE87040CC
:10287000054802F0F1B9A160F7E700BF4B0E002058
:10288000BC030020780000203802002013B5034C60
:1028900024680094FFF7D8FF02B010BDBC030020ED
:1028A00010B5084B04461B7843B10430FFF760FFB6
:1028B0002146BDE81040044802F0BBB9C0E903332B
:1028C000F6E700BF4B0E00203802002038B58368C1
:1028D00004460D469BB10A4804600220A07304F12F
:1028E0000C0098470238012801D9832D05D12146D3
:1028F0002046BDE8384000F005B80123A37338BD79
:10290000BC0300202DE9F8431C4F04463D6888466F
:102910002B46A34204D00BB9BDE8F8831B68F8E747
:10292000002CF9D0164EA37BD6F8009063B100239B
:10293000A3738DB9A3683BB1444505D02A468321D2
:10294000346004F10C0098473B68A3420ED1236821
:102950003B60C6F80090DFE7A54204D022468721FD
:10296000284602F037F92D68E3E71346002BF0D034
:102970001A68A242F9D122681A60EAE7C00300206F
:10298000BC030020002238B50125084B1A70084B03
:102990001C6804B938BDE37B2BB10022822120469C
:1029A000E581FFF793FF2468F3E700BF4F0E002097
:1029B000C0030020024B1878421C1A70704700BFF9
:1029C0004D0E00208A22064B1A700023054A137010
:1029D000054A1370054A1360054A1360704700BF2B
:1029E0004D0E00204C0E00204E0E0020C003002093
:1029F000BC0300202DE9F0411A4D2B780BB1FFF7F5
:102A0000C1FF194C267896B10C221849184F0B7843
:102A1000013E5A430133B81803F01F03BF5C0B702B
:102A20002670D0E9018090B9124B1E6826B92B7828
:102A300020781844BDE8F0812B780BB1FFF7A2FF96
:102A400030464246394602F0C5F83668EEE7812F37
:102A500008BF01234246394608BF837302F0BAF823
:102A6000E5E700BF4F0E00204E0E00204C0E002068
:102A70003C020020C0030020024A034B10781B7860
:102A8000184470474E0E00204F0E0020F0B50B4E3C
:102A90003378202B0FD00C25094C0A4F24781C4486
:102AA00004F01F046C433D19C5E9012000200133E7
:102AB00039553370F0BD0120FCE700BF4E0E0020F9
:102AC0004C0E00203C02002038B5034C256802F073
:102AD00081F8256038BD00BFBC03002010B40A4C4B
:102AE0000A4621680B4683420CD04BB950B10160B5
:102AF00001212060817310BC81218381FFF7E4BF35
:102B00001B68F0E710BC7047C003002038B1837B1E
:102B1000013B012B9FBF0123014AC3731370704710
:102B20004F0E002010B5084C206858B100232360D8
:102B3000D0E901319847236823B1BDE810401868F7
:102B4000FDF7CCBE10BD00BFC403002070B50588E2
:102B50000446672D09D0792D2FD0002D33D1FFF7F2
:102B600029FF1B4B18701B4B1D601B4E194D08E0B5
:102B70000A282B680ED07E2B03DC5A1C2A60174AC9
:102B8000D054304602F0E8F8431CF1D1672323808B
:102B900001201BE05A1C2A600025104A2846D55403
:102BA0000B4B1978FFF772FF0D4B2A4685211868E9
:102BB000FFF76CFF18B97923E9E78529E8D10022EE
:102BC000044B1A60D1E700230380032070BD00BFCF
:102BD0002F100020C8030020CC030020500E00203E
:102BE000BC0300200D28014610B516D00C4C2378EC
:102BF00053B90C4802F09DF808B9012323700A4824
:102C0000FFF784FF012010BD0A28F8D1054802F023
:102C100090F80028F3D00023F0E70020F3E700BF8E
:102C2000D00E0020CC0300208800002008B5054904
:102C30000548802202F076F8BDE8084000210348EC
:102C4000FFF74CBFD10E0020CC03002088000020ED
:102C50002DE9F04104880546772C20D07E2C3DD00C
:102C6000002C4ED1FFF7A6FE284E294B294FDFF846
:102C7000B08018703460336857F823202AB9264A88
:102C8000137077232B8001203EE008F803409368FF
:102C9000002180209847336801333360EBE700233D
:102CA0001E4A1360194A1360184B1B4A1B6812789E
:102CB0009A4204DC194B1B68002BF0D1E1E7184A5B
:102CC000D256002A19DA134A002052F82320104B5A
:102CD0001978FFF7DBFE28B97E23D3E70C4B1B786E
:102CE0008B42D0D1094B0E491A688B5C03F07F03ED
:102CF0008B540A4A136801331360044A1368013382
:102D0000D1E7002303800320BDE8F081D803002031
:102D10003010002040000020510F0020D40300207C
:102D20002B10002010B40A4B0A4A197800238B425A
:102D300003DA52F8044BA04208D107490748CA5C9D
:102D400062F07F02CA5410BCFFF7E0BE0133EEE729
:102D5000510F0020400000202B1000209800002080
:102D6000064A136843F004031360054B18680433E4
:102D70001B6840EA032080B2704700BF00700D401E
:102D800014700D4010B5174A136823F00C0313603C
:102D90000122154B1A601A68012AFCD10822134B34
:102DA00013491A60E32203F505731A601A460B688B
:102DB000DB07FCD50F4C102100232068013900F0FF
:102DC000010043EA00034FEA43039BB2F5D1002B15
:102DD000F1D00949180A03F0FE0308600B60EF23E5
:102DE000136010BD00700D40A8200D4024860840DF
:102DF000648608409C86084014700D400378407833
:102E000040EA0320054B00FA01F1985CC2F1080288
:102E100000EA21201041C0B2704700BF15592000C0
:102E2000F8B506460A480D46174601F0F8FE044676
:102E300030B93A4629463046BDE8F84002F029B993
:102E4000A3680BB128469847204601F020FFEEE723
:102E5000DC03002038B500F0EFF80546094801F022
:102E6000DEFE044628B95DB12846BDE8384002F0D0
:102E70000BB9636803B19847204601F008FFF0E7FB
:102E800038BD00BFDC03002010B5044600F0E2F8B6
:102E900038B100F0D9F9034B034821469B689847A5
:102EA000012010BD84562000212E200070B50B4C4F
:102EB0000023616E0A4A04F13800FFF7E7FCFFF7D0
:102EC0004FFF656E0023B0FBF5F1064A01FB1501CB
:102ED00004F11800BDE87040FFF7D8BCE003002003
:102EE000E92E2000012F2000044B5A6E196E52006B
:102EF000914294BF59665A66FFF7D8BFE00300209D
:102F000010B500F037FA00F0C3F90023038004463F
:102F100000F06EF82288930008B1017B51B90233AA
:102F200098B200F075F9238873B1BDE810400748E6
:102F300000F044B8818823445980C18801329980C7
:102F4000228001F0A4FEE5E710BD00BFE0030020F1
:102F50009DF80030012B04D1024B9A6D5A66FFF7A1
:102F6000A5BF7047E0030020F8B50F4616461D4682
:102F7000064C0146064A204600F00EF8C4E91676D3
:102F800025660448BDE8F84000F02CB8E0030020B6
:102F900018562000512F200070B505460C461646E5
:102FA000044A00F08BF820466E610349BDE870408A
:102FB00002F05CB8205620002359200010B50446CA
:102FC00004491A2000F032FA2046BDE8104002F011
:102FD00059B800BF28100020014801F01DBE00BFF5
:102FE0004C040020014B1860704700BF50040020C3
:102FF000014801F014BE00BF4C0400202DE9F0414F
:1030000005460C480C46164601F009FE08B9BDE815
:10301000F0818388A34209D18768002FF7D0334617
:1030200022462946BC46BDE8F041604701F02FFE2C
:10303000ECE700BF4C040020054B10B51B68984717
:10304000044618B18188012000F0E2F9204610BD45
:103050000056200038B5064B05465B689847044685
:10306000A988012000F0D4F9201E18BF012038BD26
:1030700000562000014B9B68184700BF00562000F7
:10308000014801F0C9BD00BF540400208180014601
:10309000014801F0E1BD00BF5404002010B5044612
:1030A000054801F0BCFD00B910BD8388A342FBD0E8
:1030B00001F0EDFDF7E700BF5404002070B50546B0
:1030C0000C461646FFF7E2FF20462E610249BDE896
:1030D000704001F0CBBF00BF2759200070B50446F7
:1030E0001B200D4600F0AEF9064902F010F838B189
:1030F000A3691B6823B129462046BDE870401847E4
:1031000070BD00BF2810002070B505460C4616465D
:10311000044AFFF741FF2046AE610349BDE8704015
:1031200001F0A4BF285620002959200008B5044802
:1031300001F0B0FDBDE80840024801F0ABBD00BFA2
:10314000B4000020A800002038B50E4801F0B2FD00
:10315000054650B10C4801F0ADFD0446286030B979
:103160002946084801F0BAFD2546284638BD00F03A
:1031700097F804F1B601A4F8800004F1820000F091
:103180001FF9F2E7A8000020B400002010B50146A6
:103190000446074801F0B8FD48B12168054801F030
:1031A0009DFD2146BDE81040014801F097BD10BDCE
:1031B000A8000020B400002010B5014604460948CC
:1031C00001F0A2FD68B12468B4F88010204600F038
:1031D000E1F804F1B60104F18200BDE8104000F00E
:1031E00003B910BDA800002010B507490B88834221
:1031F00008DB064C80B222880244181A088001209D
:10320000228010BD0020FCE7980D00209A0D0020C0
:10321000014B1880704700BF980D00200048704790
:1032200078040020014B1888704700BF980D0020DB
:10323000034A044B10781B781844C0B2704700BF93
:10324000620F00209A0D00202DE9F0410C4F3A88C2
:1032500072B100240B4B0C4EB3F800800B4B1D7861
:10326000354421B2414504F1010403DB00233B80D6
:10327000BDE8F081FFF7DCFF3044435C6B54F0E7BE
:103280009A0D0020980D002078040020620F002085
:1032900008B5FFF7CDFF014B184408BD78040020A6
:1032A000F8B50C4B04461E780B4B1F88F519802D82
:1032B0000DDC3246094901F0F3FAFFF7E9FF344427
:1032C00001463A46204601F0EBFA2846F8BD0025B3
:1032D000FBE700BF620F0020980D0020780400205B
:1032E00008B5FFF7A5FF024B1B88184480B208BD44
:1032F000980D002010B50146FFF7F2FF4318802B10
:1033000012DC431E094A1BB21A44481C002B05DA82
:10331000074B187801440120197010BD12F80149BB
:10332000013B14541BB2F1E70020F6E778040020BB
:10333000620F002038B50C4D0C4C342200210C4893
:1033400001F024FB2946204601F0DEFE2946A01CA0
:1033500001F0DAFE2946201D01F0D6FE2946A01D07
:10336000BDE8384001F0D0BE9C562000EC0F002094
:10337000F40F00200023044A1380044A1380044AF7
:103380001370FFF7D7BF00BF9A0D0020980D0020E3
:10339000620F002038B50C460546FFF7EBFF802C86
:1033A00028BF802429462246034801F079FA034BBE
:1033B00020461C8038BD00BF78040020980D0020F6
:1033C00010B5074B03F1340253F8044B934240F815
:1033D000044BF9D1034A13680B6053684B6010BD6E
:1033E000F40F0020EC0F002010B5074B00F1340261
:1033F00050F8044B904243F8044BF9D10B68034A50
:1034000013604B68536010BDF40F0020EC0F0020D8
:10341000024B23F810100120704700BFF40F00206A
:10342000014B33F810007047F40F002008B5044B2F
:103430001A3803EB400001F067FE012008BD00BF11
:10344000EC0F0020024B1A3803EB4000704700BF1E
:10345000EC0F00200149024801F059BE9C562000A3
:10346000EE0F0020084B10B51B689847074B5B68B0
:103470009847074B5B689847064B5B689847BDE8E1
:103480001040054B5B6818473855200058562000FF
:10349000845620003C5620000C562000F8B5FDF75D
:1034A000BFF9114D064600242F461A20FFF7CAFF28
:1034B000294601F02CFE80B10A20FFF7B1FF0C2352
:1034C00003FB0474237A83420CD16068301AB0F590
:1034D000A04F8CBF00200120F8BD0134102C05F155
:1034E0000C05E2D10020F7E7F804002070B5184D74
:1034F00000242E461A20FFF7A5FF294601F007FEFB
:10350000013418B9102C05F10C05F3D10C23621EFF
:1035100003FB0464A4F10C057AB90A20FFF780FFCD
:103520003072FDF77DF970601A20FFF78BFFBDE860
:1035300070400146064801F0E7BD2B4654F8180DCF
:10354000013A616803C3A0682C461860E2E700BF37
:10355000F8040020014B1888704700BF3801002094
:103560002DE9F043012906468846144687B003DC5E
:10357000002007B0BDE8F08303A901F008FF03AB0A
:1035800003CB1B88206123839DF811306161002BE0
:1035900047D0B71C02AA01A903A801F0C0FD9DF8FD
:1035A0001350002D4ED0029B2BB17A7817F8023BB6
:1035B00003EB02239BB2022DA38336D13D46204666
:1035C000324901F0A1FD7B78237015F8023B63704E
:1035D0009DF81590B9F1000F4ED0019B002B38D00B
:1035E0002F466A7817F8023B03EB0223029A9BB23C
:1035F000E38302B9A383B9F1020F2ED13D462349DB
:1036000004F1080001F080FD7B78237215F8023B7D
:103610006372A81BA8EB00038045C4E90E53A7DB27
:10362000A7E7B378F71CA376B4E7032D0FD107F112
:1036300008052B46621E13F8011D9F4202F8011F68
:10364000F9D1C5E72046114901F05EFDA5833D464D
:10365000BEE7A38B2F46E383CDE7B9F1030F13D168
:1036600007F108052B4604F1080213F8011DBB42BF
:1036700002F8011BF9D1CCE7044904F1080001F07C
:1036800043FDA4F81E90C4E73D46C2E79C562000C7
:1036900030B591B00546FFF75DFF4FF6FF739842D6
:1036A00004D14FF0FF34204611B030BD402200213C
:1036B000684601F06BF9404B1A782AB901221A705A
:1036C000FFF74EFB3D4B18701420FFF7A9FE8DF855
:1036D00010001320FFF7A4FE8DF81200FFF7BAFECA
:1036E0000446002848D000238DF813308DF815309B
:1036F000002301248DF814308DF818404DB10A20B4
:10370000FFF78EFE00283FD00A20FFF789FE8DF8D4
:103710001A0002248DF81940FFF71CFFADF81C00B9
:10372000FFF798FE00283CD04FF6FF738DF8174046
:10373000ADF80030FFF70EFFADF81E001A20FFF7BE
:1037400081FE014602A801F0DFFCFFF7A1FD0E900B
:10375000FFF768FD0F90684601F08BFD0446002DD1
:10376000A1D0FFF7C7FD00289BD0FFF757FD01460A
:10377000684601F0C6FD96E70B20FFF751FE8DF875
:1037800015408DF81300B3E70C4B1A7802B91C7082
:1037900019780A204A1C1A708DF81A10FFF738FEA3
:1037A000B7E71B20FFF74EFE0146684601F0ACFC70
:1037B0008DF81740BEE700BF630F0020640F0020A4
:1037C000014BDB68184700BF84562000014B5B6942
:1037D000184700BF58562000014B9B69184700BF8F
:1037E00058562000024BD86900B10047704700BF0F
:1037F0005856200070B590F829400F4B042C2146F4
:1038000028BF04210124DB698C4005469847012824
:1038100038BF0120013C444305D0FFF7A1FAB0FBBB
:10382000F4F303FB14042B46214605F10800034A78
:10383000BDE87040FFF72AB858562000B139200083
:103840002DE9F04106461B200F46FFF7FBFD494BD3
:1038500005461A78484C22B901221A70FFF780FAFF
:10386000208023880BB90123238021880A204B1C48
:103870002380FFF7CDFD414801F0D1F9044600282F
:1038800047D13F4801F016FA0446002868D029467F
:10389000201D01F039FC002304F12C00C4E90B3099
:1038A000238501F0B9F92146344801F0D5F9206BA0
:1038B00001F0E6F9072853DC324801F0FBF9054630
:1038C000002841D0304801F0F5F9A860C0B3FFF7F7
:1038D0003BFC686080B30920D5F80880FFF7A0FDA5
:1038E00008BB082388F808300D20C8E90067FFF7F7
:1038F00097FD01282946206B1BD101F0BAF9206BF6
:1039000001F08DF9854233D12046BDE8F041FFF743
:1039100071BF2946201D01F0FAFB0028C7D12046BF
:1039200001F0B5F9AAE70920FFF77AFD88F8080049
:10393000DAE701F091F9E2E7A968134801F0CEF95E
:103940002946104801F0CAF9206B01F099F938B9FD
:1039500021460A4801F06DF92146094801F0BEF9F7
:1039600039463046BDE8F0410123042201F02FBD65
:10397000BDE8F081650F00209C0D00201806002096
:10398000CC000020D8000020C000002008B5054869
:1039900001F080F9044801F07DF9BDE808400348D2
:1039A00001F078B9D8000020C0000020CC00002031
:1039B00013B5044668B1006B01F031F9024640B11D
:1039C0002146054B0548DB68019302B0BDE8104075
:1039D000184702B010BD00BF585620005D3A2000C5
:1039E0002DE9F0470D4614468B680646D3E900786A
:1039F000106B92F8289001F01CF96868FFF7C6FB7D
:103A0000A968124801F06AF92946114801F066F9DF
:103A1000206B01F004F960B1002320462385FFF7F5
:103A2000E9FE4B46324641463846BDE8F04701F0D4
:103A3000CEBC04F10800FEF733FF2146054801F033
:103A4000F8F82146044801F049F9EAE7C0000020EF
:103A5000D800002018060020CC0000202DE9F041FD
:103A60000E461746044620B1006B01F0D8F8054613
:103A700008B9BDE8F0810A21686801F03FFB804683
:103A80000A20FFF7CDFC804546D0284601F0FFF81C
:103A9000EDE794F8282000203A4484F828202946AD
:103AA000224684F82900BDE8F041FFF799BF0023C2
:103AB00084F8293094F82830DA19D2B284F8282012
:103AC0000B7A93421CD8224629460220EBE794F851
:103AD0002930DA19D2B2052A84F8292007D9002220
:103AE00094F8283084F82920013384F8283094F899
:103AF00028200B7A9A4203D3224629460120D2E796
:103B00002046FFF777FE6868BDE8F04101F0F0BAA3
:103B1000224629463046C6E7A9680029A9D0032EC7
:103B2000F6D801A353F826F0933A2000CF3A2000AC
:103B3000AF3A2000733A2000014B1B6A184700BFC0
:103B4000385520002DE9FF4B804689461A203F4911
:103B5000FFF76CFC01210B20FFF75AFC3C4B5B6824
:103B60009847002870DBFFF759FB3A4D90F802B0F8
:103B70006C68FFF753FB0646FFF7B2FB0146304681
:103B8000A047FFF767FCAF690646B847044610B187
:103B9000012200240CE0A6B1AB680193FFF7A0FB63
:103BA000019B9847024688B1022814BF04220122D3
:103BB00040460123494601F00AFC204604B0BDE816
:103BC000F08BEB6998470028E2D1E5E7002E39D168
:103BD000FCF772FE0446FDF725F8C4F1FF2404F556
:103BE0007F04F334FCF768FEC442FBD4B847EE69A7
:103BF000E8B1FCF761FE0446FDF714F8C4F1FF24B8
:103C000004F57F04EB34FCF757FEC442FBD4B04705
:103C10000446A0B103212B6903A89847032803D1C8
:103C20009DF80E305B450CD000240122C0E7B04760
:103C300004460028DDD16B6998470028D9D00222BC
:103C4000B6E700220124B3E70522A2E728100020EE
:103C50007856200038552000044B82B018B11B6AFA
:103C6000019302B018475B6AFAE700BF385520009D
:103C700007B5FFF7D7FA03281BD00F4B9B6898476F
:103C8000002816DB1B20FFF7DDFB0C4901F03FFA93
:103C900058B1FFF703FC60B9FFF728FC084BDB685D
:103CA000019303B05DF804EB1847FFF7D3FB00283E
:103CB000EFD103B05DF804FB7856200028100020F7
:103CC0003C56200008B5024B1B689847023008BDDF
:103CD0003056200038B50C4B9B689847041E02DA1A
:103CE0004FF0FF3038BDFFF7D3FA03780546002BBD
:103CF000F6D10220FFF778FA0028F1D06878FFF7B4
:103D000087FAA01CEEE700BF3056200070B50220F5
:103D1000FFF7F0FA10B94FF0FF3070BDFFF77EFAF1
:103D2000002606700446FFF77DFA6070FFF7D8FAA8
:103D30000446FFF7C7FF20442A2812DCC0F12B00FD
:103D4000C4B2FFF7A5FA0546FFF76CFA22463146E2
:103D5000284400F01BFEFFF765FA204480B2FFF70D
:103D600057FA044B5B689847041ED4DBFFF76CFAE4
:103D7000A01CD2E730562000014B9B68184700BFBB
:103D80000C56200070B504460D4614200121FFF7A3
:103D90003FFB034B29462046BDE870409B6818470F
:103DA0003C56200070B503880446422B24D05B2B80
:103DB00055D083BB2E4E4FF480612E48FEF702F89B
:103DC00000F0BEFB00F010FB31462B4801F09FF9DC
:103DD0002A4B0546727831781B8800B32848FDF7D6
:103DE000F1FF4FF40061274800F0DDFE1020FCF7E2
:103DF000A9FB4223238003E0224800F0E6FE08B935
:103E0000012070BD1020FCF7A5FB0122AA211E4B4A
:103E10001E4800F0CBF8002303202380F1E71C4864
:103E2000FDF7D0FFAA2119482B462A4600F0BEF81C
:103E30004FF4F041134800F0B6FE164D0222294619
:103E4000124800F0DFF8298838B11348FDF7BAFFAF
:103E50002B8801332B805B23CCE71048F6E7094819
:103E600000F0B3FE0028CBD0064800F0A5FEE4E742
:103E700028100020445920003A010020420E002062
:103E800057592000E4060020F4000020F40600202A
:103E900081592000780F0020B2592000C559200018
:103EA00037B504460D46FFF7BDF9022808D0FFF7E5
:103EB000B9F90146084803B0BDE83040FDF782BFBC
:103EC000FFF7E6F962780388217800950348FDF74B
:103ED00079FF03B030BD00BFF75920000E5A200013
:103EE00010B501880446134631B9A2F85C1003F1FD
:103EF0003C00034AFEF7CAFC00230320238010BDC8
:103F0000B942200037B504460D46FFF78BF9022869
:103F100007D8FFF787F901461E48FDF753FF03B0A6
:103F200030BDFFF7B5F902888378ADF804209DF81D
:103F30000420297818488DF80630FDF743FFB4F8BF
:103F400044305BB90320FFF74FF99DF80610E36991
:103F500001311B68C9B201A89847E0E725469DF8E2
:103F6000062015F8203F01329DF80410D2B20B480C
:103F70008DF80620FDF726FFFFF78AF9BDF804202B
:103F80009DF80630294602808370204601F08BF8A8
:103F9000C5E700BF445A20006D5A2000975A200000
:103FA0000022014B1A8070473E0E0020F8B50446EF
:103FB0000D4638300E491F46164601F0A5F84FF65B
:103FC000FF73294620460B4AE3656763FEF7E4FF6B
:103FD000691C89B2084A04F11800FFF795F82146D8
:103FE00026B10648BDE8F840FEF778BD0448F9E779
:103FF0009C562000F8000020200100201001002025
:104000000001002038B5094D14462B8863B9FFF72D
:10401000C7FF2246064800F043FC214605482C8095
:10402000FDF7D0FE012038BD0020FCE73E0E002049
:104030009E0D0020B85A200073B50446FFF79AF988
:10404000FFF726F9164B17491D8804F138062A4652
:1040500000F026FC2846FFF7DBF8134B30461B88A0
:104060001249ADF8043001F052F80546A8B9032012
:10407000FFF740F9FFF7D2F8BDF8043085700380F0
:1040800094F838100A48FDF79DFE314604F11800F7
:1040900002B0BDE8704001F006B802B070BD00BFCC
:1040A0003E0E00209E0D0020281000209C5620006F
:1040B000AA5A200070B5038804466F2B0D46164699
:1040C00077D008D85B2B3DD0642B54D0EBB10023C4
:1040D0000320238035E07E2B00F08680842B00F0C7
:1040E0009480782BF3D1524800F06FFD40B3082044
:1040F000FCF730FA4F4B00205B69984747F25E416E
:104100004B4800F050FD7E2319E0FEF753FC4A4B6C
:104110001870484B1B6998471422C8214748FDF77F
:1041200051FE2020FCF70EFA454B1B7853B9454B46
:104130001B781BB9C8213E4800F035FD5B23238066
:10414000012070BD3C4B1B78AB423D4B01D01A782F
:10415000CAB13D4AF16E166000221A70336EC83142
:10416000CB1A1B21B6F85C20314801FB123100F05C
:104170001AFD6423E3E72E4800F027FD0028DFD076
:104180002020FCF7E7F9882D06D1294800F01DFD15
:1041900010B12020FCF7DEF900221421294B24481D
:1041A0001A702A4B1B88023B594300F0FCFC6F231A
:1041B000C5E71F4800F009FD0028C1D00820FCF722
:1041C000C1F9214B1868FFF737FFFFF7E9FE1F4BD6
:1041D000174819888B1E6FF01301594301F52F7191
:1041E00000F0E1FC7823AAE7114800F0EEFC00287B
:1041F000A6D0104B1B6998471E210D4800F0D3FC38
:104200001020FCF79FF9842399E7882907D10848F3
:1042100000F0DBFC18B11020FCF79CF981E7064B9D
:104220001B78AB427FF47DAF0122054B1A70F2E799
:104230006C0700203C56200031100020CC5A200092
:104240007A0F00203E01002068070020420E002067
:104250002DE9F043B0F85E3085B0ADF80830B0F825
:104260005C300446ADF80A3003B1836E0393FFF768
:1042700081F808210DEB0100FFF78CF8B4F85E809F
:10428000B4F85C90FCF7CCFA0746FCF7C9FA236F48
:10429000266E85B21E44B6B2AD1B4A464146BBB23D
:1042A00000950448FDF78EFD2046FEF787FE05B019
:1042B000BDE8F083F05A200010B50446FFF7C8FFB0
:1042C000B4F85C3073B9B4F85E3004F13C000133EB
:1042D000A4F85E304FF4F0412346BDE81040024A96
:1042E000FEF7D4BA10BD00BFB94220002DE9F04F4F
:1042F00085B004460D46FEF795FF082805D03448E2
:1043000005B0BDE8F04F00F0F7BBFEF7C1FFB0F815
:104310000090478846680420FFF782F895F800A0CF
:104320000FFA80F895F801B0FCF77AFA80B2CDE97F
:1043300001804B465A46514626480097FDF742FDFC
:1043400018F15E0F41DBB4F85C3001379F4203DBAC
:10435000B4F85E304B4538D2294604F13800A4F851
:104360005E90A4F85C7000F0CFFEFEF7F9FCC0F39D
:1043700009053220B5FBF0F52567FCF751FAAB19BA
:104380002066A366831B2844E366B6B280B29BB264
:10439000B4F85E2094F8381001900093CDE90256ED
:1043A000B4F85C300C48FDF70DFD0C4B2246197833
:1043B0000B48FEF76BFB234629460A4A04F13C00F2
:1043C00005B0BDE8F04FFEF761BA05B0BDE8F08F6B
:1043D000295B2000495B20008D5B2000311000200C
:1043E00000010020B942200008B5FEF7FFF80020C8
:1043F000FEF7DAF80B4B18600120FEF7D5F80A4BF0
:1044000018600620FEF7D0F8084B18600720FEF76A
:10441000CBF8074B00211860BDE808400548FEF7BF
:104420005DBB00BF880700208C0700209407002098
:1044300090070020280100202DE9F347FEF7D6F869
:104440000020FEF7B1F81A4E1A4D30600120FEF739
:10445000ABF828600620FEF7A7F8174C206007206D
:10446000FEF7A2F83268154E2B682768144D3468A1
:104470001449A7EB040A2C682860041B1248DFF8D3
:1044800050E0D1F800900B600188DEF800804D1CF0
:10449000CEF8002005803760A3EB0903CDE900A426
:1044A000A2EB08020948FDF78DFC02B0BDE8F087D9
:1044B0007C0700208007002084070020940700204C
:1044C000900700208C070020400E0020F55B2000A4
:1044D0008807002010B5038804462BB16D2B0AD045
:1044E00000230380032010BD4FF47051074800F0F3
:1044F0005AFB6D232380054800F067FB0028F2D0AB
:10450000024800F059FBFFF797FFF2E798070020F9
:1045100010B4084B197809B910BC70475C88028840
:10452000944205D1044B0548198010BCFDF74ABCE4
:104530000433EFE79E562000420E0020245C20004A
:104540000148FFF7E5BF00BF2810002053B94AB962
:10455000002908BF00281CBF4FF0FF314FF0FF308B
:1045600000F06EB9ADF1080C6DE904CE00F006F86C
:10457000DDF804E0DDE9022304B070472DE9F047DF
:10458000089E0D4604468E46002B40F083808A42EA
:10459000174647D9B2FA82F34BB1C3F1200105FAAD
:1045A00003FE20FA01F19F4041EA0E0E9C404FEAC3
:1045B0001748BEFBF8FC1FFA87F908FB1CE20CFB4E
:1045C00009F0210C41EA024290420AD9BA180CF1D2
:1045D000FF3180F01881904240F21581ACF1020C5D
:1045E0003A44121AB2FBF8F008FB102200FB09F162
:1045F000A4B244EA0244A14209D93C1900F1FF32B5
:1046000080F00381A14240F2008102383C44641AE8
:10461000002140EA0C401EB10022DC40C6E9004205
:10462000BDE8F08702B9FFDEB2FA82F3002B4FD16A
:104630008D1A01214FEA124E1FFA82F8B5FBFEFCDB
:104640000EFB1C5508FB0CF0220C42EA0545A84263
:1046500007D97D190CF1FF3202D2A84200F2E9809D
:1046600094462D1AB5FBFEF00EFB105508FB00F822
:10467000A4B244EA0544A04507D93C1900F1FF3231
:1046800002D2A04500F2D9801046A4EB080440EA0B
:104690000C40C0E78B4208D9002E00F0B180002109
:1046A000C6E900050846BDE8F087B3FA83F10029A2
:1046B0004BD1AB4202D3824200F2B980841A65EB3F
:1046C000030301209E46002EAAD0C6E9004EA7E7AC
:1046D0009F40C3F12002D1404FEA174EB1FBFEF0DC
:1046E0001FFA87F80EFB101124FA02F29D4000FB1E
:1046F00008FC2A43150C45EA0145AC4504FA03F4CD
:1047000009D97D1900F1FF3180F08F80AC4540F26E
:104710008C8002383D44A5EB0C05B5FBFEF10EFB89
:10472000115C01FB08F995B245EA0C45A94507D98A
:104730007D1901F1FF3274D2A94572D902393D4485
:10474000A5EB090541EA004178E7C1F120078B405C
:1047500022FA07FC4CEA030C25FA07F44FEA1C4E38
:10476000B4FBFEF91FFA8CF80EFB194420FA07F38C
:1047700009FB08FA8D401D432B0C43EA0444A24573
:1047800002FA01F200FA01F309D91CEB040409F161
:10479000FF3048D2A24546D9A9F102096444A4EBEE
:1047A0000A04B4FBFEF00EFB104400FB08FAADB2A5
:1047B00045EA0444A24508D91CEB040400F1FF3586
:1047C0002DD2A2452BD90238644440EA0940A0FB0F
:1047D0000289A4EB0A044C45C6464D4619D316D0AF
:1047E0005EB1B3EB0E0264EB050404FA07F722FA9C
:1047F00001F31F43CC40C6E900740021BDE8F087F7
:10480000314630460CE78C46EBE61046FFE6434562
:10481000E6D2B8EB020E69EB0C050138E0E728465A
:10482000D3E711468CE78146B9E7084673E70846A7
:1048300049E7ACF1020C3D4413E702383C4424E75D
:10484000704700BF032A70B412D940EA0105AD07D2
:1048500004460B461DD11946204653F8045B54F814
:10486000046BAE4215D1043A032A20461946F2D809
:10487000561E9AB10139441E01E0C3180BD014F83A
:10488000015F11F8012F331B9542F6D0A81A70BCB6
:104890007047561EEEE7184670BC70471046F6E7A4
:1048A000844641EA000313F0030349D1403A23D37D
:1048B0000B6803604B6843608B688360CB68C360A0
:1048C0000B6903614B6943618B698361CB69C36188
:1048D0000B6A03624B6A43628B6A8362CB6AC36270
:1048E0000B6B03634B6B43638B6B8363CB6BC36358
:1048F00040304031403ADBD230320BD30B6803609A
:104900004B6843608B688360CB68C36010301031A4
:10491000103AF3D20C3205D351F8043B40F8043B73
:10492000043AF9D2043208D0D2071CBF11F8013B77
:1049300000F8013B01D30B8803806046704700BF3D
:10494000082A13D38B07B1D010F00303AED0C3F104
:104950000403D21ADB071CBF11F8013B00F8013B2E
:10496000A4D331F8023B20F8023B9FE7043AD9D3A5
:10497000013A11F8013B00F8013BF9D20B780370C2
:104980004B7843708B78837060467047F0B486072D
:1049900046D0541E002A3CD00346CAB201E0013C76
:1049A00037D303F8012B9D07F9D1032C2AD9CDB2B7
:1049B00045EA05250F2C45EA054534D9A4F1100236
:1049C00022F00F0C03F120071609674403F11002CF
:1049D00042E9045542E902551032BA42F8D1721C3C
:1049E00014F00C0F03EB021204F00F0613D0331F68
:1049F00023F003030433134442F8045B9342FBD1D6
:104A000006F003042CB1CAB21C4403F8012B9C42EB
:104A1000FBD1F0BC704734461346002CF3D1F8E7C5
:104A200014460346C1E71A462646E0E7FEE708B506
:104A3000FBF72CFCF7B500240646254627463046F2
:104A4000FBF780FD0197019BAB4215DB3046FBF77E
:104A500081FDC5F5C8750197019B9D4211DC0134AC
:104A6000B4F5487F01D103B0F0BDB4F5C87FD4BF21
:104A70002546C4F54875E2E700BF019B0133019369
:104A8000E1E700BF019B01330193E5E77047704701
:104A90000020FBF78DBF0120FBF78ABF0020FCF749
:104AA00053B90120FCF750B90220FCF74DB903209F
:104AB000FCF74AB910B50C46FCF796FA2046BDE85B
:104AC0001040FCF737BD10B50446C1B20020FCF71A
:104AD0008FF8204610BD70B50E460025441E631C9D
:104AE00002D014F8010F08B9284670BDB542FBD0BA
:104AF000FFF7E9FF0135F2E738B505460024285DE8
:104B000020B90A20FFF7DFFF204638BDFFF7DBFFA3
:104B10000134F4E7002070470120704710B50446C7
:104B2000302200210E20FCF77DF96CB1012C0CD154
:104B300042F210730011A0F28E5058432A2390FBCA
:104B4000F3F000F5C340283010BD4FF00040FBE704
:104B5000002070470120704710B504463022002124
:104B60000F20FCF75FF95CB1012C03BF40F6F25354
:104B7000584347F6F0734FF0004008BF90FBF3F046
:104B800010BD084608B511460AB1FFF7A4FF002082
:104B900008BD10B5041F54F8040F00B910BD002162
:104BA000FDF79CFFF7E710B5044600F01BF8204620
:104BB000BDE81040FDF7B4BD10B5044600F019F88B
:104BC0002046BDE81040FDF7ABBDC068B0FA80F0EC
:104BD00040097047837BDB0701D5FDF777BE70473F
:104BE000FFF755BF10B541600446FBF719FE206082
:104BF00010BDD0E9003213440360704710B504467D
:104C0000FBF70EFE2368C3F101030344606898427A
:104C10002CBF0020012010BD0023036070470068F6
:104C20007047006820B1034600680028FBD1184691
:104C30007047036810B53BB1002499421A6806D149
:104C40001CB9026000221A6010BD2260FAE71C46FF
:104C5000002AF9D01346F0E738B50546FFF7E9FF1B
:104C600000230B60FFF7DDFF08B9296038BD016044
:104C7000FCE738B5FFF7DDFF03680B60016038BD66
:104C80000368002003B970471B680130FAE700B1E0
:104C90000068704710B50446428800214068FFF75D
:104CA00075FE23886288A0680021BDE810405A4341
:104CB000FFF76CBE002310B54188994201DC00204B
:104CC00009E04268D418D25C32B90122227002880D
:104CD000806803FB020010BD0133EEE7002330B50E
:104CE000826844889C4201DCFF2008E08A4207D1A8
:104CF0004168CA5C0AB1013ACA544268D05C30BD0E
:104D0000058801332A44EDE782688A4208D843883F
:104D1000008800FB032081422CBF00200120704747
:104D2000002070470023013A0160027143718371D2
:104D3000704710B5427983790479D31A34EA0303B2
:104D400008D00368995443790279013313404371C1
:104D5000012010BD0020FCE7837942790179D21A45
:104D60000A421FBF0268D25C01330B401ABF837135
:104D700010464FF0FF307047831C002013F8022CC0
:104D8000023302B9704713F8032C1044F6E7072BDF
:104D90002DE9F84306460F4615461C4607DC1A4621
:104DA00029463846FEF72AF83070BDE8F8834FEA06
:104DB000E3087AB97B5D73550135A845FADC14F038
:104DC0000702F2D0002107EB0800FEF717F806F8FB
:104DD0000800EAE74FF0000907EB0900082229461E
:104DE000FEF70CF806F8090009F10109C845F3DCE3
:104DF00014F00702D9D02946E5E72DE9F743FEF77D
:104E000047FA04460220FEF7EFF920B900252846AC
:104E100003B0BDE8F0836378207800EB032080B214
:104E2000FEF73CF905460028F0D0FEF731FA0746B8
:104E3000287B10F0070318BF012303EBD000FEF717
:104E4000D3F90028E2D00026B146AC68023414F849
:104E5000023C002BDBD0192B14F8018C07EBE60188
:104E600006F007020BD901A84346FFF790FF14F89C
:104E7000020C01A9FEF7DAFA46440234E7E743469A
:104E800001A8ADF80490FFF782FF9DF805109DF88A
:104E9000043014F8020C43EA0121FEF7B9FAEBE7FB
:104EA000072B2DE9F0410FDC1478C1F11001CB1A6A
:104EB00004FA03F30178C3F307220A43417802702E
:104EC0000B434370BDE8F081DC10C9B9555C455413
:104ED0000131A142FADB13F00703F3D0125DC3F1F5
:104EE00008052A41C3F11003055D02FA03F3C3F379
:104EF00007222A43011902554A7813434B70E1E710
:104F000005460026C1F1080E975D95F800C007FA26
:104F10000EF7C7F307284CEA080C05F801CB95F803
:104F200000C001364CEA0707A6422F70ECDB13F0F5
:104F30000703C7D0125DC3F1080631440A41D2B25B
:104F4000C3F11003015D02FA03F3C3F307220A431E
:104F5000051902556A7813436B70B3E72DE9F743DF
:104F6000057B044615F0070218BF012202EBD505A8
:104F7000A81CFEF7BFF9A8B1FEF750F9A38803708B
:104F8000A3881B0A4370FEF749F92A460025861CB0
:104F900000213046FFF7FAFCA468023414F8020C32
:104FA00018B9012003B0BDE8F083192814F8017C7A
:104FB00006EBE50805F007090AD9FEF743FA3B4678
:104FC000024649464046FFF76BFF3D440234E5E7A1
:104FD000FEF726FA3B46ADF8040001AAF1E710B54A
:104FE000FEF7A4F8FEF7C6F9FDF7F6FF00F03CF86F
:104FF000BDE810404FF461134FF470424FF48051FC
:105000000220FDF7B1BF7047F8B50E46FEF740F934
:1050100007880446FEF706F9BB000233834203D833
:1050200000250234AF4200DCF8BD54F8041B3046C2
:105030000A0C89B2FDF7E2FF0135F3E743695B68CB
:1050400003B11847704713B504461A20FEF7FAF962
:10505000014601A800F058F863691B6813B12046A7
:1050600001A9984702B010BDFEF70AB838B50D4641
:10507000FEF714F8044620B185602846FDF7FAFFD4
:10508000207338BDFDF700BF03691B6803B11847E3
:10509000704703695B6803B11847704783695B68B1
:1050A00003B11847704710B504461B20FEF7BEF940
:1050B0002046BDE81040FDF781BF0EF00F000D281F
:1050C00008BF00F00EB800982DE9F04F00F1240160
:1050D00081F3098890E8F08F0EF00F000D2818BFBB
:1050E0007047EFF3098020E9F04F0990BDE8F08F99
:1050F000006800F1B6018230FEF762B9036803EB85
:105100004103B3F8820070470B8803807047022286
:1051100008B5FFF797FBB0FA80F0400908BD30B53D
:1051200030B3037A022B2CD1C579437A04792DB997
:10513000002B4AD1012C48D1204615E053EA040047
:105140001DD0032D2FD1032B2FD1B4FA84F04009A9
:10515000002309E0181E18BF0120002CF8D1023BE3
:10516000012B8CBF0023012301B10B6002B1106041
:1051700030BD023B012B8CBF00230123DCE7012063
:105180001BE00378022B22D0037953B9437A13F042
:10519000030318BF0123C07910F0030018BF0120DA
:1051A000E2E70023F7E7022DD4D0A3F1020CDCF1F3
:1051B000000040EB0C00002CCAD1022DCFD0032DF3
:1051C000C6D19C1E63426341CEE7002CD1D00020A3
:1051D0000346C9E7002337B50B608B80437D0D463E
:1051E000D9075CBF01232B70037E0446012B0BD82B
:1051F000C37D9A072CD0437E9B0729D0C28B838B1B
:105200009A4225D101232375694601AA04F11000B1
:10521000FFF785FF009B0BB10223EB70019B0BB1E5
:1052200002236B70E37D03F00303022B03D0032BF7
:1052300014BF00230823AB70637E03F00303022B2B
:1052400003D0032B14BF002308232B7103B030BD00
:105250000023D8E702280CBF022308230B448B420B
:1052600001D10120704713F8012DFF2AF7D000204B
:10527000704707B56946FFF7ADFF9DF800309DF810
:105280000100023303449DF8020003449DF803002B
:1052900003449DF8040003449DF80500184403B03E
:1052A0005DF804FB43788278DB00120102F0100203
:1052B00003F008031343027802F007021343C27895
:1052C000520102F0200213430279920102F04002DF
:1052D00013430B704379427A03F0010343EA8213CC
:1052E0008279520002F002021343C279920002F066
:1052F0000C021343027A120102F0300213434B7086
:10530000704737B504460D466946FFF763FF2946E7
:1053100004F11000FFF7C6FF9DF800309DF8012052
:10532000012B09BFA37E0223AB700323022A08D1FD
:10533000A18B5A1CE954A18BD2B20233090ADBB209
:10534000A9549DF802201344DBB2991AC9B2B2B92C
:105350009DF80320022A08D1E18B5A1CE954E18B05
:10536000D2B20233090ADBB2A9549DF804200834F2
:105370001344D8B2831ADBB22AB903B030BD013A64
:10538000A05C6854E1E7013AA15CE954F2E70278D5
:10539000437802F007000870C2F3C0004870C2F3FF
:1053A00000108870C2F34010C2F380120A7103F03B
:1053B00001024A71C3F340028A71C3F38102CA71C8
:1053C000C3F301129B09C8700A724B72704710B484
:1053D0000446084611461A4614B1234610BC184725
:1053E00010BC704730B591B0FDF752FF0446FDF791
:1053F00019FF6A4601462046FEF7B2F8044620B976
:105400004FF0FF34204611B030BDFDF7EDFE00280F
:10541000F6D014209DF81010FDF7FAFF9DF8173014
:10542000ABB1BDF81C50FEF795F8854205D04FF69C
:10543000FF73BDF81C209A42E2D169469DF817001F
:10544000FFF708FF18B969461B20FDF7EFFF02A917
:105450001A20FDF7EBFF13209DF81210FDF7D8FF7F
:105460009DF8153053B99DF81A100A20FDF7D0FFAA
:105470009DF81A100E20FDF7CBFFC3E74FF6FF7122
:10548000F3E70120FEF704B90020FEF701B9002080
:105490007047FEF751BB70B504460D4602B970BDAA
:1054A000D2E90060FDF788FE29462046FEF74AFB58
:1054B0000028F4D03246F1E7FEF744BB7047000005
:1054C0009D57200065052000C10520000000000058
:1054D00001000000010000000100000000C00040C9
:1054E00000410D4000000000110000001700000006
:1054F00000000001FFFFFFFF0500000002000000A8
:10550000020000000200000000D0004008410D40F1
:10551000020000001100000017000000020102005C
:10552000FFFFFFFF06000000385820003C58200015
:105530004B5820004F58200065172000E90F20002D
:1055400035152000B54A200015112000F91420005F
:10555000810F2000990F2000A90F2000F5112000D5
:1055600099132000A912200035162000E510200014
:1055700007000000FF00000005000000ED00000033
:1055800003000000D500000001000000C50000007D
:1055900000000000B6000000FFFFFFFFB0000000A9
:1055A000FDFFFFFFA1000000FBFFFFFF91000000D7
:1055B000F9FFFFFF88000000F7FFFFFF7200000007
:1055C000F5FFFFFF62000000F3FFFFFF580000003F
:1055D000F1FFFFFF42000000E8FFFFFF00000000B6
:1055E000765820001D4B2000154B2000194B200041
:1055F0008A582000594B2000514B2000554B200069
:10560000FB4D20005D4F2000794D20001E592000E9
:10561000DF4F2000552E20000950200007502000A9
:10562000475020003D502000DD3020009D502000DC
:105630008954200083542000E55320002F59200076
:105640008D39200041382000C1372000CD3720009F
:10565000D9372000E537200034592000935420002A
:10566000B954200097542000713C2000393B2000A1
:10567000593C20008F542000C53C20000D3D2000E7
:10568000D53C20003C592000BD542000853D200021
:10569000793D2000E400002000000000000001002F
:1056A000F79C0200D9760300F3840400F3EE0500B2
:1056B000F7920600F39A0700DE210800F2A1090024
:1056C000D8B50A00F21E0B00D95F0C00F2330D00B2
:1056D000DE0C0E00F20E0F00D9491000F3DC1100B1
:1056E000D9231200F38B1300F3C21400F3B7150093
:1056F000DEE41600F3881700F79A1800F7E71900A0
:10570000F2851A00F2271B00F2641C00F3D31D007F
:10571000F38D1E00F7E11F00DEAF2000F2912100A3
:10572000F2D72200F3A32300F2D92400D99F436FBC
:105730006E74696B692D332E782D333334352D67B4
:10574000333262356231376636005A6F6C65727477
:1057500069612046697265666C7920706C61746657
:105760006F726D0052696D6520636F6E6669677553
:10577000726564207769746820616464726573730C
:105780002000253032783A00204E65743A200020FF
:105790004D41433A2000205244433A200042757460
:1057A000746F6E004343323533383A2049443A200F
:1057B00030782530346C782C207265762E3A205063
:1057C0004725642E25642C20466C6173683A202599
:1057D0006C75204B69422C205352414D3A20256C68
:1057E00075204B69422C204145532F5348413A20A4
:1057F00025752C204543432F5253413A2025750AE5
:1058000053797374656D20636C6F636B3A20256CFC
:105810007520487A0A492F4F20636C6F636B3A20DA
:10582000256C7520487A0A5265736574206361752A
:1058300073653A2025730A00504F5200457874650D
:10584000726E616C20726573657400574454004336
:105850004C44206F7220736F66747761726520729A
:1058600065736574006363323533382052462064B3
:105870007269766572004F6E2D43686970205465B9
:105880006D70657261747572650056444433003002
:105890003132333435363738394142434445460096
:1058A0003031323334353637383961626364656696
:1058B000003058003078002D002B00286E756C6C7D
:1058C000290025002020202020202020202020200A
:1058D0002020202030303030303030303030303008
:1058E000303030304576656E742074696D657200B5
:1058F0004374696D65722070726F636573730053D2
:10590000657269616C206472697665720053656EB8
:10591000736F7273000080C0E0F0F8FCFEFF526904
:105920006D65001A10000000001B101A10000043E3
:10593000534D41006E756C6C726463006E756C6CD7
:1059400073656300434C4F434B5F5345434F4E4495
:105950003A20256C750A004170703A204920616D2B
:105960002073696E6B20253032783A2530327820EA
:1059700077697468206E6F64655F69642025750AB5
:10598000004170703A204920616D206E6F726D6128
:105990006C206E6F646520253032783A253032787D
:1059A0002077697468206E6F64655F69642025756F
:1059B0000A004170703A2053656E64207365716E01
:1059C0002025640A004170703A207061636B657431
:1059D0002077697468207365716E20256420636F79
:1059E000756C64206E6F74206265207363686564F3
:1059F000756C65642E0A004170703A2077726F6E84
:105A000067206C656E6774683A2025640A004170EF
:105A1000703A20526563762066726F6D20253032B1
:105A2000783A25303278207365716E2025642068BD
:105A30006F70732025640A004170702070726F636C
:105A4000657373006D795F636F6C6C6563743A2086
:105A5000746F6F2073686F727420756E6963617301
:105A600074207061636B65742025640A005265635D
:105A70006569766564207061636B65742066726F1A
:105A80006D3A20253032782C204F726967696E3A62
:105A900020253032780A00536F75726365202530F7
:105AA000327820686F702025642053656E642074FE
:105AB0006F20253032780A00627566666572207341
:105AC0006574206C656E203A25640A00256C75208B
:105AD00020256C750A004E6F64652070726F6365D7
